{
  "contractName": "ProfitSharing",
  "abi": [
    {
      "constant": false,
      "inputs": [
        {
          "name": "_dividendIndex",
          "type": "uint256"
        }
      ],
      "name": "recycleDividend",
      "outputs": [],
      "payable": false,
      "stateMutability": "nonpayable",
      "type": "function"
    },
    {
      "constant": false,
      "inputs": [],
      "name": "claimDividendAll",
      "outputs": [],
      "payable": false,
      "stateMutability": "nonpayable",
      "type": "function"
    },
    {
      "constant": true,
      "inputs": [],
      "name": "RECYCLE_TIME",
      "outputs": [
        {
          "name": "",
          "type": "uint256"
        }
      ],
      "payable": false,
      "stateMutability": "view",
      "type": "function"
    },
    {
      "constant": true,
      "inputs": [
        {
          "name": "",
          "type": "uint256"
        }
      ],
      "name": "dividends",
      "outputs": [
        {
          "name": "blockNumber",
          "type": "uint256"
        },
        {
          "name": "timestamp",
          "type": "uint256"
        },
        {
          "name": "amount",
          "type": "uint256"
        },
        {
          "name": "claimedAmount",
          "type": "uint256"
        },
        {
          "name": "totalSupply",
          "type": "uint256"
        },
        {
          "name": "recycled",
          "type": "bool"
        }
      ],
      "payable": false,
      "stateMutability": "view",
      "type": "function"
    },
    {
      "constant": true,
      "inputs": [],
      "name": "owner",
      "outputs": [
        {
          "name": "",
          "type": "address"
        }
      ],
      "payable": false,
      "stateMutability": "view",
      "type": "function"
    },
    {
      "constant": false,
      "inputs": [
        {
          "name": "_dividendIndex",
          "type": "uint256"
        }
      ],
      "name": "claimDividend",
      "outputs": [],
      "payable": false,
      "stateMutability": "nonpayable",
      "type": "function"
    },
    {
      "constant": false,
      "inputs": [],
      "name": "depositDividend",
      "outputs": [],
      "payable": true,
      "stateMutability": "payable",
      "type": "function"
    },
    {
      "constant": false,
      "inputs": [
        {
          "name": "newOwner",
          "type": "address"
        }
      ],
      "name": "transferOwnership",
      "outputs": [],
      "payable": false,
      "stateMutability": "nonpayable",
      "type": "function"
    },
    {
      "constant": true,
      "inputs": [],
      "name": "token",
      "outputs": [
        {
          "name": "",
          "type": "address"
        }
      ],
      "payable": false,
      "stateMutability": "view",
      "type": "function"
    },
    {
      "inputs": [
        {
          "name": "_token",
          "type": "address"
        }
      ],
      "payable": false,
      "stateMutability": "nonpayable",
      "type": "constructor"
    },
    {
      "anonymous": false,
      "inputs": [
        {
          "indexed": true,
          "name": "_depositor",
          "type": "address"
        },
        {
          "indexed": false,
          "name": "_blockNumber",
          "type": "uint256"
        },
        {
          "indexed": false,
          "name": "_amount",
          "type": "uint256"
        },
        {
          "indexed": false,
          "name": "_totalSupply",
          "type": "uint256"
        },
        {
          "indexed": false,
          "name": "_dividendIndex",
          "type": "uint256"
        }
      ],
      "name": "DividendDeposited",
      "type": "event"
    },
    {
      "anonymous": false,
      "inputs": [
        {
          "indexed": true,
          "name": "_claimer",
          "type": "address"
        },
        {
          "indexed": false,
          "name": "_dividendIndex",
          "type": "uint256"
        },
        {
          "indexed": false,
          "name": "_claim",
          "type": "uint256"
        }
      ],
      "name": "DividendClaimed",
      "type": "event"
    },
    {
      "anonymous": false,
      "inputs": [
        {
          "indexed": true,
          "name": "_recycler",
          "type": "address"
        },
        {
          "indexed": false,
          "name": "_blockNumber",
          "type": "uint256"
        },
        {
          "indexed": false,
          "name": "_amount",
          "type": "uint256"
        },
        {
          "indexed": false,
          "name": "_totalSupply",
          "type": "uint256"
        },
        {
          "indexed": false,
          "name": "_dividendIndex",
          "type": "uint256"
        }
      ],
      "name": "DividendRecycled",
      "type": "event"
    },
    {
      "anonymous": false,
      "inputs": [
        {
          "indexed": true,
          "name": "previousOwner",
          "type": "address"
        },
        {
          "indexed": true,
          "name": "newOwner",
          "type": "address"
        }
      ],
      "name": "OwnershipTransferred",
      "type": "event"
    }
  ],
  "bytecode": "0x60606040526301e13380600255341561001757600080fd5b604051602080610b0f8339810160405280805160008054600160a060020a03338116600160a060020a031992831617909255600180549290931691161790555050610aa8806100676000396000f30060606040526004361061007f5763ffffffff60e060020a60003504166322c9427e811461008457806330e1f16f1461009c5780637c1a35d7146100af578063814b3fe0146100d45780638da5cb5b146101235780639abd357214610152578063a289d18714610168578063f2fde38b14610170578063fc0c546a1461018f575b600080fd5b341561008f57600080fd5b61009a6004356101a2565b005b34156100a757600080fd5b61009a6103ff565b34156100ba57600080fd5b6100c26104cf565b60405190815260200160405180910390f35b34156100df57600080fd5b6100ea6004356104d5565b60405195865260208601949094526040808601939093526060850191909152608084015290151560a083015260c0909101905180910390f35b341561012e57600080fd5b61013661051c565b604051600160a060020a03909116815260200160405180910390f35b341561015d57600080fd5b61009a60043561052b565b61009a61074f565b341561017b57600080fd5b61009a600160a060020a03600435166108f4565b341561019a57600080fd5b61013661098f565b60008054819081908190819033600160a060020a039081169116146101c657600080fd5b600354869081106101d657600080fd5b60038054889081106101e457fe5b60009182526020909120600790910201600581015490965060ff161561020957600080fd5b61021c61021461099e565b6002546109a3565b60018701541061022b57600080fd5b600160038881548110151561023c57fe5b60009182526020822060079190910201600501805460ff191692151592909217909155600154600160a060020a03169063981b24d09043906040516020015260405160e060020a63ffffffff84160281526004810191909152602401602060405180830381600087803b15156102b157600080fd5b6102c65a03f115156102c257600080fd5b5050506040518051905094506102e0866002015487600301546109a3565b60035490945092506102f34360016109a3565b9150600380548060010182816103099190610a06565b9160005260206000209060070201600060c06040519081016040528086815260200161033361099e565b815260208101899052600060408201819052606082018b9052608090910152919050815181556020820151816001015560408201518160020155606082015181600301556080820151816004015560a0820151600591909101805460ff1916911515919091179055505033600160a060020a03167f820e5e0bd7a055839c0210e84ddba311de47df61f9c489947f436bcf0f302ff1838688876040518085815260200184815260200183815260200182815260200194505050505060405180910390a250505050505050565b600354600160a060020a0333166000908152600460205260408120549091901061042857600080fd5b50600160a060020a0333166000908152600460205260409020545b6003548110156104cc57600380548290811061045b57fe5b60009182526020808320600160a060020a03331684526006600790930201919091019052604090205460ff161580156104b65750600380548290811061049d57fe5b600091825260209091206005600790920201015460ff16155b156104c4576104c48161052b565b600101610443565b50565b60025481565b60038054829081106104e357fe5b60009182526020909120600790910201805460018201546002830154600384015460048501546005909501549395509193909260ff1686565b600054600160a060020a031681565b600354600090819081908490811061054257600080fd5b600380548690811061055057fe5b60009182526020808320600160a060020a03331684526006600790930201918201905260409091205490945060ff161561058957600080fd5b600584015460ff161561059b57600080fd5b6001548454600160a060020a0390911690634ee2cd7e90339060006040516020015260405160e060020a63ffffffff8516028152600160a060020a0390921660048301526024820152604401602060405180830381600087803b151561060057600080fd5b6102c65a03f1151561061157600080fd5b505050604051805190509250610648846004015461063c8660020154866109b590919063ffffffff16565b9063ffffffff6109e016565b600160a060020a03331660009081526006860160205260409020805460ff19166001179055600385015490925061067f90836109f7565b6003850155600082111561070357600160a060020a03331682156108fc0283604051600060405180830381858888f1935050505015156106be57600080fd5b33600160a060020a03167fa1c93169468f71ef26f4adf10bca8df21460f11843a01ed9c69da306e33c3847868460405191825260208201526040908101905180910390a25b600160a060020a0333166000908152600460205260409020548514156107485761072e8560016109f7565b600160a060020a0333166000908152600460205260409020555b5050505050565b600080548190819033600160a060020a0390811691161461076f57600080fd5b600354925061077f4360016109a3565b600154909250600160a060020a031663981b24d08360006040516020015260405160e060020a63ffffffff84160281526004810191909152602401602060405180830381600087803b15156107d357600080fd5b6102c65a03f115156107e457600080fd5b5050506040518051600380549193509150600181016108038382610a06565b9160005260206000209060070201600060c06040519081016040528086815260200161082d61099e565b815234602082015260006040820181905260608201879052608090910152919050815181556020820151816001015560408201518160020155606082015181600301556080820151816004015560a0820151600591909101805460ff1916911515919091179055505033600160a060020a03167fcbf89ed8b63aa0a8f6e744e4023554f41dc830838d138eb2d4099cbcfe4a0831833484876040518085815260200184815260200183815260200182815260200194505050505060405180910390a2505050565b60005433600160a060020a0390811691161461090f57600080fd5b600160a060020a038116151561092457600080fd5b600054600160a060020a0380831691167f8be0079c531659141344cd1fd0a4f28419497f9722a3daafe3b4186f6b6457e060405160405180910390a36000805473ffffffffffffffffffffffffffffffffffffffff1916600160a060020a0392909216919091179055565b600154600160a060020a031681565b425b90565b6000828211156109af57fe5b50900390565b60008282028315806109d157508284828115156109ce57fe5b04145b15156109d957fe5b9392505050565b60008082848115156109ee57fe5b04949350505050565b6000828201838110156109d957fe5b815481835581811511610a3257600702816007028360005260206000209182019101610a329190610a37565b505050565b6109a091905b80821115610a78576000808255600182018190556002820181905560038201819055600482015560058101805460ff19169055600701610a3d565b50905600a165627a7a72305820c7204e8676e8a91092638f572aa2e41d370e8716ebbb67aad76842fe25a503f70029",
  "source": "pragma solidity ^0.4.15;\n\nimport './MiniMeToken.sol';\nimport 'zeppelin-solidity/contracts/math/SafeMath.sol';\nimport 'zeppelin-solidity/contracts/ownership/Ownable.sol';\n\ncontract ProfitSharing is Ownable {\n  using SafeMath for uint;\n\n  event DividendDeposited(address indexed _depositor, uint256 _blockNumber, uint256 _amount, uint256 _totalSupply, uint256 _dividendIndex);\n  event DividendClaimed(address indexed _claimer, uint256 _dividendIndex, uint256 _claim);\n  event DividendRecycled(address indexed _recycler, uint256 _blockNumber, uint256 _amount, uint256 _totalSupply, uint256 _dividendIndex);\n\n  MiniMeToken public token;\n\n  uint256 public RECYCLE_TIME = 1 years;\n\n  struct Dividend {\n    uint256 blockNumber;\n    uint256 timestamp;\n    uint256 amount;\n    uint256 claimedAmount;\n    uint256 totalSupply;\n    bool recycled;\n    mapping (address => bool) claimed;\n  }\n\n  Dividend[] public dividends;\n\n  mapping (address => uint256) dividendsClaimed;\n\n  modifier validDividendIndex(uint256 _dividendIndex) {\n    require(_dividendIndex < dividends.length);\n    _;\n  }\n\n  function ProfitSharing(address _token) {\n    token = MiniMeToken(_token);\n  }\n\n  function depositDividend() payable\n  onlyOwner\n  {\n    uint256 dividendIndex = dividends.length;\n    uint256 blockNumber = SafeMath.sub(block.number, 1);\n    uint256 currentSupply = token.totalSupplyAt(blockNumber);\n    dividends.push(\n      Dividend(\n        blockNumber,\n        getNow(),\n        msg.value,\n        0,\n        currentSupply,\n        false\n      )\n    );\n    DividendDeposited(msg.sender, blockNumber, msg.value, currentSupply, dividendIndex);\n  }\n\n  function claimDividend(uint256 _dividendIndex) public\n  validDividendIndex(_dividendIndex)\n  {\n    Dividend storage dividend = dividends[_dividendIndex];\n    require(dividend.claimed[msg.sender] == false);\n    require(dividend.recycled == false);\n    uint256 balance = token.balanceOfAt(msg.sender, dividend.blockNumber);\n    uint256 claim = balance.mul(dividend.amount).div(dividend.totalSupply);\n    dividend.claimed[msg.sender] = true;\n    dividend.claimedAmount = SafeMath.add(dividend.claimedAmount, claim);\n    if (claim > 0) {\n      msg.sender.transfer(claim);\n      DividendClaimed(msg.sender, _dividendIndex, claim);\n    }\n    if (dividendsClaimed[msg.sender] == _dividendIndex) {\n      dividendsClaimed[msg.sender] = SafeMath.add(_dividendIndex, 1);\n    }\n  }\n\n  function claimDividendAll() public {\n    require(dividendsClaimed[msg.sender] < dividends.length);\n    for (uint i = dividendsClaimed[msg.sender]; i < dividends.length; i++) {\n      if ((dividends[i].claimed[msg.sender] == false) && (dividends[i].recycled == false)) {\n        claimDividend(i);\n      }\n    }\n  }\n\n  function recycleDividend(uint256 _dividendIndex) public\n  onlyOwner\n  validDividendIndex(_dividendIndex)\n  {\n    Dividend storage dividend = dividends[_dividendIndex];\n    require(dividend.recycled == false);\n    require(dividend.timestamp < SafeMath.sub(getNow(), RECYCLE_TIME));\n    dividends[_dividendIndex].recycled = true;\n    uint256 currentSupply = token.totalSupplyAt(block.number);\n    uint256 remainingAmount = SafeMath.sub(dividend.amount, dividend.claimedAmount);\n    uint256 dividendIndex = dividends.length;\n    uint256 blockNumber = SafeMath.sub(block.number, 1);\n    dividends.push(\n      Dividend(\n        blockNumber,\n        getNow(),\n        remainingAmount,\n        0,\n        currentSupply,\n        false\n      )\n    );\n    DividendRecycled(msg.sender, blockNumber, remainingAmount, currentSupply, dividendIndex);\n  }\n\n  //Function is mocked for tests\n  function getNow() internal constant returns (uint256) {\n    return now;\n  }\n\n}\n",
  "sourcePath": "/Users/adamdossa/Development/Ethereum/spectre-tokensale/contracts/ProfitSharing.sol",
  "compiler": {
    "name": "solc",
    "version": "0.4.18+commit.9cf6e910.Emscripten.clang"
  },
  "schemaVersion": "1.0.1",
  "updatedAt": "2017-12-11T11:23:31.373Z"
}