{
  "contractName": "SpectreSubscriberTokenMock",
  "abi": [
    {
      "constant": true,
      "inputs": [],
      "name": "TOKENS_AVAILABLE",
      "outputs": [
        {
          "name": "",
          "type": "uint256"
        }
      ],
      "payable": false,
      "stateMutability": "view",
      "type": "function"
    },
    {
      "constant": true,
      "inputs": [],
      "name": "name",
      "outputs": [
        {
          "name": "",
          "type": "string"
        }
      ],
      "payable": false,
      "stateMutability": "view",
      "type": "function"
    },
    {
      "constant": false,
      "inputs": [
        {
          "name": "_spender",
          "type": "address"
        },
        {
          "name": "_value",
          "type": "uint256"
        }
      ],
      "name": "approve",
      "outputs": [
        {
          "name": "",
          "type": "bool"
        }
      ],
      "payable": false,
      "stateMutability": "nonpayable",
      "type": "function"
    },
    {
      "constant": true,
      "inputs": [],
      "name": "WHITELIST_PERIOD",
      "outputs": [
        {
          "name": "",
          "type": "uint256"
        }
      ],
      "payable": false,
      "stateMutability": "view",
      "type": "function"
    },
    {
      "constant": true,
      "inputs": [],
      "name": "totalSupply",
      "outputs": [
        {
          "name": "",
          "type": "uint256"
        }
      ],
      "payable": false,
      "stateMutability": "view",
      "type": "function"
    },
    {
      "constant": true,
      "inputs": [],
      "name": "presaleEnd",
      "outputs": [
        {
          "name": "",
          "type": "uint256"
        }
      ],
      "payable": false,
      "stateMutability": "view",
      "type": "function"
    },
    {
      "constant": false,
      "inputs": [
        {
          "name": "_from",
          "type": "address"
        },
        {
          "name": "_to",
          "type": "address"
        },
        {
          "name": "_value",
          "type": "uint256"
        }
      ],
      "name": "transferFrom",
      "outputs": [
        {
          "name": "",
          "type": "bool"
        }
      ],
      "payable": false,
      "stateMutability": "nonpayable",
      "type": "function"
    },
    {
      "constant": true,
      "inputs": [],
      "name": "numberOfTokensLeft",
      "outputs": [
        {
          "name": "",
          "type": "uint256"
        }
      ],
      "payable": false,
      "stateMutability": "view",
      "type": "function"
    },
    {
      "constant": true,
      "inputs": [],
      "name": "decimals",
      "outputs": [
        {
          "name": "",
          "type": "uint256"
        }
      ],
      "payable": false,
      "stateMutability": "view",
      "type": "function"
    },
    {
      "constant": false,
      "inputs": [
        {
          "name": "data",
          "type": "uint256[]"
        }
      ],
      "name": "multiSetWhiteList",
      "outputs": [],
      "payable": false,
      "stateMutability": "nonpayable",
      "type": "function"
    },
    {
      "constant": false,
      "inputs": [],
      "name": "unpause",
      "outputs": [],
      "payable": false,
      "stateMutability": "nonpayable",
      "type": "function"
    },
    {
      "constant": true,
      "inputs": [],
      "name": "BONUS_SLAB",
      "outputs": [
        {
          "name": "",
          "type": "uint256"
        }
      ],
      "payable": false,
      "stateMutability": "view",
      "type": "function"
    },
    {
      "constant": false,
      "inputs": [
        {
          "name": "_from",
          "type": "address"
        },
        {
          "name": "_to",
          "type": "address"
        },
        {
          "name": "_amount",
          "type": "uint256"
        }
      ],
      "name": "onTransfer",
      "outputs": [
        {
          "name": "",
          "type": "bool"
        }
      ],
      "payable": false,
      "stateMutability": "nonpayable",
      "type": "function"
    },
    {
      "constant": false,
      "inputs": [],
      "name": "refund",
      "outputs": [],
      "payable": false,
      "stateMutability": "nonpayable",
      "type": "function"
    },
    {
      "constant": true,
      "inputs": [],
      "name": "paused",
      "outputs": [
        {
          "name": "",
          "type": "bool"
        }
      ],
      "payable": false,
      "stateMutability": "view",
      "type": "function"
    },
    {
      "constant": true,
      "inputs": [],
      "name": "discountSaleEnd",
      "outputs": [
        {
          "name": "",
          "type": "uint256"
        }
      ],
      "payable": false,
      "stateMutability": "view",
      "type": "function"
    },
    {
      "constant": false,
      "inputs": [
        {
          "name": "_spender",
          "type": "address"
        },
        {
          "name": "_subtractedValue",
          "type": "uint256"
        }
      ],
      "name": "decreaseApproval",
      "outputs": [
        {
          "name": "success",
          "type": "bool"
        }
      ],
      "payable": false,
      "stateMutability": "nonpayable",
      "type": "function"
    },
    {
      "constant": true,
      "inputs": [],
      "name": "specUWallet",
      "outputs": [
        {
          "name": "",
          "type": "address"
        }
      ],
      "payable": false,
      "stateMutability": "view",
      "type": "function"
    },
    {
      "constant": true,
      "inputs": [
        {
          "name": "_owner",
          "type": "address"
        }
      ],
      "name": "balanceOf",
      "outputs": [
        {
          "name": "balance",
          "type": "uint256"
        }
      ],
      "payable": false,
      "stateMutability": "view",
      "type": "function"
    },
    {
      "constant": false,
      "inputs": [
        {
          "name": "_presaleStart",
          "type": "uint256"
        },
        {
          "name": "_presaleEnd",
          "type": "uint256"
        },
        {
          "name": "_saleStart",
          "type": "uint256"
        },
        {
          "name": "_saleEnd",
          "type": "uint256"
        },
        {
          "name": "_discountSaleEnd",
          "type": "uint256"
        }
      ],
      "name": "configure",
      "outputs": [],
      "payable": false,
      "stateMutability": "nonpayable",
      "type": "function"
    },
    {
      "constant": false,
      "inputs": [],
      "name": "withdrawEther",
      "outputs": [],
      "payable": false,
      "stateMutability": "nonpayable",
      "type": "function"
    },
    {
      "constant": false,
      "inputs": [],
      "name": "setRefundable",
      "outputs": [],
      "payable": false,
      "stateMutability": "nonpayable",
      "type": "function"
    },
    {
      "constant": true,
      "inputs": [],
      "name": "MIN_CAP",
      "outputs": [
        {
          "name": "",
          "type": "uint256"
        }
      ],
      "payable": false,
      "stateMutability": "view",
      "type": "function"
    },
    {
      "constant": true,
      "inputs": [],
      "name": "tokenAddressesSet",
      "outputs": [
        {
          "name": "",
          "type": "bool"
        }
      ],
      "payable": false,
      "stateMutability": "view",
      "type": "function"
    },
    {
      "constant": false,
      "inputs": [],
      "name": "pause",
      "outputs": [],
      "payable": false,
      "stateMutability": "nonpayable",
      "type": "function"
    },
    {
      "constant": true,
      "inputs": [],
      "name": "configured",
      "outputs": [
        {
          "name": "",
          "type": "bool"
        }
      ],
      "payable": false,
      "stateMutability": "view",
      "type": "function"
    },
    {
      "constant": true,
      "inputs": [],
      "name": "owner",
      "outputs": [
        {
          "name": "",
          "type": "address"
        }
      ],
      "payable": false,
      "stateMutability": "view",
      "type": "function"
    },
    {
      "constant": false,
      "inputs": [
        {
          "name": "_b",
          "type": "uint256"
        }
      ],
      "name": "setMockedNow",
      "outputs": [],
      "payable": false,
      "stateMutability": "nonpayable",
      "type": "function"
    },
    {
      "constant": true,
      "inputs": [],
      "name": "symbol",
      "outputs": [
        {
          "name": "",
          "type": "string"
        }
      ],
      "payable": false,
      "stateMutability": "view",
      "type": "function"
    },
    {
      "constant": true,
      "inputs": [
        {
          "name": "",
          "type": "address"
        }
      ],
      "name": "whitelist",
      "outputs": [
        {
          "name": "",
          "type": "uint256"
        }
      ],
      "payable": false,
      "stateMutability": "view",
      "type": "function"
    },
    {
      "constant": true,
      "inputs": [],
      "name": "MIN_FUND_AMOUNT",
      "outputs": [
        {
          "name": "",
          "type": "uint256"
        }
      ],
      "payable": false,
      "stateMutability": "view",
      "type": "function"
    },
    {
      "constant": false,
      "inputs": [
        {
          "name": "_specUWallet",
          "type": "address"
        },
        {
          "name": "_specDWallet",
          "type": "address"
        }
      ],
      "name": "setTokenAddresses",
      "outputs": [],
      "payable": false,
      "stateMutability": "nonpayable",
      "type": "function"
    },
    {
      "constant": false,
      "inputs": [
        {
          "name": "_to",
          "type": "address"
        },
        {
          "name": "_value",
          "type": "uint256"
        }
      ],
      "name": "transfer",
      "outputs": [
        {
          "name": "success",
          "type": "bool"
        }
      ],
      "payable": false,
      "stateMutability": "nonpayable",
      "type": "function"
    },
    {
      "constant": true,
      "inputs": [],
      "name": "saleStart",
      "outputs": [
        {
          "name": "",
          "type": "uint256"
        }
      ],
      "payable": false,
      "stateMutability": "view",
      "type": "function"
    },
    {
      "constant": false,
      "inputs": [],
      "name": "fundContract",
      "outputs": [],
      "payable": true,
      "stateMutability": "payable",
      "type": "function"
    },
    {
      "constant": true,
      "inputs": [],
      "name": "refundable",
      "outputs": [
        {
          "name": "",
          "type": "bool"
        }
      ],
      "payable": false,
      "stateMutability": "view",
      "type": "function"
    },
    {
      "constant": true,
      "inputs": [],
      "name": "specWallet",
      "outputs": [
        {
          "name": "",
          "type": "address"
        }
      ],
      "payable": false,
      "stateMutability": "view",
      "type": "function"
    },
    {
      "constant": true,
      "inputs": [],
      "name": "saleEnd",
      "outputs": [
        {
          "name": "",
          "type": "uint256"
        }
      ],
      "payable": false,
      "stateMutability": "view",
      "type": "function"
    },
    {
      "constant": false,
      "inputs": [
        {
          "name": "_subscriber",
          "type": "address"
        },
        {
          "name": "_amount",
          "type": "uint256"
        }
      ],
      "name": "setWhiteList",
      "outputs": [],
      "payable": false,
      "stateMutability": "nonpayable",
      "type": "function"
    },
    {
      "constant": true,
      "inputs": [],
      "name": "TOKEN_PRICE",
      "outputs": [
        {
          "name": "",
          "type": "uint256"
        }
      ],
      "payable": false,
      "stateMutability": "view",
      "type": "function"
    },
    {
      "constant": false,
      "inputs": [
        {
          "name": "_spender",
          "type": "address"
        },
        {
          "name": "_addedValue",
          "type": "uint256"
        }
      ],
      "name": "increaseApproval",
      "outputs": [
        {
          "name": "success",
          "type": "bool"
        }
      ],
      "payable": false,
      "stateMutability": "nonpayable",
      "type": "function"
    },
    {
      "constant": true,
      "inputs": [
        {
          "name": "",
          "type": "address"
        }
      ],
      "name": "bonus",
      "outputs": [
        {
          "name": "",
          "type": "uint256"
        }
      ],
      "payable": false,
      "stateMutability": "view",
      "type": "function"
    },
    {
      "constant": false,
      "inputs": [
        {
          "name": "_owner",
          "type": "address"
        },
        {
          "name": "_spender",
          "type": "address"
        },
        {
          "name": "_amount",
          "type": "uint256"
        }
      ],
      "name": "onApprove",
      "outputs": [
        {
          "name": "",
          "type": "bool"
        }
      ],
      "payable": false,
      "stateMutability": "nonpayable",
      "type": "function"
    },
    {
      "constant": true,
      "inputs": [
        {
          "name": "_owner",
          "type": "address"
        },
        {
          "name": "_spender",
          "type": "address"
        }
      ],
      "name": "allowance",
      "outputs": [
        {
          "name": "remaining",
          "type": "uint256"
        }
      ],
      "payable": false,
      "stateMutability": "view",
      "type": "function"
    },
    {
      "constant": true,
      "inputs": [],
      "name": "presaleStart",
      "outputs": [
        {
          "name": "",
          "type": "uint256"
        }
      ],
      "payable": false,
      "stateMutability": "view",
      "type": "function"
    },
    {
      "constant": true,
      "inputs": [],
      "name": "specDWallet",
      "outputs": [
        {
          "name": "",
          "type": "address"
        }
      ],
      "payable": false,
      "stateMutability": "view",
      "type": "function"
    },
    {
      "constant": false,
      "inputs": [
        {
          "name": "newOwner",
          "type": "address"
        }
      ],
      "name": "transferOwnership",
      "outputs": [],
      "payable": false,
      "stateMutability": "nonpayable",
      "type": "function"
    },
    {
      "constant": false,
      "inputs": [
        {
          "name": "_owner",
          "type": "address"
        }
      ],
      "name": "proxyPayment",
      "outputs": [
        {
          "name": "",
          "type": "bool"
        }
      ],
      "payable": true,
      "stateMutability": "payable",
      "type": "function"
    },
    {
      "inputs": [
        {
          "name": "_specWallet",
          "type": "address"
        }
      ],
      "payable": false,
      "stateMutability": "nonpayable",
      "type": "constructor"
    },
    {
      "payable": true,
      "stateMutability": "payable",
      "type": "fallback"
    },
    {
      "anonymous": false,
      "inputs": [
        {
          "indexed": false,
          "name": "_now",
          "type": "uint256"
        }
      ],
      "name": "MockNow",
      "type": "event"
    },
    {
      "anonymous": false,
      "inputs": [
        {
          "indexed": true,
          "name": "_to",
          "type": "address"
        },
        {
          "indexed": false,
          "name": "_value",
          "type": "uint256"
        }
      ],
      "name": "Refund",
      "type": "event"
    },
    {
      "anonymous": false,
      "inputs": [
        {
          "indexed": true,
          "name": "_from",
          "type": "address"
        },
        {
          "indexed": false,
          "name": "_value",
          "type": "uint256"
        },
        {
          "indexed": false,
          "name": "_total",
          "type": "uint256"
        }
      ],
      "name": "ContractFunded",
      "type": "event"
    },
    {
      "anonymous": false,
      "inputs": [],
      "name": "Refundable",
      "type": "event"
    },
    {
      "anonymous": false,
      "inputs": [
        {
          "indexed": true,
          "name": "_subscriber",
          "type": "address"
        },
        {
          "indexed": false,
          "name": "_value",
          "type": "uint256"
        }
      ],
      "name": "WhiteListSet",
      "type": "event"
    },
    {
      "anonymous": false,
      "inputs": [
        {
          "indexed": true,
          "name": "_from",
          "type": "address"
        },
        {
          "indexed": true,
          "name": "_to",
          "type": "address"
        },
        {
          "indexed": false,
          "name": "_value",
          "type": "uint256"
        }
      ],
      "name": "OwnerTransfer",
      "type": "event"
    },
    {
      "anonymous": false,
      "inputs": [],
      "name": "Pause",
      "type": "event"
    },
    {
      "anonymous": false,
      "inputs": [],
      "name": "Unpause",
      "type": "event"
    },
    {
      "anonymous": false,
      "inputs": [
        {
          "indexed": true,
          "name": "previousOwner",
          "type": "address"
        },
        {
          "indexed": true,
          "name": "newOwner",
          "type": "address"
        }
      ],
      "name": "OwnershipTransferred",
      "type": "event"
    },
    {
      "anonymous": false,
      "inputs": [
        {
          "indexed": true,
          "name": "owner",
          "type": "address"
        },
        {
          "indexed": true,
          "name": "spender",
          "type": "address"
        },
        {
          "indexed": false,
          "name": "value",
          "type": "uint256"
        }
      ],
      "name": "Approval",
      "type": "event"
    },
    {
      "anonymous": false,
      "inputs": [
        {
          "indexed": true,
          "name": "from",
          "type": "address"
        },
        {
          "indexed": true,
          "name": "to",
          "type": "address"
        },
        {
          "indexed": false,
          "name": "value",
          "type": "uint256"
        }
      ],
      "name": "Transfer",
      "type": "event"
    }
  ],
  "bytecode": "0x60606040526003805460a060020a60ff02191690556006805460a060020a62ffffff02191690556001600e5534156200003757600080fd5b60405160208062001e918339810160405280805160038054600160a060020a03191633600160a060020a0390811691909117909155909250829150811615156200008057600080fd5b60048054600160a060020a031916600160a060020a038316179055620000b3640100000000620000bb8102620014e41704565b505062000155565b60035433600160a060020a03908116911614620000d757600080fd5b60035474010000000000000000000000000000000000000000900460ff16156200010057600080fd5b6003805460a060020a60ff021916740100000000000000000000000000000000000000001790557f6985a02210a168e66602d3235cb6db0e70f92b3ba4d376a33c0f3d9434bff62560405160405180910390a1565b611d2c80620001656000396000f3006060604052600436106102455763ffffffff7c0100000000000000000000000000000000000000000000000000000000600035041663062fe08e81146102db57806306fdde0314610300578063095ea7b31461038a5780630ec4fb0a146103c057806318160ddd146103d3578063229f3e29146103e657806323b872dd146103f957806327ea06b814610421578063313ce567146104345780633c5972ff146104475780633f4ba83a146104965780634051ed26146104a95780634a393149146104bc578063590e1ae3146104e45780635c975abb146104f757806361a65e2a1461050a578063661884631461051d5780636a7254a31461053f57806370a082311461056e5780637126a8551461058d5780637362377b146105af5780637ba7dcea146105c2578063801db9cc146105d5578063808a69e2146105e85780638456cb59146105fb5780638772a23a1461060e5780638da5cb5b14610621578063911058df1461063457806395d89b411461064a5780639b19251a1461065d578063a5e558a31461067c578063a89c8c5e1461068f578063a9059cbb146106b4578063ab0bcc41146106d6578063bd097e21146106e9578063bf89662d146106f1578063bfd0a55314610704578063c10b935814610717578063c156776a1461072a578063d2d8cb671461074c578063d73dd6231461075f578063d8cb4aa314610781578063da682aeb146104bc578063dd62ed3e146107a0578063de8801e5146107c5578063e3e5439c146107d8578063f2fde38b146107eb578063f48c30541461080a575b60035460a060020a900460ff161561025c57600080fd5b670de0b6b3a764000034101561027157600080fd5b60075461027c61081e565b10158015610293575060085461029061081e565b11155b156102a5576102a0610824565b6102d9565b6009546102b061081e565b101580156102c75750600a546102c461081e565b11155b156102d4576102a0610b1a565b600080fd5b005b34156102e657600080fd5b6102ee610ca4565b60405190815260200160405180910390f35b341561030b57600080fd5b610313610cb3565b60405160208082528190810183818151815260200191508051906020019080838360005b8381101561034f578082015183820152602001610337565b50505050905090810190601f16801561037c5780820380516001836020036101000a031916815260200191505b509250505060405180910390f35b341561039557600080fd5b6103ac600160a060020a0360043516602435610cea565b604051901515815260200160405180910390f35b34156103cb57600080fd5b6102ee610d56565b34156103de57600080fd5b6102ee610d5d565b34156103f157600080fd5b6102ee610d63565b341561040457600080fd5b6103ac600160a060020a0360043581169060243516604435610d69565b341561042c57600080fd5b6102ee610ef7565b341561043f57600080fd5b6102ee610f1c565b341561045257600080fd5b6102d96004602481358181019083013580602081810201604051908101604052809392919081815260200183836020028082843750949650610f2195505050505050565b34156104a157600080fd5b6102d9610fb4565b34156104b457600080fd5b6102ee61104b565b34156104c757600080fd5b6103ac600160a060020a036004358116906024351660443561105a565b34156104ef57600080fd5b6102d9611063565b341561050257600080fd5b6103ac611186565b341561051557600080fd5b6102ee611196565b341561052857600080fd5b6103ac600160a060020a036004351660243561119c565b341561054a57600080fd5b610552611296565b604051600160a060020a03909116815260200160405180910390f35b341561057957600080fd5b6102ee600160a060020a03600435166112a5565b341561059857600080fd5b6102d96004356024356044356064356084356112c0565b34156105ba57600080fd5b6102d96113a1565b34156105cd57600080fd5b6102d9611412565b34156105e057600080fd5b6102ee6114c5565b34156105f357600080fd5b6103ac6114d4565b341561060657600080fd5b6102d96114e4565b341561061957600080fd5b6103ac611568565b341561062c57600080fd5b610552611578565b341561063f57600080fd5b6102d9600435611587565b341561065557600080fd5b6103136115c2565b341561066857600080fd5b6102ee600160a060020a03600435166115f9565b341561068757600080fd5b6102ee61160b565b341561069a57600080fd5b6102d9600160a060020a0360043581169060243516611617565b34156106bf57600080fd5b6103ac600160a060020a0360043516602435611713565b34156106e157600080fd5b6102ee6117c1565b6102d96117c7565b34156106fc57600080fd5b6103ac61184d565b341561070f57600080fd5b61055261185d565b341561072257600080fd5b6102ee61186c565b341561073557600080fd5b6102d9600160a060020a0360043516602435611872565b341561075757600080fd5b6102ee611902565b341561076a57600080fd5b6103ac600160a060020a036004351660243561190d565b341561078c57600080fd5b6102ee600160a060020a03600435166119b1565b34156107ab57600080fd5b6102ee600160a060020a03600435811690602435166119c3565b34156107d057600080fd5b6102ee6119ee565b34156107e357600080fd5b6105526119f4565b34156107f657600080fd5b6102d9600160a060020a0360043516611a03565b6103ac600160a060020a0360043516611a9e565b600e5490565b60008060008060008060006203f4806007540161083f61081e565b101561091057600160a060020a0333166000908152600c60205260408120541161086857600080fd5b600160a060020a0333166000908152600c60205260409020546108a59060649061089990605f63ffffffff611aa416565b9063ffffffff611acf16565b600160a060020a0333166000908152600c60205260409020549097506108d99060649061089990607863ffffffff611aa416565b95508634101580156108eb5750853411155b15156108f657600080fd5b600160a060020a0333166000908152600c60205260408120555b6109336601c6bf5263400061089934670de0b6b3a764000063ffffffff611aa416565b6000805491965094506a52b7d2dcc80cd2e40000009010156109c757600054610968906a52b7d2dcc80cd2e400000090611ae6565b92506109748386611af8565b91506109808583611ae6565b9050610998606461089984602163ffffffff611aa416565b93506109c06109b3606461089984601663ffffffff611aa416565b859063ffffffff611b0e16565b93506109e0565b6109dd606461089987601663ffffffff611aa416565b93505b6109f0858563ffffffff611b0e16565b600160a060020a0333166000908152600d6020526040902054909550610a1c908563ffffffff611b0e16565b600160a060020a033381166000908152600d6020526040908190209290925560045416903480156108fc029151600060405180830381858888f193505050501515610a6657600080fd5b600054610a79908663ffffffff611b0e16565b60008190556ac685fa11e01ec6f0000000901115610a9657600080fd5b600160a060020a033316600090815260016020526040902054610abf908663ffffffff611b0e16565b600160a060020a0333166000818152600160205260408082209390935590917fddf252ad1be2c89b69c2b068fc378daa952ba7f163c4a11628f55a4df523b3ef9088905190815260200160405180910390a350505050505050565b600080610b406601c6bf5263400061089934670de0b6b3a764000063ffffffff611aa416565b915060009050600b54610b5161081e565b11610b6f57610b6c606461089984600b63ffffffff611aa416565b90505b610b7f828263ffffffff611b0e16565b600160a060020a0333166000908152600d6020526040902054909250610bab908263ffffffff611b0e16565b600160a060020a033381166000908152600d6020526040908190209290925560045416903480156108fc029151600060405180830381858888f193505050501515610bf557600080fd5b600054610c08908363ffffffff611b0e16565b60008190556ac685fa11e01ec6f0000000901115610c2557600080fd5b600160a060020a033316600090815260016020526040902054610c4e908363ffffffff611b0e16565b600160a060020a0333166000818152600160205260408082209390935590917fddf252ad1be2c89b69c2b068fc378daa952ba7f163c4a11628f55a4df523b3ef9085905190815260200160405180910390a35050565b6ac685fa11e01ec6f000000081565b60408051908101604052601881527f53504543545245205355425343524942455220544f4b454e0000000000000000602082015281565b600160a060020a03338116600081815260026020908152604080832094871680845294909152808220859055909291907f8c5be1e5ebec7d5bd14f71427d1e84f3dd0314c0f7b2291e5b200ac8c7c3b9259085905190815260200160405180910390a350600192915050565b6203f48081565b60005481565b60085481565b600080610d74611cee565b60065460b060020a900460ff161515610d8c57600080fd5b600a54610d9761081e565b11610da157600080fd5b6000546a0422ca8b0a00a425000000901015610dbc57600080fd5b600554600160a060020a0386811691161480610de55750600654600160a060020a038681169116145b1515610df057600080fd5b610df985611b1d565b1515610e0457600080fd5b60035433600160a060020a039081169116148015610e2f5750600a546224ea0001610e2d61081e565b115b15610e805784600160a060020a031686600160a060020a03167fd30796a26ac49ebbc2092097f71aea64b94ffc866a5909a76002686237beff608660405190815260200160405180910390a3610ee1565b600160a060020a03808716600090815260026020908152604080832033909416835292905220549150610eb9828563ffffffff611ae616565b600160a060020a03808816600090815260026020908152604080832033909416835292905220555b610eed86868684611b25565b9695505050505050565b60008054610f17906ac685fa11e01ec6f00000009063ffffffff611ae616565b905090565b601281565b6003546000908190819033600160a060020a03908116911614610f4357600080fd5b600092505b8351831015610fae57600160a060020a03848481518110610f6557fe5b9060200190602002015116915060a060020a848481518110610f8357fe5b90602001906020020151811515610f9657fe5b049050610fa38282611872565b600190920191610f48565b50505050565b60035433600160a060020a03908116911614610fcf57600080fd5b60035460a060020a900460ff161515610fe757600080fd5b60065460a860020a900460ff161515610fff57600080fd5b6003805474ff0000000000000000000000000000000000000000191690557f7805862f689e2f13df9f062ff482ad3ad112aca9e0847911ed832e158c525b3360405160405180910390a1565b6a52b7d2dcc80cd2e400000081565b60019392505050565b60065460009060a060020a900460ff16151561107e57600080fd5b600160a060020a033316600090815260016020526040812054116110a157600080fd5b600160a060020a0333166000908152600d60209081526040808320546001909252909120546110d59163ffffffff611ae616565b600160a060020a0333166000908152600160205260408120559050611113670de0b6b3a7640000610899836601c6bf5263400063ffffffff611aa416565b9050600160a060020a03331681156108fc0282604051600060405180830381858888f19350505050151561114657600080fd5b33600160a060020a03167fbb28353e4598c3b9199101a66e0989549b659a59a54d2c27fbb183f1932c8e6d8260405190815260200160405180910390a250565b60035460a060020a900460ff1681565b600b5481565b600160a060020a033381166000908152600260209081526040808320938616835292905290812054808311156111f957600160a060020a033381166000908152600260209081526040808320938816835292905290812055611230565b611209818463ffffffff611ae616565b600160a060020a033381166000908152600260209081526040808320938916835292905220555b600160a060020a0333811660008181526002602090815260408083209489168084529490915290819020547f8c5be1e5ebec7d5bd14f71427d1e84f3dd0314c0f7b2291e5b200ac8c7c3b925915190815260200160405180910390a35060019392505050565b600654600160a060020a031681565b600160a060020a031660009081526001602052604090205490565b60035433600160a060020a039081169116146112db57600080fd5b60065460a860020a900460ff16156112f257600080fd5b6112fa61081e565b851161130557600080fd5b84841161131157600080fd5b83831161131d57600080fd5b82821161132957600080fd5b82811180156113385750818111155b151561134357600080fd5b600785905560088490556009839055600a829055600b8190556006805475ff000000000000000000000000000000000000000000191660a860020a179081905560b060020a900460ff161561139a5761139a610fb4565b5050505050565b60065460a060020a900460ff16156113b857600080fd5b60035433600160a060020a039081169116146113d357600080fd5b33600160a060020a03166108fc30600160a060020a0316319081150290604051600060405180830381858888f19350505050151561141057600080fd5b565b60035433600160a060020a0390811691161461142d57600080fd5b6000600160a060020a033016311161144457600080fd5b600a5461144f61081e565b1161145957600080fd5b6000546a0422ca8b0a00a425000000901061147357600080fd5b7f22f77d2a7e7c2b34047279a1227fbf143e6ebe8ad0afde75d6814b481e2016bf60405160405180910390a16006805474ff0000000000000000000000000000000000000000191660a060020a179055565b6a0422ca8b0a00a42500000081565b60065460b060020a900460ff1681565b60035433600160a060020a039081169116146114ff57600080fd5b60035460a060020a900460ff161561151657600080fd5b6003805474ff0000000000000000000000000000000000000000191660a060020a1790557f6985a02210a168e66602d3235cb6db0e70f92b3ba4d376a33c0f3d9434bff62560405160405180910390a1565b60065460a860020a900460ff1681565b600354600160a060020a031681565b600e8190557ff54bf4ed226aa1df732802a8bd56e85755aab0a0ef7c2fbf204cf0de0765f0738160405190815260200160405180910390a150565b60408051908101604052600381527f5358530000000000000000000000000000000000000000000000000000000000602082015281565b600c6020526000908152604090205481565b670de0b6b3a764000081565b60035433600160a060020a0390811691161461163257600080fd5b60065460b060020a900460ff161561164957600080fd5b600160a060020a038116151561165e57600080fd5b600160a060020a038216151561167357600080fd5b61167c81611b1d565b151561168757600080fd5b61169082611b1d565b151561169b57600080fd5b6006805460058054600160a060020a0385811673ffffffffffffffffffffffffffffffffffffffff199283161790925576ff00000000000000000000000000000000000000000000199186169216919091171660b060020a179081905560a860020a900460ff161561170f5761170f610fb4565b5050565b600061171d611cee565b60065460b060020a900460ff16151561173557600080fd5b600a5461174061081e565b1161174a57600080fd5b6000546a0422ca8b0a00a42500000090101561176557600080fd5b600554600160a060020a038581169116148061178e5750600654600160a060020a038581169116145b151561179957600080fd5b6117a284611b1d565b15156117ad57600080fd5b6117b933858584611b25565b949350505050565b60095481565b60035433600160a060020a03908116911614806117f2575060045433600160a060020a039081169116145b15156117fd57600080fd5b33600160a060020a03167f3b31cbadfd3fd939750f09d3bdbd6c0531dde23f05d55dcc202798f39d0908953430600160a060020a03163160405191825260208201526040908101905180910390a2565b60065460a060020a900460ff1681565b600454600160a060020a031681565b600a5481565b60035433600160a060020a0390811691161461188d57600080fd5b600160a060020a03821615156118a257600080fd5b8015156118ae57600080fd5b600160a060020a0382166000818152600c6020526040908190208390557f4251447a1c2fc6305b03db2d0e7dde804e542b8d978296f7d487ace195839ae89083905190815260200160405180910390a25050565b6601c6bf5263400081565b600160a060020a033381166000908152600260209081526040808320938616835292905290812054611945908363ffffffff611b0e16565b600160a060020a0333811660008181526002602090815260408083209489168084529490915290819020849055919290917f8c5be1e5ebec7d5bd14f71427d1e84f3dd0314c0f7b2291e5b200ac8c7c3b92591905190815260200160405180910390a350600192915050565b600d6020526000908152604090205481565b600160a060020a03918216600090815260026020908152604080832093909416825291909152205490565b60075481565b600554600160a060020a031681565b60035433600160a060020a03908116911614611a1e57600080fd5b600160a060020a0381161515611a3357600080fd5b600354600160a060020a0380831691167f8be0079c531659141344cd1fd0a4f28419497f9722a3daafe3b4186f6b6457e060405160405180910390a36003805473ffffffffffffffffffffffffffffffffffffffff1916600160a060020a0392909216919091179055565b50600090565b6000828202831580611ac05750828482811515611abd57fe5b04145b1515611ac857fe5b9392505050565b6000808284811515611add57fe5b04949350505050565b600082821115611af257fe5b50900390565b6000818310611b075781611ac8565b5090919050565b600082820183811015611ac857fe5b6000903b1190565b60008083611b32876112a5565b1015611b3d57600080fd5b611b5684611b4a886112a5565b9063ffffffff611ae616565b600160a060020a038716600090815260016020526040902055611b8884611b7c876112a5565b9063ffffffff611b0e16565b600160a060020a03861660008181526001602052604090819020929092558692509063c0ee0b8a90889087908790518463ffffffff167c01000000000000000000000000000000000000000000000000000000000281526004018084600160a060020a0316600160a060020a0316815260200183815260200180602001828103825283818151815260200191508051906020019080838360005b83811015611c3a578082015183820152602001611c22565b50505050905090810190601f168015611c675780820380516001836020036101000a031916815260200191505b50945050505050600060405180830381600087803b1515611c8757600080fd5b6102c65a03f11515611c9857600080fd5b50505084600160a060020a031686600160a060020a03167fddf252ad1be2c89b69c2b068fc378daa952ba7f163c4a11628f55a4df523b3ef8660405190815260200160405180910390a350600195945050505050565b602060405190810160405260008152905600a165627a7a72305820539ee1ab087af9aea0dea7f3f889d7ae48d80ab880db21e0c602cb6f91cccb0a0029",
  "source": "pragma solidity ^0.4.15;\n\nimport '../SpectreSubscriberToken.sol';\n\ncontract SpectreSubscriberTokenMock is SpectreSubscriberToken {\n\n  event MockNow(uint _now);\n\n  uint mock_now = 1;\n\n  function SpectreSubscriberTokenMock(address _specWallet)\n    SpectreSubscriberToken(_specWallet)\n  {}\n\n  function getNow() internal constant returns (uint) {\n      return mock_now;\n  }\n\n  function setMockedNow(uint _b) public {\n      mock_now = _b;\n      MockNow(_b);\n  }\n\n}\n",
  "sourcePath": "/Users/adamdossa/Development/Ethereum/spectre-tokensale/contracts/mock/SpectreSubscriberTokenMock.sol",
  "compiler": {
    "name": "solc",
    "version": "0.4.18+commit.9cf6e910.Emscripten.clang"
  },
  "schemaVersion": "1.0.1",
  "updatedAt": "2017-12-11T11:23:31.418Z"
}