{
  "contractName": "SpectreSubscriberToken",
  "abi": [
    {
      "constant": true,
      "inputs": [],
      "name": "TOKENS_AVAILABLE",
      "outputs": [
        {
          "name": "",
          "type": "uint256"
        }
      ],
      "payable": false,
      "stateMutability": "view",
      "type": "function"
    },
    {
      "constant": true,
      "inputs": [],
      "name": "name",
      "outputs": [
        {
          "name": "",
          "type": "string"
        }
      ],
      "payable": false,
      "stateMutability": "view",
      "type": "function"
    },
    {
      "constant": false,
      "inputs": [
        {
          "name": "_spender",
          "type": "address"
        },
        {
          "name": "_value",
          "type": "uint256"
        }
      ],
      "name": "approve",
      "outputs": [
        {
          "name": "",
          "type": "bool"
        }
      ],
      "payable": false,
      "stateMutability": "nonpayable",
      "type": "function"
    },
    {
      "constant": true,
      "inputs": [],
      "name": "WHITELIST_PERIOD",
      "outputs": [
        {
          "name": "",
          "type": "uint256"
        }
      ],
      "payable": false,
      "stateMutability": "view",
      "type": "function"
    },
    {
      "constant": true,
      "inputs": [],
      "name": "totalSupply",
      "outputs": [
        {
          "name": "",
          "type": "uint256"
        }
      ],
      "payable": false,
      "stateMutability": "view",
      "type": "function"
    },
    {
      "constant": true,
      "inputs": [],
      "name": "presaleEnd",
      "outputs": [
        {
          "name": "",
          "type": "uint256"
        }
      ],
      "payable": false,
      "stateMutability": "view",
      "type": "function"
    },
    {
      "constant": false,
      "inputs": [
        {
          "name": "_from",
          "type": "address"
        },
        {
          "name": "_to",
          "type": "address"
        },
        {
          "name": "_value",
          "type": "uint256"
        }
      ],
      "name": "transferFrom",
      "outputs": [
        {
          "name": "",
          "type": "bool"
        }
      ],
      "payable": false,
      "stateMutability": "nonpayable",
      "type": "function"
    },
    {
      "constant": true,
      "inputs": [],
      "name": "numberOfTokensLeft",
      "outputs": [
        {
          "name": "",
          "type": "uint256"
        }
      ],
      "payable": false,
      "stateMutability": "view",
      "type": "function"
    },
    {
      "constant": true,
      "inputs": [],
      "name": "decimals",
      "outputs": [
        {
          "name": "",
          "type": "uint256"
        }
      ],
      "payable": false,
      "stateMutability": "view",
      "type": "function"
    },
    {
      "constant": false,
      "inputs": [
        {
          "name": "data",
          "type": "uint256[]"
        }
      ],
      "name": "multiSetWhiteList",
      "outputs": [],
      "payable": false,
      "stateMutability": "nonpayable",
      "type": "function"
    },
    {
      "constant": false,
      "inputs": [],
      "name": "unpause",
      "outputs": [],
      "payable": false,
      "stateMutability": "nonpayable",
      "type": "function"
    },
    {
      "constant": true,
      "inputs": [],
      "name": "BONUS_SLAB",
      "outputs": [
        {
          "name": "",
          "type": "uint256"
        }
      ],
      "payable": false,
      "stateMutability": "view",
      "type": "function"
    },
    {
      "constant": false,
      "inputs": [
        {
          "name": "_from",
          "type": "address"
        },
        {
          "name": "_to",
          "type": "address"
        },
        {
          "name": "_amount",
          "type": "uint256"
        }
      ],
      "name": "onTransfer",
      "outputs": [
        {
          "name": "",
          "type": "bool"
        }
      ],
      "payable": false,
      "stateMutability": "nonpayable",
      "type": "function"
    },
    {
      "constant": false,
      "inputs": [],
      "name": "refund",
      "outputs": [],
      "payable": false,
      "stateMutability": "nonpayable",
      "type": "function"
    },
    {
      "constant": true,
      "inputs": [],
      "name": "paused",
      "outputs": [
        {
          "name": "",
          "type": "bool"
        }
      ],
      "payable": false,
      "stateMutability": "view",
      "type": "function"
    },
    {
      "constant": true,
      "inputs": [],
      "name": "discountSaleEnd",
      "outputs": [
        {
          "name": "",
          "type": "uint256"
        }
      ],
      "payable": false,
      "stateMutability": "view",
      "type": "function"
    },
    {
      "constant": false,
      "inputs": [
        {
          "name": "_spender",
          "type": "address"
        },
        {
          "name": "_subtractedValue",
          "type": "uint256"
        }
      ],
      "name": "decreaseApproval",
      "outputs": [
        {
          "name": "success",
          "type": "bool"
        }
      ],
      "payable": false,
      "stateMutability": "nonpayable",
      "type": "function"
    },
    {
      "constant": true,
      "inputs": [],
      "name": "specUWallet",
      "outputs": [
        {
          "name": "",
          "type": "address"
        }
      ],
      "payable": false,
      "stateMutability": "view",
      "type": "function"
    },
    {
      "constant": true,
      "inputs": [
        {
          "name": "_owner",
          "type": "address"
        }
      ],
      "name": "balanceOf",
      "outputs": [
        {
          "name": "balance",
          "type": "uint256"
        }
      ],
      "payable": false,
      "stateMutability": "view",
      "type": "function"
    },
    {
      "constant": false,
      "inputs": [
        {
          "name": "_presaleStart",
          "type": "uint256"
        },
        {
          "name": "_presaleEnd",
          "type": "uint256"
        },
        {
          "name": "_saleStart",
          "type": "uint256"
        },
        {
          "name": "_saleEnd",
          "type": "uint256"
        },
        {
          "name": "_discountSaleEnd",
          "type": "uint256"
        }
      ],
      "name": "configure",
      "outputs": [],
      "payable": false,
      "stateMutability": "nonpayable",
      "type": "function"
    },
    {
      "constant": false,
      "inputs": [],
      "name": "withdrawEther",
      "outputs": [],
      "payable": false,
      "stateMutability": "nonpayable",
      "type": "function"
    },
    {
      "constant": false,
      "inputs": [],
      "name": "setRefundable",
      "outputs": [],
      "payable": false,
      "stateMutability": "nonpayable",
      "type": "function"
    },
    {
      "constant": true,
      "inputs": [],
      "name": "MIN_CAP",
      "outputs": [
        {
          "name": "",
          "type": "uint256"
        }
      ],
      "payable": false,
      "stateMutability": "view",
      "type": "function"
    },
    {
      "constant": true,
      "inputs": [],
      "name": "tokenAddressesSet",
      "outputs": [
        {
          "name": "",
          "type": "bool"
        }
      ],
      "payable": false,
      "stateMutability": "view",
      "type": "function"
    },
    {
      "constant": false,
      "inputs": [],
      "name": "pause",
      "outputs": [],
      "payable": false,
      "stateMutability": "nonpayable",
      "type": "function"
    },
    {
      "constant": true,
      "inputs": [],
      "name": "configured",
      "outputs": [
        {
          "name": "",
          "type": "bool"
        }
      ],
      "payable": false,
      "stateMutability": "view",
      "type": "function"
    },
    {
      "constant": true,
      "inputs": [],
      "name": "owner",
      "outputs": [
        {
          "name": "",
          "type": "address"
        }
      ],
      "payable": false,
      "stateMutability": "view",
      "type": "function"
    },
    {
      "constant": true,
      "inputs": [],
      "name": "symbol",
      "outputs": [
        {
          "name": "",
          "type": "string"
        }
      ],
      "payable": false,
      "stateMutability": "view",
      "type": "function"
    },
    {
      "constant": true,
      "inputs": [
        {
          "name": "",
          "type": "address"
        }
      ],
      "name": "whitelist",
      "outputs": [
        {
          "name": "",
          "type": "uint256"
        }
      ],
      "payable": false,
      "stateMutability": "view",
      "type": "function"
    },
    {
      "constant": true,
      "inputs": [],
      "name": "MIN_FUND_AMOUNT",
      "outputs": [
        {
          "name": "",
          "type": "uint256"
        }
      ],
      "payable": false,
      "stateMutability": "view",
      "type": "function"
    },
    {
      "constant": false,
      "inputs": [
        {
          "name": "_specUWallet",
          "type": "address"
        },
        {
          "name": "_specDWallet",
          "type": "address"
        }
      ],
      "name": "setTokenAddresses",
      "outputs": [],
      "payable": false,
      "stateMutability": "nonpayable",
      "type": "function"
    },
    {
      "constant": false,
      "inputs": [
        {
          "name": "_to",
          "type": "address"
        },
        {
          "name": "_value",
          "type": "uint256"
        }
      ],
      "name": "transfer",
      "outputs": [
        {
          "name": "success",
          "type": "bool"
        }
      ],
      "payable": false,
      "stateMutability": "nonpayable",
      "type": "function"
    },
    {
      "constant": true,
      "inputs": [],
      "name": "saleStart",
      "outputs": [
        {
          "name": "",
          "type": "uint256"
        }
      ],
      "payable": false,
      "stateMutability": "view",
      "type": "function"
    },
    {
      "constant": false,
      "inputs": [],
      "name": "fundContract",
      "outputs": [],
      "payable": true,
      "stateMutability": "payable",
      "type": "function"
    },
    {
      "constant": true,
      "inputs": [],
      "name": "refundable",
      "outputs": [
        {
          "name": "",
          "type": "bool"
        }
      ],
      "payable": false,
      "stateMutability": "view",
      "type": "function"
    },
    {
      "constant": true,
      "inputs": [],
      "name": "specWallet",
      "outputs": [
        {
          "name": "",
          "type": "address"
        }
      ],
      "payable": false,
      "stateMutability": "view",
      "type": "function"
    },
    {
      "constant": true,
      "inputs": [],
      "name": "saleEnd",
      "outputs": [
        {
          "name": "",
          "type": "uint256"
        }
      ],
      "payable": false,
      "stateMutability": "view",
      "type": "function"
    },
    {
      "constant": false,
      "inputs": [
        {
          "name": "_subscriber",
          "type": "address"
        },
        {
          "name": "_amount",
          "type": "uint256"
        }
      ],
      "name": "setWhiteList",
      "outputs": [],
      "payable": false,
      "stateMutability": "nonpayable",
      "type": "function"
    },
    {
      "constant": true,
      "inputs": [],
      "name": "TOKEN_PRICE",
      "outputs": [
        {
          "name": "",
          "type": "uint256"
        }
      ],
      "payable": false,
      "stateMutability": "view",
      "type": "function"
    },
    {
      "constant": false,
      "inputs": [
        {
          "name": "_spender",
          "type": "address"
        },
        {
          "name": "_addedValue",
          "type": "uint256"
        }
      ],
      "name": "increaseApproval",
      "outputs": [
        {
          "name": "success",
          "type": "bool"
        }
      ],
      "payable": false,
      "stateMutability": "nonpayable",
      "type": "function"
    },
    {
      "constant": true,
      "inputs": [
        {
          "name": "",
          "type": "address"
        }
      ],
      "name": "bonus",
      "outputs": [
        {
          "name": "",
          "type": "uint256"
        }
      ],
      "payable": false,
      "stateMutability": "view",
      "type": "function"
    },
    {
      "constant": false,
      "inputs": [
        {
          "name": "_owner",
          "type": "address"
        },
        {
          "name": "_spender",
          "type": "address"
        },
        {
          "name": "_amount",
          "type": "uint256"
        }
      ],
      "name": "onApprove",
      "outputs": [
        {
          "name": "",
          "type": "bool"
        }
      ],
      "payable": false,
      "stateMutability": "nonpayable",
      "type": "function"
    },
    {
      "constant": true,
      "inputs": [
        {
          "name": "_owner",
          "type": "address"
        },
        {
          "name": "_spender",
          "type": "address"
        }
      ],
      "name": "allowance",
      "outputs": [
        {
          "name": "remaining",
          "type": "uint256"
        }
      ],
      "payable": false,
      "stateMutability": "view",
      "type": "function"
    },
    {
      "constant": true,
      "inputs": [],
      "name": "presaleStart",
      "outputs": [
        {
          "name": "",
          "type": "uint256"
        }
      ],
      "payable": false,
      "stateMutability": "view",
      "type": "function"
    },
    {
      "constant": true,
      "inputs": [],
      "name": "specDWallet",
      "outputs": [
        {
          "name": "",
          "type": "address"
        }
      ],
      "payable": false,
      "stateMutability": "view",
      "type": "function"
    },
    {
      "constant": false,
      "inputs": [
        {
          "name": "newOwner",
          "type": "address"
        }
      ],
      "name": "transferOwnership",
      "outputs": [],
      "payable": false,
      "stateMutability": "nonpayable",
      "type": "function"
    },
    {
      "constant": false,
      "inputs": [
        {
          "name": "_owner",
          "type": "address"
        }
      ],
      "name": "proxyPayment",
      "outputs": [
        {
          "name": "",
          "type": "bool"
        }
      ],
      "payable": true,
      "stateMutability": "payable",
      "type": "function"
    },
    {
      "inputs": [
        {
          "name": "_specWallet",
          "type": "address"
        }
      ],
      "payable": false,
      "stateMutability": "nonpayable",
      "type": "constructor"
    },
    {
      "payable": true,
      "stateMutability": "payable",
      "type": "fallback"
    },
    {
      "anonymous": false,
      "inputs": [
        {
          "indexed": true,
          "name": "_to",
          "type": "address"
        },
        {
          "indexed": false,
          "name": "_value",
          "type": "uint256"
        }
      ],
      "name": "Refund",
      "type": "event"
    },
    {
      "anonymous": false,
      "inputs": [
        {
          "indexed": true,
          "name": "_from",
          "type": "address"
        },
        {
          "indexed": false,
          "name": "_value",
          "type": "uint256"
        },
        {
          "indexed": false,
          "name": "_total",
          "type": "uint256"
        }
      ],
      "name": "ContractFunded",
      "type": "event"
    },
    {
      "anonymous": false,
      "inputs": [],
      "name": "Refundable",
      "type": "event"
    },
    {
      "anonymous": false,
      "inputs": [
        {
          "indexed": true,
          "name": "_subscriber",
          "type": "address"
        },
        {
          "indexed": false,
          "name": "_value",
          "type": "uint256"
        }
      ],
      "name": "WhiteListSet",
      "type": "event"
    },
    {
      "anonymous": false,
      "inputs": [
        {
          "indexed": true,
          "name": "_from",
          "type": "address"
        },
        {
          "indexed": true,
          "name": "_to",
          "type": "address"
        },
        {
          "indexed": false,
          "name": "_value",
          "type": "uint256"
        }
      ],
      "name": "OwnerTransfer",
      "type": "event"
    },
    {
      "anonymous": false,
      "inputs": [],
      "name": "Pause",
      "type": "event"
    },
    {
      "anonymous": false,
      "inputs": [],
      "name": "Unpause",
      "type": "event"
    },
    {
      "anonymous": false,
      "inputs": [
        {
          "indexed": true,
          "name": "previousOwner",
          "type": "address"
        },
        {
          "indexed": true,
          "name": "newOwner",
          "type": "address"
        }
      ],
      "name": "OwnershipTransferred",
      "type": "event"
    },
    {
      "anonymous": false,
      "inputs": [
        {
          "indexed": true,
          "name": "owner",
          "type": "address"
        },
        {
          "indexed": true,
          "name": "spender",
          "type": "address"
        },
        {
          "indexed": false,
          "name": "value",
          "type": "uint256"
        }
      ],
      "name": "Approval",
      "type": "event"
    },
    {
      "anonymous": false,
      "inputs": [
        {
          "indexed": true,
          "name": "from",
          "type": "address"
        },
        {
          "indexed": true,
          "name": "to",
          "type": "address"
        },
        {
          "indexed": false,
          "name": "value",
          "type": "uint256"
        }
      ],
      "name": "Transfer",
      "type": "event"
    }
  ],
  "bytecode": "0x60606040526003805460a060020a60ff02191690556006805460a060020a62ffffff021916905534156200003257600080fd5b60405160208062001e2c8339810160405280805160038054600160a060020a03191633600160a060020a03908116919091179091559092508216151590506200007a57600080fd5b60048054600160a060020a031916600160a060020a038316179055620000ad640100000000620000b48102620014c11704565b506200014e565b60035433600160a060020a03908116911614620000d057600080fd5b60035474010000000000000000000000000000000000000000900460ff1615620000f957600080fd5b6003805460a060020a60ff021916740100000000000000000000000000000000000000001790557f6985a02210a168e66602d3235cb6db0e70f92b3ba4d376a33c0f3d9434bff62560405160405180910390a1565b611cce806200015e6000396000f30060606040526004361061023a5763ffffffff7c0100000000000000000000000000000000000000000000000000000000600035041663062fe08e81146102d057806306fdde03146102f5578063095ea7b31461037f5780630ec4fb0a146103b557806318160ddd146103c8578063229f3e29146103db57806323b872dd146103ee57806327ea06b814610416578063313ce567146104295780633c5972ff1461043c5780633f4ba83a1461048b5780634051ed261461049e5780634a393149146104b1578063590e1ae3146104d95780635c975abb146104ec57806361a65e2a146104ff57806366188463146105125780636a7254a31461053457806370a08231146105635780637126a855146105825780637362377b146105a45780637ba7dcea146105b7578063801db9cc146105ca578063808a69e2146105dd5780638456cb59146105f05780638772a23a146106035780638da5cb5b1461061657806395d89b41146106295780639b19251a1461063c578063a5e558a31461065b578063a89c8c5e1461066e578063a9059cbb14610693578063ab0bcc41146106b5578063bd097e21146106c8578063bf89662d146106d0578063bfd0a553146106e3578063c10b9358146106f6578063c156776a14610709578063d2d8cb671461072b578063d73dd6231461073e578063d8cb4aa314610760578063da682aeb146104b1578063dd62ed3e1461077f578063de8801e5146107a4578063e3e5439c146107b7578063f2fde38b146107ca578063f48c3054146107e9575b60035460a060020a900460ff161561025157600080fd5b670de0b6b3a764000034101561026657600080fd5b6007546102716107fd565b1015801561028857506008546102856107fd565b11155b1561029a57610295610801565b6102ce565b6009546102a56107fd565b101580156102bc5750600a546102b96107fd565b11155b156102c957610295610af7565b600080fd5b005b34156102db57600080fd5b6102e3610c81565b60405190815260200160405180910390f35b341561030057600080fd5b610308610c90565b60405160208082528190810183818151815260200191508051906020019080838360005b8381101561034457808201518382015260200161032c565b50505050905090810190601f1680156103715780820380516001836020036101000a031916815260200191505b509250505060405180910390f35b341561038a57600080fd5b6103a1600160a060020a0360043516602435610cc7565b604051901515815260200160405180910390f35b34156103c057600080fd5b6102e3610d33565b34156103d357600080fd5b6102e3610d3a565b34156103e657600080fd5b6102e3610d40565b34156103f957600080fd5b6103a1600160a060020a0360043581169060243516604435610d46565b341561042157600080fd5b6102e3610ed4565b341561043457600080fd5b6102e3610ef9565b341561044757600080fd5b6102ce6004602481358181019083013580602081810201604051908101604052809392919081815260200183836020028082843750949650610efe95505050505050565b341561049657600080fd5b6102ce610f91565b34156104a957600080fd5b6102e3611028565b34156104bc57600080fd5b6103a1600160a060020a0360043581169060243516604435611037565b34156104e457600080fd5b6102ce611040565b34156104f757600080fd5b6103a1611163565b341561050a57600080fd5b6102e3611173565b341561051d57600080fd5b6103a1600160a060020a0360043516602435611179565b341561053f57600080fd5b610547611273565b604051600160a060020a03909116815260200160405180910390f35b341561056e57600080fd5b6102e3600160a060020a0360043516611282565b341561058d57600080fd5b6102ce60043560243560443560643560843561129d565b34156105af57600080fd5b6102ce61137e565b34156105c257600080fd5b6102ce6113ef565b34156105d557600080fd5b6102e36114a2565b34156105e857600080fd5b6103a16114b1565b34156105fb57600080fd5b6102ce6114c1565b341561060e57600080fd5b6103a1611545565b341561062157600080fd5b610547611555565b341561063457600080fd5b610308611564565b341561064757600080fd5b6102e3600160a060020a036004351661159b565b341561066657600080fd5b6102e36115ad565b341561067957600080fd5b6102ce600160a060020a03600435811690602435166115b9565b341561069e57600080fd5b6103a1600160a060020a03600435166024356116b5565b34156106c057600080fd5b6102e3611763565b6102ce611769565b34156106db57600080fd5b6103a16117ef565b34156106ee57600080fd5b6105476117ff565b341561070157600080fd5b6102e361180e565b341561071457600080fd5b6102ce600160a060020a0360043516602435611814565b341561073657600080fd5b6102e36118a4565b341561074957600080fd5b6103a1600160a060020a03600435166024356118af565b341561076b57600080fd5b6102e3600160a060020a0360043516611953565b341561078a57600080fd5b6102e3600160a060020a0360043581169060243516611965565b34156107af57600080fd5b6102e3611990565b34156107c257600080fd5b610547611996565b34156107d557600080fd5b6102ce600160a060020a03600435166119a5565b6103a1600160a060020a0360043516611a40565b4290565b60008060008060008060006203f4806007540161081c6107fd565b10156108ed57600160a060020a0333166000908152600c60205260408120541161084557600080fd5b600160a060020a0333166000908152600c60205260409020546108829060649061087690605f63ffffffff611a4616565b9063ffffffff611a7116565b600160a060020a0333166000908152600c60205260409020549097506108b69060649061087690607863ffffffff611a4616565b95508634101580156108c85750853411155b15156108d357600080fd5b600160a060020a0333166000908152600c60205260408120555b6109106601c6bf5263400061087634670de0b6b3a764000063ffffffff611a4616565b6000805491965094506a52b7d2dcc80cd2e40000009010156109a457600054610945906a52b7d2dcc80cd2e400000090611a88565b92506109518386611a9a565b915061095d8583611a88565b9050610975606461087684602163ffffffff611a4616565b935061099d610990606461087684601663ffffffff611a4616565b859063ffffffff611ab016565b93506109bd565b6109ba606461087687601663ffffffff611a4616565b93505b6109cd858563ffffffff611ab016565b600160a060020a0333166000908152600d60205260409020549095506109f9908563ffffffff611ab016565b600160a060020a033381166000908152600d6020526040908190209290925560045416903480156108fc029151600060405180830381858888f193505050501515610a4357600080fd5b600054610a56908663ffffffff611ab016565b60008190556ac685fa11e01ec6f0000000901115610a7357600080fd5b600160a060020a033316600090815260016020526040902054610a9c908663ffffffff611ab016565b600160a060020a0333166000818152600160205260408082209390935590917fddf252ad1be2c89b69c2b068fc378daa952ba7f163c4a11628f55a4df523b3ef9088905190815260200160405180910390a350505050505050565b600080610b1d6601c6bf5263400061087634670de0b6b3a764000063ffffffff611a4616565b915060009050600b54610b2e6107fd565b11610b4c57610b49606461087684600b63ffffffff611a4616565b90505b610b5c828263ffffffff611ab016565b600160a060020a0333166000908152600d6020526040902054909250610b88908263ffffffff611ab016565b600160a060020a033381166000908152600d6020526040908190209290925560045416903480156108fc029151600060405180830381858888f193505050501515610bd257600080fd5b600054610be5908363ffffffff611ab016565b60008190556ac685fa11e01ec6f0000000901115610c0257600080fd5b600160a060020a033316600090815260016020526040902054610c2b908363ffffffff611ab016565b600160a060020a0333166000818152600160205260408082209390935590917fddf252ad1be2c89b69c2b068fc378daa952ba7f163c4a11628f55a4df523b3ef9085905190815260200160405180910390a35050565b6ac685fa11e01ec6f000000081565b60408051908101604052601881527f53504543545245205355425343524942455220544f4b454e0000000000000000602082015281565b600160a060020a03338116600081815260026020908152604080832094871680845294909152808220859055909291907f8c5be1e5ebec7d5bd14f71427d1e84f3dd0314c0f7b2291e5b200ac8c7c3b9259085905190815260200160405180910390a350600192915050565b6203f48081565b60005481565b60085481565b600080610d51611c90565b60065460b060020a900460ff161515610d6957600080fd5b600a54610d746107fd565b11610d7e57600080fd5b6000546a0422ca8b0a00a425000000901015610d9957600080fd5b600554600160a060020a0386811691161480610dc25750600654600160a060020a038681169116145b1515610dcd57600080fd5b610dd685611abf565b1515610de157600080fd5b60035433600160a060020a039081169116148015610e0c5750600a546224ea0001610e0a6107fd565b115b15610e5d5784600160a060020a031686600160a060020a03167fd30796a26ac49ebbc2092097f71aea64b94ffc866a5909a76002686237beff608660405190815260200160405180910390a3610ebe565b600160a060020a03808716600090815260026020908152604080832033909416835292905220549150610e96828563ffffffff611a8816565b600160a060020a03808816600090815260026020908152604080832033909416835292905220555b610eca86868684611ac7565b9695505050505050565b60008054610ef4906ac685fa11e01ec6f00000009063ffffffff611a8816565b905090565b601281565b6003546000908190819033600160a060020a03908116911614610f2057600080fd5b600092505b8351831015610f8b57600160a060020a03848481518110610f4257fe5b9060200190602002015116915060a060020a848481518110610f6057fe5b90602001906020020151811515610f7357fe5b049050610f808282611814565b600190920191610f25565b50505050565b60035433600160a060020a03908116911614610fac57600080fd5b60035460a060020a900460ff161515610fc457600080fd5b60065460a860020a900460ff161515610fdc57600080fd5b6003805474ff0000000000000000000000000000000000000000191690557f7805862f689e2f13df9f062ff482ad3ad112aca9e0847911ed832e158c525b3360405160405180910390a1565b6a52b7d2dcc80cd2e400000081565b60019392505050565b60065460009060a060020a900460ff16151561105b57600080fd5b600160a060020a0333166000908152600160205260408120541161107e57600080fd5b600160a060020a0333166000908152600d60209081526040808320546001909252909120546110b29163ffffffff611a8816565b600160a060020a03331660009081526001602052604081205590506110f0670de0b6b3a7640000610876836601c6bf5263400063ffffffff611a4616565b9050600160a060020a03331681156108fc0282604051600060405180830381858888f19350505050151561112357600080fd5b33600160a060020a03167fbb28353e4598c3b9199101a66e0989549b659a59a54d2c27fbb183f1932c8e6d8260405190815260200160405180910390a250565b60035460a060020a900460ff1681565b600b5481565b600160a060020a033381166000908152600260209081526040808320938616835292905290812054808311156111d657600160a060020a03338116600090815260026020908152604080832093881683529290529081205561120d565b6111e6818463ffffffff611a8816565b600160a060020a033381166000908152600260209081526040808320938916835292905220555b600160a060020a0333811660008181526002602090815260408083209489168084529490915290819020547f8c5be1e5ebec7d5bd14f71427d1e84f3dd0314c0f7b2291e5b200ac8c7c3b925915190815260200160405180910390a35060019392505050565b600654600160a060020a031681565b600160a060020a031660009081526001602052604090205490565b60035433600160a060020a039081169116146112b857600080fd5b60065460a860020a900460ff16156112cf57600080fd5b6112d76107fd565b85116112e257600080fd5b8484116112ee57600080fd5b8383116112fa57600080fd5b82821161130657600080fd5b82811180156113155750818111155b151561132057600080fd5b600785905560088490556009839055600a829055600b8190556006805475ff000000000000000000000000000000000000000000191660a860020a179081905560b060020a900460ff161561137757611377610f91565b5050505050565b60065460a060020a900460ff161561139557600080fd5b60035433600160a060020a039081169116146113b057600080fd5b33600160a060020a03166108fc30600160a060020a0316319081150290604051600060405180830381858888f1935050505015156113ed57600080fd5b565b60035433600160a060020a0390811691161461140a57600080fd5b6000600160a060020a033016311161142157600080fd5b600a5461142c6107fd565b1161143657600080fd5b6000546a0422ca8b0a00a425000000901061145057600080fd5b7f22f77d2a7e7c2b34047279a1227fbf143e6ebe8ad0afde75d6814b481e2016bf60405160405180910390a16006805474ff0000000000000000000000000000000000000000191660a060020a179055565b6a0422ca8b0a00a42500000081565b60065460b060020a900460ff1681565b60035433600160a060020a039081169116146114dc57600080fd5b60035460a060020a900460ff16156114f357600080fd5b6003805474ff0000000000000000000000000000000000000000191660a060020a1790557f6985a02210a168e66602d3235cb6db0e70f92b3ba4d376a33c0f3d9434bff62560405160405180910390a1565b60065460a860020a900460ff1681565b600354600160a060020a031681565b60408051908101604052600381527f5358530000000000000000000000000000000000000000000000000000000000602082015281565b600c6020526000908152604090205481565b670de0b6b3a764000081565b60035433600160a060020a039081169116146115d457600080fd5b60065460b060020a900460ff16156115eb57600080fd5b600160a060020a038116151561160057600080fd5b600160a060020a038216151561161557600080fd5b61161e81611abf565b151561162957600080fd5b61163282611abf565b151561163d57600080fd5b6006805460058054600160a060020a0385811673ffffffffffffffffffffffffffffffffffffffff199283161790925576ff00000000000000000000000000000000000000000000199186169216919091171660b060020a179081905560a860020a900460ff16156116b1576116b1610f91565b5050565b60006116bf611c90565b60065460b060020a900460ff1615156116d757600080fd5b600a546116e26107fd565b116116ec57600080fd5b6000546a0422ca8b0a00a42500000090101561170757600080fd5b600554600160a060020a03858116911614806117305750600654600160a060020a038581169116145b151561173b57600080fd5b61174484611abf565b151561174f57600080fd5b61175b33858584611ac7565b949350505050565b60095481565b60035433600160a060020a0390811691161480611794575060045433600160a060020a039081169116145b151561179f57600080fd5b33600160a060020a03167f3b31cbadfd3fd939750f09d3bdbd6c0531dde23f05d55dcc202798f39d0908953430600160a060020a03163160405191825260208201526040908101905180910390a2565b60065460a060020a900460ff1681565b600454600160a060020a031681565b600a5481565b60035433600160a060020a0390811691161461182f57600080fd5b600160a060020a038216151561184457600080fd5b80151561185057600080fd5b600160a060020a0382166000818152600c6020526040908190208390557f4251447a1c2fc6305b03db2d0e7dde804e542b8d978296f7d487ace195839ae89083905190815260200160405180910390a25050565b6601c6bf5263400081565b600160a060020a0333811660009081526002602090815260408083209386168352929052908120546118e7908363ffffffff611ab016565b600160a060020a0333811660008181526002602090815260408083209489168084529490915290819020849055919290917f8c5be1e5ebec7d5bd14f71427d1e84f3dd0314c0f7b2291e5b200ac8c7c3b92591905190815260200160405180910390a350600192915050565b600d6020526000908152604090205481565b600160a060020a03918216600090815260026020908152604080832093909416825291909152205490565b60075481565b600554600160a060020a031681565b60035433600160a060020a039081169116146119c057600080fd5b600160a060020a03811615156119d557600080fd5b600354600160a060020a0380831691167f8be0079c531659141344cd1fd0a4f28419497f9722a3daafe3b4186f6b6457e060405160405180910390a36003805473ffffffffffffffffffffffffffffffffffffffff1916600160a060020a0392909216919091179055565b50600090565b6000828202831580611a625750828482811515611a5f57fe5b04145b1515611a6a57fe5b9392505050565b6000808284811515611a7f57fe5b04949350505050565b600082821115611a9457fe5b50900390565b6000818310611aa95781611a6a565b5090919050565b600082820183811015611a6a57fe5b6000903b1190565b60008083611ad487611282565b1015611adf57600080fd5b611af884611aec88611282565b9063ffffffff611a8816565b600160a060020a038716600090815260016020526040902055611b2a84611b1e87611282565b9063ffffffff611ab016565b600160a060020a03861660008181526001602052604090819020929092558692509063c0ee0b8a90889087908790518463ffffffff167c01000000000000000000000000000000000000000000000000000000000281526004018084600160a060020a0316600160a060020a0316815260200183815260200180602001828103825283818151815260200191508051906020019080838360005b83811015611bdc578082015183820152602001611bc4565b50505050905090810190601f168015611c095780820380516001836020036101000a031916815260200191505b50945050505050600060405180830381600087803b1515611c2957600080fd5b6102c65a03f11515611c3a57600080fd5b50505084600160a060020a031686600160a060020a03167fddf252ad1be2c89b69c2b068fc378daa952ba7f163c4a11628f55a4df523b3ef8660405190815260200160405180910390a350600195945050505050565b602060405190810160405260008152905600a165627a7a723058207a2c67bdab5a20d7418b5ae31de7ea49cfd2a6e82e1373943268ef466fbe81c90029",
  "source": "pragma solidity ^0.4.15;\n\nimport 'zeppelin-solidity/contracts/lifecycle/Pausable.sol';\nimport 'zeppelin-solidity/contracts/token/StandardToken.sol';\nimport \"zeppelin-solidity/contracts/ownership/Ownable.sol\";\nimport \"zeppelin-solidity/contracts/math/Math.sol\";\n\nimport './ContractReceiver.sol';\nimport './MiniMeToken.sol';\n\n/// @title SpecToken - Crowdfunding code for the Spectre.ai Token Sale\n/// @author Parthasarathy Ramanujam\ncontract SpectreSubscriberToken is StandardToken, Pausable, TokenController {\n  using SafeMath for uint;\n\n  string public constant name = \"SPECTRE SUBSCRIBER TOKEN\";\n  string public constant symbol = \"SXS\";\n  uint256 public constant decimals = 18;\n\n  uint256 constant public TOKENS_AVAILABLE             = 240000000 * 10**decimals;\n  uint256 constant public BONUS_SLAB                   = 100000000 * 10**decimals;\n  uint256 constant public MIN_CAP                      = 5000000 * 10**decimals;\n  uint256 constant public MIN_FUND_AMOUNT              = 1 ether;\n  uint256 constant public TOKEN_PRICE                  = 0.0005 ether;\n  uint256 constant public WHITELIST_PERIOD             = 3 days;\n\n  address public specWallet;\n  address public specDWallet;\n  address public specUWallet;\n\n  bool public refundable = false;\n  bool public configured = false;\n  bool public tokenAddressesSet = false;\n  //presale start and end blocks\n  uint256 public presaleStart;\n  uint256 public presaleEnd;\n  //main sale start and end blocks\n  uint256 public saleStart;\n  uint256 public saleEnd;\n  //discount end block for main sale\n  uint256 public discountSaleEnd;\n\n  //whitelisting\n  mapping(address => uint256) public whitelist;\n  uint256 constant D160 = 0x0010000000000000000000000000000000000000000;\n\n  //bonus earned\n  mapping(address => uint256) public bonus;\n\n  event Refund(address indexed _to, uint256 _value);\n  event ContractFunded(address indexed _from, uint256 _value, uint256 _total);\n  event Refundable();\n  event WhiteListSet(address indexed _subscriber, uint256 _value);\n  event OwnerTransfer(address indexed _from, address indexed _to, uint256 _value);\n\n  modifier isRefundable() {\n    require(refundable);\n    _;\n  }\n\n  modifier isNotRefundable() {\n    require(!refundable);\n    _;\n  }\n\n  modifier isTransferable() {\n    require(tokenAddressesSet);\n    require(getNow() > saleEnd);\n    require(totalSupply >= MIN_CAP);\n    _;\n  }\n\n  modifier onlyWalletOrOwner() {\n    require(msg.sender == owner || msg.sender == specWallet);\n    _;\n  }\n\n  //@notice function to initilaize the token contract\n  //@notice _specWallet - The wallet that receives the proceeds from the token sale\n  //@notice _specDWallet - Wallet that would receive tokens chosen for dividend\n  //@notice _specUWallet - Wallet that would receive tokens chosen for utility\n  function SpectreSubscriberToken(address _specWallet) {\n    require(_specWallet != address(0));\n    specWallet = _specWallet;\n    pause();\n  }\n\n  //@notice Fallback function that accepts the ether and allocates tokens to\n  //the msg.sender corresponding to msg.value\n  function() payable whenNotPaused public {\n    require(msg.value >= MIN_FUND_AMOUNT);\n    if(getNow() >= presaleStart && getNow() <= presaleEnd) {\n      purchasePresale();\n    } else if (getNow() >= saleStart && getNow() <= saleEnd) {\n      purchase();\n    } else {\n      revert();\n    }\n  }\n\n  //@notice function to be used for presale purchase\n  function purchasePresale() internal {\n    //Only check whitelist for the first 3 days of presale\n    if (getNow() < (presaleStart + WHITELIST_PERIOD)) {\n      require(whitelist[msg.sender] > 0);\n      //Accept if the subsciber 95% to 120% of whitelisted amount\n      uint256 minAllowed = whitelist[msg.sender].mul(95).div(100);\n      uint256 maxAllowed = whitelist[msg.sender].mul(120).div(100);\n      require(msg.value >= minAllowed && msg.value <= maxAllowed);\n      //remove the address from whitelist\n      whitelist[msg.sender] = 0;\n    }\n\n    uint256 numTokens = msg.value.mul(10**decimals).div(TOKEN_PRICE);\n    uint256 bonusTokens = 0;\n\n    if(totalSupply < BONUS_SLAB) {\n      //Any portion of tokens less than BONUS_SLAB are eligable for 33% bonus, otherwise 22% bonus\n      uint256 remainingBonusSlabTokens = SafeMath.sub(BONUS_SLAB, totalSupply);\n      uint256 bonusSlabTokens = Math.min256(remainingBonusSlabTokens, numTokens);\n      uint256 nonBonusSlabTokens = SafeMath.sub(numTokens, bonusSlabTokens);\n      bonusTokens = bonusSlabTokens.mul(33).div(100);\n      bonusTokens = bonusTokens.add(nonBonusSlabTokens.mul(22).div(100));\n    } else {\n      //calculate 22% bonus for tokens purchased on presale\n      bonusTokens = numTokens.mul(22).div(100);\n    }\n    //\n    numTokens = numTokens.add(bonusTokens);\n    bonus[msg.sender] = bonus[msg.sender].add(bonusTokens);\n\n    //transfer money to Spectre MultisigWallet (could be msg.value)\n    specWallet.transfer(msg.value);\n\n    totalSupply = totalSupply.add(numTokens);\n    require(totalSupply <= TOKENS_AVAILABLE);\n\n    balances[msg.sender] = balances[msg.sender].add(numTokens);\n    //fire the event notifying the transfer of tokens\n    Transfer(0, msg.sender, numTokens);\n\n  }\n\n  //@notice function to be used for mainsale purchase\n  function purchase() internal {\n\n    uint256 numTokens = msg.value.mul(10**decimals).div(TOKEN_PRICE);\n    uint256 bonusTokens = 0;\n\n    if(getNow() <= discountSaleEnd) {\n      //calculate 11% bonus for tokens purchased on discount period\n      bonusTokens = numTokens.mul(11).div(100);\n    }\n\n    numTokens = numTokens.add(bonusTokens);\n    bonus[msg.sender] = bonus[msg.sender].add(bonusTokens);\n\n    //transfer money to Spectre MultisigWallet\n    specWallet.transfer(msg.value);\n\n    totalSupply = totalSupply.add(numTokens);\n\n    require(totalSupply <= TOKENS_AVAILABLE);\n    balances[msg.sender] = balances[msg.sender].add(numTokens);\n    //fire the event notifying the transfer of tokens\n    Transfer(0, msg.sender, numTokens);\n  }\n\n  //@notice Function reports the number of tokens available for sale\n  function numberOfTokensLeft() constant returns (uint256) {\n    return TOKENS_AVAILABLE.sub(totalSupply);\n  }\n\n  //Override unpause function to only allow once configured\n  function unpause() onlyOwner whenPaused public {\n    require(configured);\n    paused = false;\n    Unpause();\n  }\n\n  //@notice Function to configure contract addresses\n  //@param `_specUWallet` - address of Utility contract\n  //@param `_specDWallet` - address of Dividend contract\n  function setTokenAddresses(address _specUWallet, address _specDWallet) onlyOwner public {\n    require(!tokenAddressesSet);\n    require(_specDWallet != address(0));\n    require(_specUWallet != address(0));\n    require(isContract(_specDWallet));\n    require(isContract(_specUWallet));\n    specUWallet = _specUWallet;\n    specDWallet = _specDWallet;\n    tokenAddressesSet = true;\n    if (configured) {\n      unpause();\n    }\n  }\n\n  //@notice Function to configure contract parameters\n  //@param `_startPresaleBlock` - block from when presale begins.\n  //@param `_endPresaleBlock` - block from when presale ends.\n  //@param `_saleStart` - block from when main sale begins.\n  //@param `_saleEnd` - block from when main sale ends.\n  //@param `_discountEnd` - block from when the discounts would end.\n  //@notice Can be called only when funding is not active and only by the owner\n  function configure(uint256 _presaleStart, uint256 _presaleEnd, uint256 _saleStart, uint256 _saleEnd, uint256 _discountSaleEnd) onlyOwner public {\n    require(!configured);\n    require(_presaleStart > getNow());\n    require(_presaleEnd > _presaleStart);\n    require(_saleStart > _presaleEnd);\n    require(_saleEnd > _saleStart);\n    require(_discountSaleEnd > _saleStart && _discountSaleEnd <= _saleEnd);\n    presaleStart = _presaleStart;\n    presaleEnd = _presaleEnd;\n    saleStart = _saleStart;\n    saleEnd = _saleEnd;\n    discountSaleEnd = _discountSaleEnd;\n    configured = true;\n    if (tokenAddressesSet) {\n      unpause();\n    }\n  }\n\n  //@notice Function that can be called by purchasers to refund\n  //@notice Used only in case the ICO isn't successful.\n  function refund() isRefundable public {\n    require(balances[msg.sender] > 0);\n\n    uint256 tokenValue = balances[msg.sender].sub(bonus[msg.sender]);\n    balances[msg.sender] = 0;\n    tokenValue = tokenValue.mul(TOKEN_PRICE).div(10**decimals);\n\n    //transfer to the requesters wallet\n    msg.sender.transfer(tokenValue);\n    Refund(msg.sender, tokenValue);\n  }\n\n  function withdrawEther() public isNotRefundable onlyOwner {\n    //In case ether is sent, even though not refundable\n    msg.sender.transfer(this.balance);\n  }\n\n  //@notice Function used for funding in case of refund.\n  //@notice Can be called only by the Owner or Wallet\n  function fundContract() public payable onlyWalletOrOwner {\n    //does nothing just accepts and stores the ether\n    ContractFunded(msg.sender, msg.value, this.balance);\n  }\n\n  function setRefundable() onlyOwner {\n    require(this.balance > 0);\n    require(getNow() > saleEnd);\n    require(totalSupply < MIN_CAP);\n    Refundable();\n    refundable = true;\n  }\n\n  //@notice Standard function transfer similar to ERC20 transfer with no _data .\n  //@notice Added due to backwards compatibility reasons .\n  function transfer(address _to, uint256 _value) isTransferable returns (bool success) {\n    //standard function transfer similar to ERC20 transfer with no _data\n    //added due to backwards compatibility reasons\n    require(_to == specDWallet || _to == specUWallet);\n    require(isContract(_to));\n    bytes memory empty;\n    return transferToContract(msg.sender, _to, _value, empty);\n  }\n\n  //@notice assemble the given address bytecode. If bytecode exists then the _addr is a contract.\n  function isContract(address _addr) private returns (bool is_contract) {\n    uint256 length;\n    assembly {\n      //retrieve the size of the code on target address, this needs assembly\n      length := extcodesize(_addr)\n    }\n    return (length>0);\n  }\n\n  //@notice function that is called when transaction target is a contract\n  function transferToContract(address _from, address _to, uint256 _value, bytes _data) internal returns (bool success) {\n    require(balanceOf(_from) >= _value);\n    balances[_from] = balanceOf(_from).sub(_value);\n    balances[_to] = balanceOf(_to).add(_value);\n    ContractReceiver receiver = ContractReceiver(_to);\n    receiver.tokenFallback(_from, _value, _data);\n    Transfer(_from, _to, _value);\n    return true;\n  }\n\n  /**\n   * @dev Transfer tokens from one address to another - needed for owner transfers\n   * @param _from address The address which you want to send tokens from\n   * @param _to address The address which you want to transfer to\n   * @param _value uint256 the amount of tokens to be transferred\n   */\n  function transferFrom(address _from, address _to, uint256 _value) public isTransferable returns (bool) {\n    require(_to == specDWallet || _to == specUWallet);\n    require(isContract(_to));\n    //owner can transfer tokens on behalf of users after 28 days\n    if (msg.sender == owner && getNow() > saleEnd + 28 days) {\n      OwnerTransfer(_from, _to, _value);\n    } else {\n      uint256 _allowance = allowed[_from][msg.sender];\n      allowed[_from][msg.sender] = _allowance.sub(_value);\n    }\n\n    //Now make the transfer\n    bytes memory empty;\n    return transferToContract(_from, _to, _value, empty);\n\n  }\n\n  //@notice function that is used for whitelisting an address\n  function setWhiteList(address _subscriber, uint256 _amount) public onlyOwner {\n    require(_subscriber != address(0));\n    require(_amount != 0);\n    whitelist[_subscriber] = _amount;\n    WhiteListSet(_subscriber, _amount);\n  }\n\n  // data is an array of uint256s. Each uint256 represents a address and amount.\n  // The 160 LSB is the address that wants to be added\n  // The 96 MSB is the amount of to be set for the whitelist for that address\n  function multiSetWhiteList(uint256[] data) public onlyOwner {\n    for (uint256 i = 0; i < data.length; i++) {\n      address addr = address(data[i] & (D160 - 1));\n      uint256 amount = data[i] / D160;\n      setWhiteList(addr, amount);\n    }\n  }\n\n  /////////////////\n  // TokenController interface\n  /////////////////\n\n  /// @notice `proxyPayment()` returns false, meaning ether is not accepted at\n  ///  the token address, only the address of FiinuCrowdSale\n  /// @param _owner The address that will hold the newly created tokens\n\n  function proxyPayment(address _owner) payable returns(bool) {\n      return false;\n  }\n\n  /// @notice Notifies the controller about a transfer, for this Campaign all\n  ///  transfers are allowed by default and no extra notifications are needed\n  /// @param _from The origin of the transfer\n  /// @param _to The destination of the transfer\n  /// @param _amount The amount of the transfer\n  /// @return False if the controller does not authorize the transfer\n  function onTransfer(address _from, address _to, uint _amount) returns(bool) {\n      return true;\n  }\n\n  /// @notice Notifies the controller about an approval, for this Campaign all\n  ///  approvals are allowed by default and no extra notifications are needed\n  /// @param _owner The address that calls `approve()`\n  /// @param _spender The spender in the `approve()` call\n  /// @param _amount The amount in the `approve()` call\n  /// @return False if the controller does not authorize the approval\n  function onApprove(address _owner, address _spender, uint _amount)\n      returns(bool)\n  {\n      return true;\n  }\n\n  function getNow() constant internal returns (uint256) {\n    return now;\n  }\n\n}\n",
  "sourcePath": "/Users/adamdossa/Development/Ethereum/spectre-tokensale/contracts/SpectreSubscriberToken.sol",
  "compiler": {
    "name": "solc",
    "version": "0.4.18+commit.9cf6e910.Emscripten.clang"
  },
  "schemaVersion": "1.0.1",
  "updatedAt": "2017-12-11T11:23:31.400Z"
}