{
  "contractName": "SpectreSubscriber2Token",
  "abi": [
    {
      "constant": true,
      "inputs": [],
      "name": "TOTAL_CAP",
      "outputs": [
        {
          "name": "",
          "type": "uint256"
        }
      ],
      "payable": false,
      "stateMutability": "view",
      "type": "function"
    },
    {
      "constant": true,
      "inputs": [],
      "name": "name",
      "outputs": [
        {
          "name": "",
          "type": "string"
        }
      ],
      "payable": false,
      "stateMutability": "view",
      "type": "function"
    },
    {
      "constant": false,
      "inputs": [
        {
          "name": "_spender",
          "type": "address"
        },
        {
          "name": "_value",
          "type": "uint256"
        }
      ],
      "name": "approve",
      "outputs": [
        {
          "name": "",
          "type": "bool"
        }
      ],
      "payable": false,
      "stateMutability": "nonpayable",
      "type": "function"
    },
    {
      "constant": true,
      "inputs": [],
      "name": "totalSupply",
      "outputs": [
        {
          "name": "",
          "type": "uint256"
        }
      ],
      "payable": false,
      "stateMutability": "view",
      "type": "function"
    },
    {
      "constant": false,
      "inputs": [
        {
          "name": "_from",
          "type": "address"
        },
        {
          "name": "_to",
          "type": "address"
        },
        {
          "name": "_value",
          "type": "uint256"
        }
      ],
      "name": "transferFrom",
      "outputs": [
        {
          "name": "",
          "type": "bool"
        }
      ],
      "payable": false,
      "stateMutability": "nonpayable",
      "type": "function"
    },
    {
      "constant": true,
      "inputs": [],
      "name": "decimals",
      "outputs": [
        {
          "name": "",
          "type": "uint256"
        }
      ],
      "payable": false,
      "stateMutability": "view",
      "type": "function"
    },
    {
      "constant": false,
      "inputs": [
        {
          "name": "_to",
          "type": "address"
        },
        {
          "name": "_amount",
          "type": "uint256"
        }
      ],
      "name": "mint",
      "outputs": [],
      "payable": false,
      "stateMutability": "nonpayable",
      "type": "function"
    },
    {
      "constant": false,
      "inputs": [
        {
          "name": "_from",
          "type": "address"
        },
        {
          "name": "_to",
          "type": "address"
        },
        {
          "name": "_amount",
          "type": "uint256"
        }
      ],
      "name": "onTransfer",
      "outputs": [
        {
          "name": "",
          "type": "bool"
        }
      ],
      "payable": false,
      "stateMutability": "nonpayable",
      "type": "function"
    },
    {
      "constant": false,
      "inputs": [
        {
          "name": "_spender",
          "type": "address"
        },
        {
          "name": "_subtractedValue",
          "type": "uint256"
        }
      ],
      "name": "decreaseApproval",
      "outputs": [
        {
          "name": "success",
          "type": "bool"
        }
      ],
      "payable": false,
      "stateMutability": "nonpayable",
      "type": "function"
    },
    {
      "constant": true,
      "inputs": [],
      "name": "specUWallet",
      "outputs": [
        {
          "name": "",
          "type": "address"
        }
      ],
      "payable": false,
      "stateMutability": "view",
      "type": "function"
    },
    {
      "constant": true,
      "inputs": [
        {
          "name": "_owner",
          "type": "address"
        }
      ],
      "name": "balanceOf",
      "outputs": [
        {
          "name": "balance",
          "type": "uint256"
        }
      ],
      "payable": false,
      "stateMutability": "view",
      "type": "function"
    },
    {
      "constant": false,
      "inputs": [],
      "name": "withdrawEther",
      "outputs": [],
      "payable": false,
      "stateMutability": "nonpayable",
      "type": "function"
    },
    {
      "constant": true,
      "inputs": [],
      "name": "tokenAddressesSet",
      "outputs": [
        {
          "name": "",
          "type": "bool"
        }
      ],
      "payable": false,
      "stateMutability": "view",
      "type": "function"
    },
    {
      "constant": true,
      "inputs": [],
      "name": "owner",
      "outputs": [
        {
          "name": "",
          "type": "address"
        }
      ],
      "payable": false,
      "stateMutability": "view",
      "type": "function"
    },
    {
      "constant": true,
      "inputs": [],
      "name": "symbol",
      "outputs": [
        {
          "name": "",
          "type": "string"
        }
      ],
      "payable": false,
      "stateMutability": "view",
      "type": "function"
    },
    {
      "constant": false,
      "inputs": [
        {
          "name": "data",
          "type": "uint256[]"
        }
      ],
      "name": "multiMint",
      "outputs": [],
      "payable": false,
      "stateMutability": "nonpayable",
      "type": "function"
    },
    {
      "constant": false,
      "inputs": [
        {
          "name": "_to",
          "type": "address"
        },
        {
          "name": "_amount",
          "type": "uint256"
        }
      ],
      "name": "burn",
      "outputs": [],
      "payable": false,
      "stateMutability": "nonpayable",
      "type": "function"
    },
    {
      "constant": false,
      "inputs": [
        {
          "name": "_transferTime",
          "type": "uint256"
        }
      ],
      "name": "setTransferTime",
      "outputs": [],
      "payable": false,
      "stateMutability": "nonpayable",
      "type": "function"
    },
    {
      "constant": false,
      "inputs": [
        {
          "name": "_specUWallet",
          "type": "address"
        },
        {
          "name": "_specDWallet",
          "type": "address"
        }
      ],
      "name": "setTokenAddresses",
      "outputs": [],
      "payable": false,
      "stateMutability": "nonpayable",
      "type": "function"
    },
    {
      "constant": false,
      "inputs": [
        {
          "name": "_to",
          "type": "address"
        },
        {
          "name": "_value",
          "type": "uint256"
        }
      ],
      "name": "transfer",
      "outputs": [
        {
          "name": "success",
          "type": "bool"
        }
      ],
      "payable": false,
      "stateMutability": "nonpayable",
      "type": "function"
    },
    {
      "constant": true,
      "inputs": [],
      "name": "specWallet",
      "outputs": [
        {
          "name": "",
          "type": "address"
        }
      ],
      "payable": false,
      "stateMutability": "view",
      "type": "function"
    },
    {
      "constant": true,
      "inputs": [],
      "name": "saleEnd",
      "outputs": [
        {
          "name": "",
          "type": "uint256"
        }
      ],
      "payable": false,
      "stateMutability": "view",
      "type": "function"
    },
    {
      "constant": false,
      "inputs": [
        {
          "name": "_spender",
          "type": "address"
        },
        {
          "name": "_addedValue",
          "type": "uint256"
        }
      ],
      "name": "increaseApproval",
      "outputs": [
        {
          "name": "success",
          "type": "bool"
        }
      ],
      "payable": false,
      "stateMutability": "nonpayable",
      "type": "function"
    },
    {
      "constant": false,
      "inputs": [
        {
          "name": "_owner",
          "type": "address"
        },
        {
          "name": "_spender",
          "type": "address"
        },
        {
          "name": "_amount",
          "type": "uint256"
        }
      ],
      "name": "onApprove",
      "outputs": [
        {
          "name": "",
          "type": "bool"
        }
      ],
      "payable": false,
      "stateMutability": "nonpayable",
      "type": "function"
    },
    {
      "constant": true,
      "inputs": [
        {
          "name": "_owner",
          "type": "address"
        },
        {
          "name": "_spender",
          "type": "address"
        }
      ],
      "name": "allowance",
      "outputs": [
        {
          "name": "remaining",
          "type": "uint256"
        }
      ],
      "payable": false,
      "stateMutability": "view",
      "type": "function"
    },
    {
      "constant": true,
      "inputs": [],
      "name": "transferTime",
      "outputs": [
        {
          "name": "",
          "type": "uint256"
        }
      ],
      "payable": false,
      "stateMutability": "view",
      "type": "function"
    },
    {
      "constant": true,
      "inputs": [],
      "name": "specDWallet",
      "outputs": [
        {
          "name": "",
          "type": "address"
        }
      ],
      "payable": false,
      "stateMutability": "view",
      "type": "function"
    },
    {
      "constant": false,
      "inputs": [
        {
          "name": "newOwner",
          "type": "address"
        }
      ],
      "name": "transferOwnership",
      "outputs": [],
      "payable": false,
      "stateMutability": "nonpayable",
      "type": "function"
    },
    {
      "constant": false,
      "inputs": [
        {
          "name": "_owner",
          "type": "address"
        }
      ],
      "name": "proxyPayment",
      "outputs": [
        {
          "name": "",
          "type": "bool"
        }
      ],
      "payable": true,
      "stateMutability": "payable",
      "type": "function"
    },
    {
      "constant": false,
      "inputs": [
        {
          "name": "data",
          "type": "uint256[]"
        }
      ],
      "name": "multiBurn",
      "outputs": [],
      "payable": false,
      "stateMutability": "nonpayable",
      "type": "function"
    },
    {
      "anonymous": false,
      "inputs": [
        {
          "indexed": true,
          "name": "_from",
          "type": "address"
        },
        {
          "indexed": true,
          "name": "_to",
          "type": "address"
        },
        {
          "indexed": false,
          "name": "_value",
          "type": "uint256"
        }
      ],
      "name": "OwnerTransfer",
      "type": "event"
    },
    {
      "anonymous": false,
      "inputs": [
        {
          "indexed": false,
          "name": "_transferTime",
          "type": "uint256"
        }
      ],
      "name": "TransferTimeSet",
      "type": "event"
    },
    {
      "anonymous": false,
      "inputs": [
        {
          "indexed": true,
          "name": "previousOwner",
          "type": "address"
        },
        {
          "indexed": true,
          "name": "newOwner",
          "type": "address"
        }
      ],
      "name": "OwnershipTransferred",
      "type": "event"
    },
    {
      "anonymous": false,
      "inputs": [
        {
          "indexed": true,
          "name": "owner",
          "type": "address"
        },
        {
          "indexed": true,
          "name": "spender",
          "type": "address"
        },
        {
          "indexed": false,
          "name": "value",
          "type": "uint256"
        }
      ],
      "name": "Approval",
      "type": "event"
    },
    {
      "anonymous": false,
      "inputs": [
        {
          "indexed": true,
          "name": "from",
          "type": "address"
        },
        {
          "indexed": true,
          "name": "to",
          "type": "address"
        },
        {
          "indexed": false,
          "name": "value",
          "type": "uint256"
        }
      ],
      "name": "Transfer",
      "type": "event"
    }
  ],
  "bytecode": "0x60606040526000600755635a2d21c06008556000600960006101000a81548160ff02191690831515021790555033600360006101000a81548173ffffffffffffffffffffffffffffffffffffffff021916908373ffffffffffffffffffffffffffffffffffffffff1602179055506122e08061007c6000396000f300606060405260043610610180576000357c0100000000000000000000000000000000000000000000000000000000900463ffffffff168063025488661461018557806306fdde03146101ae578063095ea7b31461023c57806318160ddd1461029657806323b872dd146102bf578063313ce5671461033857806340c10f19146103615780634a393149146103a3578063661884631461041c5780636a7254a31461047657806370a08231146104cb5780637362377b14610518578063808a69e21461052d5780638da5cb5b1461055a57806395d89b41146105af5780639a0e4ebb1461063d5780639dc29fac146106975780639eabebe7146106d9578063a89c8c5e146106fc578063a9059cbb14610754578063bfd0a553146107ae578063c10b935814610803578063d73dd6231461082c578063da682aeb14610886578063dd62ed3e146108ff578063e08e433a1461096b578063e3e5439c14610994578063f2fde38b146109e9578063f48c305414610a22578063fb6a53d214610a68575b600080fd5b341561019057600080fd5b610198610ac2565b6040518082815260200191505060405180910390f35b34156101b957600080fd5b6101c1610ad1565b6040518080602001828103825283818151815260200191508051906020019080838360005b838110156102015780820151818401526020810190506101e6565b50505050905090810190601f16801561022e5780820380516001836020036101000a031916815260200191505b509250505060405180910390f35b341561024757600080fd5b61027c600480803573ffffffffffffffffffffffffffffffffffffffff16906020019091908035906020019091905050610b0a565b604051808215151515815260200191505060405180910390f35b34156102a157600080fd5b6102a9610bfc565b6040518082815260200191505060405180910390f35b34156102ca57600080fd5b61031e600480803573ffffffffffffffffffffffffffffffffffffffff1690602001909190803573ffffffffffffffffffffffffffffffffffffffff16906020019091908035906020019091905050610c02565b604051808215151515815260200191505060405180910390f35b341561034357600080fd5b61034b610f0a565b6040518082815260200191505060405180910390f35b341561036c57600080fd5b6103a1600480803573ffffffffffffffffffffffffffffffffffffffff16906020019091908035906020019091905050610f0f565b005b34156103ae57600080fd5b610402600480803573ffffffffffffffffffffffffffffffffffffffff1690602001909190803573ffffffffffffffffffffffffffffffffffffffff1690602001909190803590602001909190505061109d565b604051808215151515815260200191505060405180910390f35b341561042757600080fd5b61045c600480803573ffffffffffffffffffffffffffffffffffffffff169060200190919080359060200190919050506110aa565b604051808215151515815260200191505060405180910390f35b341561048157600080fd5b61048961133b565b604051808273ffffffffffffffffffffffffffffffffffffffff1673ffffffffffffffffffffffffffffffffffffffff16815260200191505060405180910390f35b34156104d657600080fd5b610502600480803573ffffffffffffffffffffffffffffffffffffffff16906020019091905050611361565b6040518082815260200191505060405180910390f35b341561052357600080fd5b61052b6113aa565b005b341561053857600080fd5b61054061145f565b604051808215151515815260200191505060405180910390f35b341561056557600080fd5b61056d611472565b604051808273ffffffffffffffffffffffffffffffffffffffff1673ffffffffffffffffffffffffffffffffffffffff16815260200191505060405180910390f35b34156105ba57600080fd5b6105c2611498565b6040518080602001828103825283818151815260200191508051906020019080838360005b838110156106025780820151818401526020810190506105e7565b50505050905090810190601f16801561062f5780820380516001836020036101000a031916815260200191505b509250505060405180910390f35b341561064857600080fd5b6106956004808035906020019082018035906020019080806020026020016040519081016040528093929190818152602001838360200280828437820191505050505050919050506114d1565b005b34156106a257600080fd5b6106d7600480803573ffffffffffffffffffffffffffffffffffffffff169060200190919080359060200190919050506115cb565b005b34156106e457600080fd5b6106fa600480803590602001909190505061172b565b005b341561070757600080fd5b610752600480803573ffffffffffffffffffffffffffffffffffffffff1690602001909190803573ffffffffffffffffffffffffffffffffffffffff169060200190919050506117ca565b005b341561075f57600080fd5b610794600480803573ffffffffffffffffffffffffffffffffffffffff16906020019091908035906020019091905050611983565b604051808215151515815260200191505060405180910390f35b34156107b957600080fd5b6107c1611a9c565b604051808273ffffffffffffffffffffffffffffffffffffffff1673ffffffffffffffffffffffffffffffffffffffff16815260200191505060405180910390f35b341561080e57600080fd5b610816611ac2565b6040518082815260200191505060405180910390f35b341561083757600080fd5b61086c600480803573ffffffffffffffffffffffffffffffffffffffff16906020019091908035906020019091905050611ac8565b604051808215151515815260200191505060405180910390f35b341561089157600080fd5b6108e5600480803573ffffffffffffffffffffffffffffffffffffffff1690602001909190803573ffffffffffffffffffffffffffffffffffffffff16906020019091908035906020019091905050611cc4565b604051808215151515815260200191505060405180910390f35b341561090a57600080fd5b610955600480803573ffffffffffffffffffffffffffffffffffffffff1690602001909190803573ffffffffffffffffffffffffffffffffffffffff16906020019091905050611cd1565b6040518082815260200191505060405180910390f35b341561097657600080fd5b61097e611d58565b6040518082815260200191505060405180910390f35b341561099f57600080fd5b6109a7611d5e565b604051808273ffffffffffffffffffffffffffffffffffffffff1673ffffffffffffffffffffffffffffffffffffffff16815260200191505060405180910390f35b34156109f457600080fd5b610a20600480803573ffffffffffffffffffffffffffffffffffffffff16906020019091905050611d84565b005b610a4e600480803573ffffffffffffffffffffffffffffffffffffffff16906020019091905050611edc565b604051808215151515815260200191505060405180910390f35b3415610a7357600080fd5b610ac0600480803590602001908201803590602001908080602002602001604051908101604052809392919081815260200183836020028082843782019150505050505091905050611ee6565b005b6a4bcaef246f07a71370dcfc81565b6040805190810160405280601981526020017f5350454354524520535542534352494245523220544f4b454e0000000000000081525081565b600081600260003373ffffffffffffffffffffffffffffffffffffffff1673ffffffffffffffffffffffffffffffffffffffff16815260200190815260200160002060008573ffffffffffffffffffffffffffffffffffffffff1673ffffffffffffffffffffffffffffffffffffffff168152602001908152602001600020819055508273ffffffffffffffffffffffffffffffffffffffff163373ffffffffffffffffffffffffffffffffffffffff167f8c5be1e5ebec7d5bd14f71427d1e84f3dd0314c0f7b2291e5b200ac8c7c3b925846040518082815260200191505060405180910390a36001905092915050565b60005481565b600080610c0d6122a0565b600960009054906101000a900460ff161515610c2857600080fd5b600754610c33611fe0565b111515610c3f57600080fd5b600560009054906101000a900473ffffffffffffffffffffffffffffffffffffffff1673ffffffffffffffffffffffffffffffffffffffff168573ffffffffffffffffffffffffffffffffffffffff161480610ce85750600660009054906101000a900473ffffffffffffffffffffffffffffffffffffffff1673ffffffffffffffffffffffffffffffffffffffff168573ffffffffffffffffffffffffffffffffffffffff16145b1515610cf357600080fd5b610cfc85611fe8565b1515610d0757600080fd5b600360009054906101000a900473ffffffffffffffffffffffffffffffffffffffff1673ffffffffffffffffffffffffffffffffffffffff163373ffffffffffffffffffffffffffffffffffffffff16148015610d7157506224ea0060085401610d6f611fe0565b115b15610de0578473ffffffffffffffffffffffffffffffffffffffff168673ffffffffffffffffffffffffffffffffffffffff167fd30796a26ac49ebbc2092097f71aea64b94ffc866a5909a76002686237beff60866040518082815260200191505060405180910390a3610ef3565b600260008773ffffffffffffffffffffffffffffffffffffffff1673ffffffffffffffffffffffffffffffffffffffff16815260200190815260200160002060003373ffffffffffffffffffffffffffffffffffffffff1673ffffffffffffffffffffffffffffffffffffffff168152602001908152602001600020549150610e728483611ffb90919063ffffffff16565b600260008873ffffffffffffffffffffffffffffffffffffffff1673ffffffffffffffffffffffffffffffffffffffff16815260200190815260200160002060003373ffffffffffffffffffffffffffffffffffffffff1673ffffffffffffffffffffffffffffffffffffffff168152602001908152602001600020819055505b610eff86868684612014565b925050509392505050565b601281565b600360009054906101000a900473ffffffffffffffffffffffffffffffffffffffff1673ffffffffffffffffffffffffffffffffffffffff163373ffffffffffffffffffffffffffffffffffffffff16141515610f6b57600080fd5b6a4bcaef246f07a71370dcfc610f8c8260005461228290919063ffffffff16565b11151515610f9957600080fd5b610feb81600160008573ffffffffffffffffffffffffffffffffffffffff1673ffffffffffffffffffffffffffffffffffffffff1681526020019081526020016000205461228290919063ffffffff16565b600160008473ffffffffffffffffffffffffffffffffffffffff1673ffffffffffffffffffffffffffffffffffffffff168152602001908152602001600020819055506110438160005461228290919063ffffffff16565b6000819055508173ffffffffffffffffffffffffffffffffffffffff1660007fddf252ad1be2c89b69c2b068fc378daa952ba7f163c4a11628f55a4df523b3ef836040518082815260200191505060405180910390a35050565b6000600190509392505050565b600080600260003373ffffffffffffffffffffffffffffffffffffffff1673ffffffffffffffffffffffffffffffffffffffff16815260200190815260200160002060008573ffffffffffffffffffffffffffffffffffffffff1673ffffffffffffffffffffffffffffffffffffffff168152602001908152602001600020549050808311156111bb576000600260003373ffffffffffffffffffffffffffffffffffffffff1673ffffffffffffffffffffffffffffffffffffffff16815260200190815260200160002060008673ffffffffffffffffffffffffffffffffffffffff1673ffffffffffffffffffffffffffffffffffffffff1681526020019081526020016000208190555061124f565b6111ce8382611ffb90919063ffffffff16565b600260003373ffffffffffffffffffffffffffffffffffffffff1673ffffffffffffffffffffffffffffffffffffffff16815260200190815260200160002060008673ffffffffffffffffffffffffffffffffffffffff1673ffffffffffffffffffffffffffffffffffffffff168152602001908152602001600020819055505b8373ffffffffffffffffffffffffffffffffffffffff163373ffffffffffffffffffffffffffffffffffffffff167f8c5be1e5ebec7d5bd14f71427d1e84f3dd0314c0f7b2291e5b200ac8c7c3b925600260003373ffffffffffffffffffffffffffffffffffffffff1673ffffffffffffffffffffffffffffffffffffffff16815260200190815260200160002060008873ffffffffffffffffffffffffffffffffffffffff1673ffffffffffffffffffffffffffffffffffffffff168152602001908152602001600020546040518082815260200191505060405180910390a3600191505092915050565b600660009054906101000a900473ffffffffffffffffffffffffffffffffffffffff1681565b6000600160008373ffffffffffffffffffffffffffffffffffffffff1673ffffffffffffffffffffffffffffffffffffffff168152602001908152602001600020549050919050565b600360009054906101000a900473ffffffffffffffffffffffffffffffffffffffff1673ffffffffffffffffffffffffffffffffffffffff163373ffffffffffffffffffffffffffffffffffffffff1614151561140657600080fd5b3373ffffffffffffffffffffffffffffffffffffffff166108fc3073ffffffffffffffffffffffffffffffffffffffff16319081150290604051600060405180830381858888f19350505050151561145d57600080fd5b565b600960009054906101000a900460ff1681565b600360009054906101000a900473ffffffffffffffffffffffffffffffffffffffff1681565b6040805190810160405280600481526020017f535853320000000000000000000000000000000000000000000000000000000081525081565b6000806000600360009054906101000a900473ffffffffffffffffffffffffffffffffffffffff1673ffffffffffffffffffffffffffffffffffffffff163373ffffffffffffffffffffffffffffffffffffffff1614151561153257600080fd5b600092505b83518310156115c55760017401000000000000000000000000000000000000000003848481518110151561156757fe5b9060200190602002015116915074010000000000000000000000000000000000000000848481518110151561159857fe5b906020019060200201518115156115ab57fe5b0490506115b88282610f0f565b8280600101935050611537565b50505050565b600360009054906101000a900473ffffffffffffffffffffffffffffffffffffffff1673ffffffffffffffffffffffffffffffffffffffff163373ffffffffffffffffffffffffffffffffffffffff1614151561162757600080fd5b61167981600160008573ffffffffffffffffffffffffffffffffffffffff1673ffffffffffffffffffffffffffffffffffffffff16815260200190815260200160002054611ffb90919063ffffffff16565b600160008473ffffffffffffffffffffffffffffffffffffffff1673ffffffffffffffffffffffffffffffffffffffff168152602001908152602001600020819055506116d181600054611ffb90919063ffffffff16565b60008190555060008273ffffffffffffffffffffffffffffffffffffffff167fddf252ad1be2c89b69c2b068fc378daa952ba7f163c4a11628f55a4df523b3ef836040518082815260200191505060405180910390a35050565b600360009054906101000a900473ffffffffffffffffffffffffffffffffffffffff1673ffffffffffffffffffffffffffffffffffffffff163373ffffffffffffffffffffffffffffffffffffffff1614151561178757600080fd5b806007819055507f2f3a26ee1c56acc0054ef40fa88f260d5c17a3f2cd01a3bedcc48c2f4da3b33b6007546040518082815260200191505060405180910390a150565b600360009054906101000a900473ffffffffffffffffffffffffffffffffffffffff1673ffffffffffffffffffffffffffffffffffffffff163373ffffffffffffffffffffffffffffffffffffffff1614151561182657600080fd5b600960009054906101000a900460ff1615151561184257600080fd5b600073ffffffffffffffffffffffffffffffffffffffff168173ffffffffffffffffffffffffffffffffffffffff161415151561187e57600080fd5b600073ffffffffffffffffffffffffffffffffffffffff168273ffffffffffffffffffffffffffffffffffffffff16141515156118ba57600080fd5b6118c381611fe8565b15156118ce57600080fd5b6118d782611fe8565b15156118e257600080fd5b81600660006101000a81548173ffffffffffffffffffffffffffffffffffffffff021916908373ffffffffffffffffffffffffffffffffffffffff16021790555080600560006101000a81548173ffffffffffffffffffffffffffffffffffffffff021916908373ffffffffffffffffffffffffffffffffffffffff1602179055506001600960006101000a81548160ff0219169083151502179055505050565b600061198d6122a0565b600960009054906101000a900460ff1615156119a857600080fd5b6007546119b3611fe0565b1115156119bf57600080fd5b600560009054906101000a900473ffffffffffffffffffffffffffffffffffffffff1673ffffffffffffffffffffffffffffffffffffffff168473ffffffffffffffffffffffffffffffffffffffff161480611a685750600660009054906101000a900473ffffffffffffffffffffffffffffffffffffffff1673ffffffffffffffffffffffffffffffffffffffff168473ffffffffffffffffffffffffffffffffffffffff16145b1515611a7357600080fd5b611a7c84611fe8565b1515611a8757600080fd5b611a9333858584612014565b91505092915050565b600460009054906101000a900473ffffffffffffffffffffffffffffffffffffffff1681565b60085481565b6000611b5982600260003373ffffffffffffffffffffffffffffffffffffffff1673ffffffffffffffffffffffffffffffffffffffff16815260200190815260200160002060008673ffffffffffffffffffffffffffffffffffffffff1673ffffffffffffffffffffffffffffffffffffffff1681526020019081526020016000205461228290919063ffffffff16565b600260003373ffffffffffffffffffffffffffffffffffffffff1673ffffffffffffffffffffffffffffffffffffffff16815260200190815260200160002060008573ffffffffffffffffffffffffffffffffffffffff1673ffffffffffffffffffffffffffffffffffffffff168152602001908152602001600020819055508273ffffffffffffffffffffffffffffffffffffffff163373ffffffffffffffffffffffffffffffffffffffff167f8c5be1e5ebec7d5bd14f71427d1e84f3dd0314c0f7b2291e5b200ac8c7c3b925600260003373ffffffffffffffffffffffffffffffffffffffff1673ffffffffffffffffffffffffffffffffffffffff16815260200190815260200160002060008773ffffffffffffffffffffffffffffffffffffffff1673ffffffffffffffffffffffffffffffffffffffff168152602001908152602001600020546040518082815260200191505060405180910390a36001905092915050565b6000600190509392505050565b6000600260008473ffffffffffffffffffffffffffffffffffffffff1673ffffffffffffffffffffffffffffffffffffffff16815260200190815260200160002060008373ffffffffffffffffffffffffffffffffffffffff1673ffffffffffffffffffffffffffffffffffffffff16815260200190815260200160002054905092915050565b60075481565b600560009054906101000a900473ffffffffffffffffffffffffffffffffffffffff1681565b600360009054906101000a900473ffffffffffffffffffffffffffffffffffffffff1673ffffffffffffffffffffffffffffffffffffffff163373ffffffffffffffffffffffffffffffffffffffff16141515611de057600080fd5b600073ffffffffffffffffffffffffffffffffffffffff168173ffffffffffffffffffffffffffffffffffffffff1614151515611e1c57600080fd5b8073ffffffffffffffffffffffffffffffffffffffff16600360009054906101000a900473ffffffffffffffffffffffffffffffffffffffff1673ffffffffffffffffffffffffffffffffffffffff167f8be0079c531659141344cd1fd0a4f28419497f9722a3daafe3b4186f6b6457e060405160405180910390a380600360006101000a81548173ffffffffffffffffffffffffffffffffffffffff021916908373ffffffffffffffffffffffffffffffffffffffff16021790555050565b6000809050919050565b6000806000600360009054906101000a900473ffffffffffffffffffffffffffffffffffffffff1673ffffffffffffffffffffffffffffffffffffffff163373ffffffffffffffffffffffffffffffffffffffff16141515611f4757600080fd5b600092505b8351831015611fda57600174010000000000000000000000000000000000000000038484815181101515611f7c57fe5b90602001906020020151169150740100000000000000000000000000000000000000008484815181101515611fad57fe5b90602001906020020151811515611fc057fe5b049050611fcd82826115cb565b8280600101935050611f4c565b50505050565b600042905090565b600080823b905060008111915050919050565b600082821115151561200957fe5b818303905092915050565b6000808361202187611361565b1015151561202e57600080fd5b6120498461203b88611361565b611ffb90919063ffffffff16565b600160008873ffffffffffffffffffffffffffffffffffffffff1673ffffffffffffffffffffffffffffffffffffffff168152602001908152602001600020819055506120a78461209987611361565b61228290919063ffffffff16565b600160008773ffffffffffffffffffffffffffffffffffffffff1673ffffffffffffffffffffffffffffffffffffffff168152602001908152602001600020819055508490508073ffffffffffffffffffffffffffffffffffffffff1663c0ee0b8a8786866040518463ffffffff167c0100000000000000000000000000000000000000000000000000000000028152600401808473ffffffffffffffffffffffffffffffffffffffff1673ffffffffffffffffffffffffffffffffffffffff16815260200183815260200180602001828103825283818151815260200191508051906020019080838360005b838110156121af578082015181840152602081019050612194565b50505050905090810190601f1680156121dc5780820380516001836020036101000a031916815260200191505b50945050505050600060405180830381600087803b15156121fc57600080fd5b6102c65a03f1151561220d57600080fd5b5050508473ffffffffffffffffffffffffffffffffffffffff168673ffffffffffffffffffffffffffffffffffffffff167fddf252ad1be2c89b69c2b068fc378daa952ba7f163c4a11628f55a4df523b3ef866040518082815260200191505060405180910390a36001915050949350505050565b600080828401905083811015151561229657fe5b8091505092915050565b6020604051908101604052806000815250905600a165627a7a723058205bee995c2b435906942e245a1f0a9c5721ffb8ccddae021d469f498897a349cb0029",
  "source": "pragma solidity ^0.4.15;\n\nimport 'zeppelin-solidity/contracts/token/StandardToken.sol';\nimport \"zeppelin-solidity/contracts/ownership/Ownable.sol\";\nimport \"zeppelin-solidity/contracts/math/Math.sol\";\n\nimport './ContractReceiver.sol';\nimport './MiniMeToken.sol';\n\n/// @title SpecToken - Crowdfunding code for the Spectre.ai Token Sale\ncontract SpectreSubscriber2Token is StandardToken, Ownable, TokenController {\n  using SafeMath for uint;\n\n  string public constant name = \"SPECTRE SUBSCRIBER2 TOKEN\";\n  string public constant symbol = \"SXS2\";\n  uint256 public constant decimals = 18;\n\n  uint256 public constant TOTAL_CAP = 91627765897795994966351100;\n\n  address public specWallet;\n  address public specDWallet;\n  address public specUWallet;\n\n  uint256 public transferTime = 0;\n  uint256 public saleEnd = 1512907200;\n  bool public tokenAddressesSet = false;\n  uint256 constant D160 = 0x0010000000000000000000000000000000000000000;\n\n  event OwnerTransfer(address indexed _from, address indexed _to, uint256 _value);\n  event TransferTimeSet(uint256 _transferTime);\n\n  modifier isTransferable() {\n    require(tokenAddressesSet);\n    require(getNow() > transferTime);\n    _;\n  }\n\n  function setTransferTime(uint256 _transferTime) onlyOwner {\n    transferTime = _transferTime;\n    TransferTimeSet(transferTime);\n  }\n\n  function mint(address _to, uint256 _amount) onlyOwner {\n    require(totalSupply.add(_amount) <= TOTAL_CAP);\n    balances[_to] = balances[_to].add(_amount);\n    totalSupply = totalSupply.add(_amount);\n    Transfer(0, _to, _amount);\n  }\n\n  function burn(address _to, uint256 _amount) onlyOwner {\n    balances[_to] = balances[_to].sub(_amount);\n    totalSupply = totalSupply.sub(_amount);\n    Transfer(_to, 0, _amount);\n  }\n\n  //@notice Function to configure contract addresses\n  //@param `_specUWallet` - address of Utility contract\n  //@param `_specDWallet` - address of Dividend contract\n  function setTokenAddresses(address _specUWallet, address _specDWallet) onlyOwner public {\n    require(!tokenAddressesSet);\n    require(_specDWallet != address(0));\n    require(_specUWallet != address(0));\n    require(isContract(_specDWallet));\n    require(isContract(_specUWallet));\n    specUWallet = _specUWallet;\n    specDWallet = _specDWallet;\n    tokenAddressesSet = true;\n  }\n\n  function withdrawEther() public onlyOwner {\n    //In case ether is sent, even though not refundable\n    msg.sender.transfer(this.balance);\n  }\n\n  //@notice Standard function transfer similar to ERC20 transfer with no _data .\n  //@notice Added due to backwards compatibility reasons .\n  function transfer(address _to, uint256 _value) isTransferable returns (bool success) {\n    //standard function transfer similar to ERC20 transfer with no _data\n    //added due to backwards compatibility reasons\n    require(_to == specDWallet || _to == specUWallet);\n    require(isContract(_to));\n    bytes memory empty;\n    return transferToContract(msg.sender, _to, _value, empty);\n  }\n\n  //@notice assemble the given address bytecode. If bytecode exists then the _addr is a contract.\n  function isContract(address _addr) private returns (bool is_contract) {\n    uint256 length;\n    assembly {\n      //retrieve the size of the code on target address, this needs assembly\n      length := extcodesize(_addr)\n    }\n    return (length>0);\n  }\n\n  //@notice function that is called when transaction target is a contract\n  function transferToContract(address _from, address _to, uint256 _value, bytes _data) internal returns (bool success) {\n    require(balanceOf(_from) >= _value);\n    balances[_from] = balanceOf(_from).sub(_value);\n    balances[_to] = balanceOf(_to).add(_value);\n    ContractReceiver receiver = ContractReceiver(_to);\n    receiver.tokenFallback(_from, _value, _data);\n    Transfer(_from, _to, _value);\n    return true;\n  }\n\n  /**\n   * @dev Transfer tokens from one address to another - needed for owner transfers\n   * @param _from address The address which you want to send tokens from\n   * @param _to address The address which you want to transfer to\n   * @param _value uint256 the amount of tokens to be transferred\n   */\n  function transferFrom(address _from, address _to, uint256 _value) public isTransferable returns (bool) {\n    require(_to == specDWallet || _to == specUWallet);\n    require(isContract(_to));\n    //owner can transfer tokens on behalf of users after 28 days\n    if (msg.sender == owner && getNow() > saleEnd + 28 days) {\n      OwnerTransfer(_from, _to, _value);\n    } else {\n      uint256 _allowance = allowed[_from][msg.sender];\n      allowed[_from][msg.sender] = _allowance.sub(_value);\n    }\n\n    //Now make the transfer\n    bytes memory empty;\n    return transferToContract(_from, _to, _value, empty);\n\n  }\n\n  // data is an array of uint256s. Each uint256 represents a address and amount.\n  // The 160 LSB is the address that wants to be added\n  // The 96 MSB is the amount of to be minted for that address\n  function multiMint(uint256[] data) public onlyOwner {\n    for (uint256 i = 0; i < data.length; i++) {\n      address addr = address(data[i] & (D160 - 1));\n      uint256 amount = data[i] / D160;\n      mint(addr, amount);\n    }\n  }\n\n  // data is an array of uint256s. Each uint256 represents a address and amount.\n  // The 160 LSB is the address that wants to be added\n  // The 96 MSB is the amount of to be minted for that address\n  function multiBurn(uint256[] data) public onlyOwner {\n    for (uint256 i = 0; i < data.length; i++) {\n      address addr = address(data[i] & (D160 - 1));\n      uint256 amount = data[i] / D160;\n      burn(addr, amount);\n    }\n  }\n\n  /////////////////\n  // TokenController interface\n  /////////////////\n\n  /// @notice `proxyPayment()` returns false, meaning ether is not accepted at\n  ///  the token address, only the address of FiinuCrowdSale\n  /// @param _owner The address that will hold the newly created tokens\n\n  function proxyPayment(address _owner) payable returns(bool) {\n      return false;\n  }\n\n  /// @notice Notifies the controller about a transfer, for this Campaign all\n  ///  transfers are allowed by default and no extra notifications are needed\n  /// @param _from The origin of the transfer\n  /// @param _to The destination of the transfer\n  /// @param _amount The amount of the transfer\n  /// @return False if the controller does not authorize the transfer\n  function onTransfer(address _from, address _to, uint _amount) returns(bool) {\n      return true;\n  }\n\n  /// @notice Notifies the controller about an approval, for this Campaign all\n  ///  approvals are allowed by default and no extra notifications are needed\n  /// @param _owner The address that calls `approve()`\n  /// @param _spender The spender in the `approve()` call\n  /// @param _amount The amount in the `approve()` call\n  /// @return False if the controller does not authorize the approval\n  function onApprove(address _owner, address _spender, uint _amount)\n      returns(bool)\n  {\n      return true;\n  }\n\n  function getNow() constant internal returns (uint256) {\n    return now;\n  }\n\n}\n",
  "sourcePath": "/Users/adamdossa/Development/Ethereum/spectre-tokensale/contracts/SpectreSubscriber2Token.sol",
  "compiler": {
    "name": "solc",
    "version": "0.4.18+commit.9cf6e910.Emscripten.clang"
  },
  "schemaVersion": "1.0.1",
  "updatedAt": "2017-12-11T10:38:27.091Z"
}