{
  "contractName": "SpectreSubscriber2TokenMock",
  "abi": [
    {
      "constant": true,
      "inputs": [],
      "name": "TOTAL_CAP",
      "outputs": [
        {
          "name": "",
          "type": "uint256"
        }
      ],
      "payable": false,
      "stateMutability": "view",
      "type": "function"
    },
    {
      "constant": true,
      "inputs": [],
      "name": "name",
      "outputs": [
        {
          "name": "",
          "type": "string"
        }
      ],
      "payable": false,
      "stateMutability": "view",
      "type": "function"
    },
    {
      "constant": false,
      "inputs": [
        {
          "name": "_spender",
          "type": "address"
        },
        {
          "name": "_value",
          "type": "uint256"
        }
      ],
      "name": "approve",
      "outputs": [
        {
          "name": "",
          "type": "bool"
        }
      ],
      "payable": false,
      "stateMutability": "nonpayable",
      "type": "function"
    },
    {
      "constant": true,
      "inputs": [],
      "name": "totalSupply",
      "outputs": [
        {
          "name": "",
          "type": "uint256"
        }
      ],
      "payable": false,
      "stateMutability": "view",
      "type": "function"
    },
    {
      "constant": false,
      "inputs": [
        {
          "name": "_from",
          "type": "address"
        },
        {
          "name": "_to",
          "type": "address"
        },
        {
          "name": "_value",
          "type": "uint256"
        }
      ],
      "name": "transferFrom",
      "outputs": [
        {
          "name": "",
          "type": "bool"
        }
      ],
      "payable": false,
      "stateMutability": "nonpayable",
      "type": "function"
    },
    {
      "constant": true,
      "inputs": [],
      "name": "decimals",
      "outputs": [
        {
          "name": "",
          "type": "uint256"
        }
      ],
      "payable": false,
      "stateMutability": "view",
      "type": "function"
    },
    {
      "constant": false,
      "inputs": [
        {
          "name": "_to",
          "type": "address"
        },
        {
          "name": "_amount",
          "type": "uint256"
        }
      ],
      "name": "mint",
      "outputs": [],
      "payable": false,
      "stateMutability": "nonpayable",
      "type": "function"
    },
    {
      "constant": false,
      "inputs": [
        {
          "name": "_from",
          "type": "address"
        },
        {
          "name": "_to",
          "type": "address"
        },
        {
          "name": "_amount",
          "type": "uint256"
        }
      ],
      "name": "onTransfer",
      "outputs": [
        {
          "name": "",
          "type": "bool"
        }
      ],
      "payable": false,
      "stateMutability": "nonpayable",
      "type": "function"
    },
    {
      "constant": false,
      "inputs": [
        {
          "name": "_spender",
          "type": "address"
        },
        {
          "name": "_subtractedValue",
          "type": "uint256"
        }
      ],
      "name": "decreaseApproval",
      "outputs": [
        {
          "name": "success",
          "type": "bool"
        }
      ],
      "payable": false,
      "stateMutability": "nonpayable",
      "type": "function"
    },
    {
      "constant": true,
      "inputs": [],
      "name": "specUWallet",
      "outputs": [
        {
          "name": "",
          "type": "address"
        }
      ],
      "payable": false,
      "stateMutability": "view",
      "type": "function"
    },
    {
      "constant": true,
      "inputs": [
        {
          "name": "_owner",
          "type": "address"
        }
      ],
      "name": "balanceOf",
      "outputs": [
        {
          "name": "balance",
          "type": "uint256"
        }
      ],
      "payable": false,
      "stateMutability": "view",
      "type": "function"
    },
    {
      "constant": false,
      "inputs": [],
      "name": "withdrawEther",
      "outputs": [],
      "payable": false,
      "stateMutability": "nonpayable",
      "type": "function"
    },
    {
      "constant": true,
      "inputs": [],
      "name": "tokenAddressesSet",
      "outputs": [
        {
          "name": "",
          "type": "bool"
        }
      ],
      "payable": false,
      "stateMutability": "view",
      "type": "function"
    },
    {
      "constant": true,
      "inputs": [],
      "name": "owner",
      "outputs": [
        {
          "name": "",
          "type": "address"
        }
      ],
      "payable": false,
      "stateMutability": "view",
      "type": "function"
    },
    {
      "constant": false,
      "inputs": [
        {
          "name": "_b",
          "type": "uint256"
        }
      ],
      "name": "setMockedNow",
      "outputs": [],
      "payable": false,
      "stateMutability": "nonpayable",
      "type": "function"
    },
    {
      "constant": true,
      "inputs": [],
      "name": "symbol",
      "outputs": [
        {
          "name": "",
          "type": "string"
        }
      ],
      "payable": false,
      "stateMutability": "view",
      "type": "function"
    },
    {
      "constant": false,
      "inputs": [
        {
          "name": "data",
          "type": "uint256[]"
        }
      ],
      "name": "multiMint",
      "outputs": [],
      "payable": false,
      "stateMutability": "nonpayable",
      "type": "function"
    },
    {
      "constant": false,
      "inputs": [
        {
          "name": "_to",
          "type": "address"
        },
        {
          "name": "_amount",
          "type": "uint256"
        }
      ],
      "name": "burn",
      "outputs": [],
      "payable": false,
      "stateMutability": "nonpayable",
      "type": "function"
    },
    {
      "constant": false,
      "inputs": [
        {
          "name": "_transferTime",
          "type": "uint256"
        }
      ],
      "name": "setTransferTime",
      "outputs": [],
      "payable": false,
      "stateMutability": "nonpayable",
      "type": "function"
    },
    {
      "constant": false,
      "inputs": [
        {
          "name": "_specUWallet",
          "type": "address"
        },
        {
          "name": "_specDWallet",
          "type": "address"
        }
      ],
      "name": "setTokenAddresses",
      "outputs": [],
      "payable": false,
      "stateMutability": "nonpayable",
      "type": "function"
    },
    {
      "constant": false,
      "inputs": [
        {
          "name": "_to",
          "type": "address"
        },
        {
          "name": "_value",
          "type": "uint256"
        }
      ],
      "name": "transfer",
      "outputs": [
        {
          "name": "success",
          "type": "bool"
        }
      ],
      "payable": false,
      "stateMutability": "nonpayable",
      "type": "function"
    },
    {
      "constant": true,
      "inputs": [],
      "name": "specWallet",
      "outputs": [
        {
          "name": "",
          "type": "address"
        }
      ],
      "payable": false,
      "stateMutability": "view",
      "type": "function"
    },
    {
      "constant": true,
      "inputs": [],
      "name": "saleEnd",
      "outputs": [
        {
          "name": "",
          "type": "uint256"
        }
      ],
      "payable": false,
      "stateMutability": "view",
      "type": "function"
    },
    {
      "constant": false,
      "inputs": [
        {
          "name": "_spender",
          "type": "address"
        },
        {
          "name": "_addedValue",
          "type": "uint256"
        }
      ],
      "name": "increaseApproval",
      "outputs": [
        {
          "name": "success",
          "type": "bool"
        }
      ],
      "payable": false,
      "stateMutability": "nonpayable",
      "type": "function"
    },
    {
      "constant": false,
      "inputs": [
        {
          "name": "_owner",
          "type": "address"
        },
        {
          "name": "_spender",
          "type": "address"
        },
        {
          "name": "_amount",
          "type": "uint256"
        }
      ],
      "name": "onApprove",
      "outputs": [
        {
          "name": "",
          "type": "bool"
        }
      ],
      "payable": false,
      "stateMutability": "nonpayable",
      "type": "function"
    },
    {
      "constant": true,
      "inputs": [
        {
          "name": "_owner",
          "type": "address"
        },
        {
          "name": "_spender",
          "type": "address"
        }
      ],
      "name": "allowance",
      "outputs": [
        {
          "name": "remaining",
          "type": "uint256"
        }
      ],
      "payable": false,
      "stateMutability": "view",
      "type": "function"
    },
    {
      "constant": true,
      "inputs": [],
      "name": "transferTime",
      "outputs": [
        {
          "name": "",
          "type": "uint256"
        }
      ],
      "payable": false,
      "stateMutability": "view",
      "type": "function"
    },
    {
      "constant": true,
      "inputs": [],
      "name": "specDWallet",
      "outputs": [
        {
          "name": "",
          "type": "address"
        }
      ],
      "payable": false,
      "stateMutability": "view",
      "type": "function"
    },
    {
      "constant": false,
      "inputs": [
        {
          "name": "newOwner",
          "type": "address"
        }
      ],
      "name": "transferOwnership",
      "outputs": [],
      "payable": false,
      "stateMutability": "nonpayable",
      "type": "function"
    },
    {
      "constant": false,
      "inputs": [
        {
          "name": "_owner",
          "type": "address"
        }
      ],
      "name": "proxyPayment",
      "outputs": [
        {
          "name": "",
          "type": "bool"
        }
      ],
      "payable": true,
      "stateMutability": "payable",
      "type": "function"
    },
    {
      "constant": false,
      "inputs": [
        {
          "name": "data",
          "type": "uint256[]"
        }
      ],
      "name": "multiBurn",
      "outputs": [],
      "payable": false,
      "stateMutability": "nonpayable",
      "type": "function"
    },
    {
      "anonymous": false,
      "inputs": [
        {
          "indexed": false,
          "name": "_now",
          "type": "uint256"
        }
      ],
      "name": "MockNow",
      "type": "event"
    },
    {
      "anonymous": false,
      "inputs": [
        {
          "indexed": true,
          "name": "_from",
          "type": "address"
        },
        {
          "indexed": true,
          "name": "_to",
          "type": "address"
        },
        {
          "indexed": false,
          "name": "_value",
          "type": "uint256"
        }
      ],
      "name": "OwnerTransfer",
      "type": "event"
    },
    {
      "anonymous": false,
      "inputs": [
        {
          "indexed": false,
          "name": "_transferTime",
          "type": "uint256"
        }
      ],
      "name": "TransferTimeSet",
      "type": "event"
    },
    {
      "anonymous": false,
      "inputs": [
        {
          "indexed": true,
          "name": "previousOwner",
          "type": "address"
        },
        {
          "indexed": true,
          "name": "newOwner",
          "type": "address"
        }
      ],
      "name": "OwnershipTransferred",
      "type": "event"
    },
    {
      "anonymous": false,
      "inputs": [
        {
          "indexed": true,
          "name": "owner",
          "type": "address"
        },
        {
          "indexed": true,
          "name": "spender",
          "type": "address"
        },
        {
          "indexed": false,
          "name": "value",
          "type": "uint256"
        }
      ],
      "name": "Approval",
      "type": "event"
    },
    {
      "anonymous": false,
      "inputs": [
        {
          "indexed": true,
          "name": "from",
          "type": "address"
        },
        {
          "indexed": true,
          "name": "to",
          "type": "address"
        },
        {
          "indexed": false,
          "name": "value",
          "type": "uint256"
        }
      ],
      "name": "Transfer",
      "type": "event"
    }
  ],
  "bytecode": "0x60606040526000600755635a2d21c06008556009805460ff191690556001600a5560038054600160a060020a033316600160a060020a03199091161790556112578061004c6000396000f30060606040526004361061018a5763ffffffff7c010000000000000000000000000000000000000000000000000000000060003504166302548866811461018f57806306fdde03146101b4578063095ea7b31461023e57806318160ddd1461027457806323b872dd14610287578063313ce567146102af57806340c10f19146102c25780634a393149146102e6578063661884631461030e5780636a7254a31461033057806370a082311461035f5780637362377b1461037e578063808a69e2146103915780638da5cb5b146103a4578063911058df146103b757806395d89b41146103cd5780639a0e4ebb146103e05780639dc29fac1461042f5780639eabebe714610451578063a89c8c5e14610467578063a9059cbb1461048c578063bfd0a553146104ae578063c10b9358146104c1578063d73dd623146104d4578063da682aeb146102e6578063dd62ed3e146104f6578063e08e433a1461051b578063e3e5439c1461052e578063f2fde38b14610541578063f48c305414610560578063fb6a53d214610574575b600080fd5b341561019a57600080fd5b6101a26105c3565b60405190815260200160405180910390f35b34156101bf57600080fd5b6101c76105d2565b60405160208082528190810183818151815260200191508051906020019080838360005b838110156102035780820151838201526020016101eb565b50505050905090810190601f1680156102305780820380516001836020036101000a031916815260200191505b509250505060405180910390f35b341561024957600080fd5b610260600160a060020a0360043516602435610609565b604051901515815260200160405180910390f35b341561027f57600080fd5b6101a2610675565b341561029257600080fd5b610260600160a060020a036004358116906024351660443561067b565b34156102ba57600080fd5b6101a26107e7565b34156102cd57600080fd5b6102e4600160a060020a03600435166024356107ec565b005b34156102f157600080fd5b610260600160a060020a03600435811690602435166044356108cf565b341561031957600080fd5b610260600160a060020a03600435166024356108d8565b341561033b57600080fd5b6103436109d2565b604051600160a060020a03909116815260200160405180910390f35b341561036a57600080fd5b6101a2600160a060020a03600435166109e1565b341561038957600080fd5b6102e46109fc565b341561039c57600080fd5b610260610a56565b34156103af57600080fd5b610343610a5f565b34156103c257600080fd5b6102e4600435610a6e565b34156103d857600080fd5b6101c7610aa9565b34156103eb57600080fd5b6102e46004602481358181019083013580602081810201604051908101604052809392919081815260200183836020028082843750949650610ae095505050505050565b341561043a57600080fd5b6102e4600160a060020a0360043516602435610b84565b341561045c57600080fd5b6102e4600435610c3b565b341561047257600080fd5b6102e4600160a060020a0360043581169060243516610c91565b341561049757600080fd5b610260600160a060020a0360043516602435610d56565b34156104b957600080fd5b610343610de2565b34156104cc57600080fd5b6101a2610df1565b34156104df57600080fd5b610260600160a060020a0360043516602435610df7565b341561050157600080fd5b6101a2600160a060020a0360043581169060243516610e9b565b341561052657600080fd5b6101a2610ec6565b341561053957600080fd5b610343610ecc565b341561054c57600080fd5b6102e4600160a060020a0360043516610edb565b610260600160a060020a0360043516610f76565b341561057f57600080fd5b6102e46004602481358181019083013580602081810201604051908101604052809392919081815260200183836020028082843750949650610f7c95505050505050565b6a4bcaef246f07a71370dcfc81565b60408051908101604052601981527f5350454354524520535542534352494245523220544f4b454e00000000000000602082015281565b600160a060020a03338116600081815260026020908152604080832094871680845294909152808220859055909291907f8c5be1e5ebec7d5bd14f71427d1e84f3dd0314c0f7b2291e5b200ac8c7c3b9259085905190815260200160405180910390a350600192915050565b60005481565b600080610686611219565b60095460ff16151561069757600080fd5b6007546106a261101a565b116106ac57600080fd5b600554600160a060020a03868116911614806106d55750600654600160a060020a038681169116145b15156106e057600080fd5b6106e985611020565b15156106f457600080fd5b60035433600160a060020a03908116911614801561071f5750600854620189c00161071d61101a565b115b156107705784600160a060020a031686600160a060020a03167fd30796a26ac49ebbc2092097f71aea64b94ffc866a5909a76002686237beff608660405190815260200160405180910390a36107d1565b600160a060020a038087166000908152600260209081526040808320339094168352929052205491506107a9828563ffffffff61102816565b600160a060020a03808816600090815260026020908152604080832033909416835292905220555b6107dd8686868461103a565b9695505050505050565b601281565b60035433600160a060020a0390811691161461080757600080fd5b6000546a4bcaef246f07a71370dcfc90610827908363ffffffff61120316565b111561083257600080fd5b600160a060020a03821660009081526001602052604090205461085b908263ffffffff61120316565b600160a060020a03831660009081526001602052604081209190915554610888908263ffffffff61120316565b6000908155600160a060020a038316907fddf252ad1be2c89b69c2b068fc378daa952ba7f163c4a11628f55a4df523b3ef8360405190815260200160405180910390a35050565b60019392505050565b600160a060020a0333811660009081526002602090815260408083209386168352929052908120548083111561093557600160a060020a03338116600090815260026020908152604080832093881683529290529081205561096c565b610945818463ffffffff61102816565b600160a060020a033381166000908152600260209081526040808320938916835292905220555b600160a060020a0333811660008181526002602090815260408083209489168084529490915290819020547f8c5be1e5ebec7d5bd14f71427d1e84f3dd0314c0f7b2291e5b200ac8c7c3b925915190815260200160405180910390a35060019392505050565b600654600160a060020a031681565b600160a060020a031660009081526001602052604090205490565b60035433600160a060020a03908116911614610a1757600080fd5b33600160a060020a03166108fc30600160a060020a0316319081150290604051600060405180830381858888f193505050501515610a5457600080fd5b565b60095460ff1681565b600354600160a060020a031681565b600a8190557ff54bf4ed226aa1df732802a8bd56e85755aab0a0ef7c2fbf204cf0de0765f0738160405190815260200160405180910390a150565b60408051908101604052600481527f5358533200000000000000000000000000000000000000000000000000000000602082015281565b6003546000908190819033600160a060020a03908116911614610b0257600080fd5b600092505b8351831015610b7e57600160a060020a03848481518110610b2457fe5b9060200190602002015116915074010000000000000000000000000000000000000000848481518110610b5357fe5b90602001906020020151811515610b6657fe5b049050610b7382826107ec565b600190920191610b07565b50505050565b60035433600160a060020a03908116911614610b9f57600080fd5b600160a060020a038216600090815260016020526040902054610bc8908263ffffffff61102816565b600160a060020a03831660009081526001602052604081209190915554610bf5908263ffffffff61102816565b6000908155600160a060020a0383167fddf252ad1be2c89b69c2b068fc378daa952ba7f163c4a11628f55a4df523b3ef8360405190815260200160405180910390a35050565b60035433600160a060020a03908116911614610c5657600080fd5b60078190557f2f3a26ee1c56acc0054ef40fa88f260d5c17a3f2cd01a3bedcc48c2f4da3b33b8160405190815260200160405180910390a150565b60035433600160a060020a03908116911614610cac57600080fd5b60095460ff1615610cbc57600080fd5b600160a060020a0381161515610cd157600080fd5b600160a060020a0382161515610ce657600080fd5b610cef81611020565b1515610cfa57600080fd5b610d0382611020565b1515610d0e57600080fd5b60068054600160a060020a0393841673ffffffffffffffffffffffffffffffffffffffff1991821617909155600580549290931691161790556009805460ff19166001179055565b6000610d60611219565b60095460ff161515610d7157600080fd5b600754610d7c61101a565b11610d8657600080fd5b600554600160a060020a0385811691161480610daf5750600654600160a060020a038581169116145b1515610dba57600080fd5b610dc384611020565b1515610dce57600080fd5b610dda3385858461103a565b949350505050565b600454600160a060020a031681565b60085481565b600160a060020a033381166000908152600260209081526040808320938616835292905290812054610e2f908363ffffffff61120316565b600160a060020a0333811660008181526002602090815260408083209489168084529490915290819020849055919290917f8c5be1e5ebec7d5bd14f71427d1e84f3dd0314c0f7b2291e5b200ac8c7c3b92591905190815260200160405180910390a350600192915050565b600160a060020a03918216600090815260026020908152604080832093909416825291909152205490565b60075481565b600554600160a060020a031681565b60035433600160a060020a03908116911614610ef657600080fd5b600160a060020a0381161515610f0b57600080fd5b600354600160a060020a0380831691167f8be0079c531659141344cd1fd0a4f28419497f9722a3daafe3b4186f6b6457e060405160405180910390a36003805473ffffffffffffffffffffffffffffffffffffffff1916600160a060020a0392909216919091179055565b50600090565b6003546000908190819033600160a060020a03908116911614610f9e57600080fd5b600092505b8351831015610b7e57600160a060020a03848481518110610fc057fe5b9060200190602002015116915074010000000000000000000000000000000000000000848481518110610fef57fe5b9060200190602002015181151561100257fe5b04905061100f8282610b84565b600190920191610fa3565b600a5490565b6000903b1190565b60008282111561103457fe5b50900390565b60008083611047876109e1565b101561105257600080fd5b61106b8461105f886109e1565b9063ffffffff61102816565b600160a060020a03871660009081526001602052604090205561109d84611091876109e1565b9063ffffffff61120316565b600160a060020a03861660008181526001602052604090819020929092558692509063c0ee0b8a90889087908790518463ffffffff167c01000000000000000000000000000000000000000000000000000000000281526004018084600160a060020a0316600160a060020a0316815260200183815260200180602001828103825283818151815260200191508051906020019080838360005b8381101561114f578082015183820152602001611137565b50505050905090810190601f16801561117c5780820380516001836020036101000a031916815260200191505b50945050505050600060405180830381600087803b151561119c57600080fd5b6102c65a03f115156111ad57600080fd5b50505084600160a060020a031686600160a060020a03167fddf252ad1be2c89b69c2b068fc378daa952ba7f163c4a11628f55a4df523b3ef8660405190815260200160405180910390a350600195945050505050565b60008282018381101561121257fe5b9392505050565b602060405190810160405260008152905600a165627a7a723058209dd1aae7bb9c855fc61aa4619c76e3d864d21419271a7477e64ad83d3b97ca2b0029",
  "source": "pragma solidity ^0.4.15;\n\nimport '../SpectreSubscriber2Token.sol';\n\ncontract SpectreSubscriber2TokenMock is SpectreSubscriber2Token {\n\n  event MockNow(uint _now);\n\n  uint mock_now = 1;\n\n  function getNow() internal constant returns (uint) {\n      return mock_now;\n  }\n\n  function setMockedNow(uint _b) public {\n      mock_now = _b;\n      MockNow(_b);\n  }\n\n}\n",
  "sourcePath": "/Users/adamdossa/Development/Ethereum/spectre-tokensale/contracts/mock/SpectreSubscriber2TokenMock.sol",
  "compiler": {
    "name": "solc",
    "version": "0.4.18+commit.9cf6e910.Emscripten.clang"
  },
  "schemaVersion": "1.0.1",
  "updatedAt": "2017-12-11T11:23:31.418Z"
}