{
  "contractName": "SpectreSubscriber2Token",
  "abi": [
    {
      "constant": true,
      "inputs": [],
      "name": "TOTAL_CAP",
      "outputs": [
        {
          "name": "",
          "type": "uint256"
        }
      ],
      "payable": false,
      "stateMutability": "view",
      "type": "function"
    },
    {
      "constant": true,
      "inputs": [],
      "name": "name",
      "outputs": [
        {
          "name": "",
          "type": "string"
        }
      ],
      "payable": false,
      "stateMutability": "view",
      "type": "function"
    },
    {
      "constant": false,
      "inputs": [
        {
          "name": "_spender",
          "type": "address"
        },
        {
          "name": "_value",
          "type": "uint256"
        }
      ],
      "name": "approve",
      "outputs": [
        {
          "name": "",
          "type": "bool"
        }
      ],
      "payable": false,
      "stateMutability": "nonpayable",
      "type": "function"
    },
    {
      "constant": true,
      "inputs": [],
      "name": "totalSupply",
      "outputs": [
        {
          "name": "",
          "type": "uint256"
        }
      ],
      "payable": false,
      "stateMutability": "view",
      "type": "function"
    },
    {
      "constant": false,
      "inputs": [
        {
          "name": "_from",
          "type": "address"
        },
        {
          "name": "_to",
          "type": "address"
        },
        {
          "name": "_value",
          "type": "uint256"
        }
      ],
      "name": "transferFrom",
      "outputs": [
        {
          "name": "",
          "type": "bool"
        }
      ],
      "payable": false,
      "stateMutability": "nonpayable",
      "type": "function"
    },
    {
      "constant": true,
      "inputs": [],
      "name": "decimals",
      "outputs": [
        {
          "name": "",
          "type": "uint256"
        }
      ],
      "payable": false,
      "stateMutability": "view",
      "type": "function"
    },
    {
      "constant": false,
      "inputs": [
        {
          "name": "_to",
          "type": "address"
        },
        {
          "name": "_amount",
          "type": "uint256"
        }
      ],
      "name": "mint",
      "outputs": [],
      "payable": false,
      "stateMutability": "nonpayable",
      "type": "function"
    },
    {
      "constant": false,
      "inputs": [
        {
          "name": "_from",
          "type": "address"
        },
        {
          "name": "_to",
          "type": "address"
        },
        {
          "name": "_amount",
          "type": "uint256"
        }
      ],
      "name": "onTransfer",
      "outputs": [
        {
          "name": "",
          "type": "bool"
        }
      ],
      "payable": false,
      "stateMutability": "nonpayable",
      "type": "function"
    },
    {
      "constant": false,
      "inputs": [
        {
          "name": "_spender",
          "type": "address"
        },
        {
          "name": "_subtractedValue",
          "type": "uint256"
        }
      ],
      "name": "decreaseApproval",
      "outputs": [
        {
          "name": "success",
          "type": "bool"
        }
      ],
      "payable": false,
      "stateMutability": "nonpayable",
      "type": "function"
    },
    {
      "constant": true,
      "inputs": [],
      "name": "specUWallet",
      "outputs": [
        {
          "name": "",
          "type": "address"
        }
      ],
      "payable": false,
      "stateMutability": "view",
      "type": "function"
    },
    {
      "constant": true,
      "inputs": [
        {
          "name": "_owner",
          "type": "address"
        }
      ],
      "name": "balanceOf",
      "outputs": [
        {
          "name": "balance",
          "type": "uint256"
        }
      ],
      "payable": false,
      "stateMutability": "view",
      "type": "function"
    },
    {
      "constant": false,
      "inputs": [],
      "name": "withdrawEther",
      "outputs": [],
      "payable": false,
      "stateMutability": "nonpayable",
      "type": "function"
    },
    {
      "constant": true,
      "inputs": [],
      "name": "tokenAddressesSet",
      "outputs": [
        {
          "name": "",
          "type": "bool"
        }
      ],
      "payable": false,
      "stateMutability": "view",
      "type": "function"
    },
    {
      "constant": true,
      "inputs": [],
      "name": "owner",
      "outputs": [
        {
          "name": "",
          "type": "address"
        }
      ],
      "payable": false,
      "stateMutability": "view",
      "type": "function"
    },
    {
      "constant": true,
      "inputs": [],
      "name": "symbol",
      "outputs": [
        {
          "name": "",
          "type": "string"
        }
      ],
      "payable": false,
      "stateMutability": "view",
      "type": "function"
    },
    {
      "constant": false,
      "inputs": [
        {
          "name": "data",
          "type": "uint256[]"
        }
      ],
      "name": "multiMint",
      "outputs": [],
      "payable": false,
      "stateMutability": "nonpayable",
      "type": "function"
    },
    {
      "constant": false,
      "inputs": [
        {
          "name": "_to",
          "type": "address"
        },
        {
          "name": "_amount",
          "type": "uint256"
        }
      ],
      "name": "burn",
      "outputs": [],
      "payable": false,
      "stateMutability": "nonpayable",
      "type": "function"
    },
    {
      "constant": false,
      "inputs": [
        {
          "name": "_transferTime",
          "type": "uint256"
        }
      ],
      "name": "setTransferTime",
      "outputs": [],
      "payable": false,
      "stateMutability": "nonpayable",
      "type": "function"
    },
    {
      "constant": false,
      "inputs": [
        {
          "name": "_specUWallet",
          "type": "address"
        },
        {
          "name": "_specDWallet",
          "type": "address"
        }
      ],
      "name": "setTokenAddresses",
      "outputs": [],
      "payable": false,
      "stateMutability": "nonpayable",
      "type": "function"
    },
    {
      "constant": false,
      "inputs": [
        {
          "name": "_to",
          "type": "address"
        },
        {
          "name": "_value",
          "type": "uint256"
        }
      ],
      "name": "transfer",
      "outputs": [
        {
          "name": "success",
          "type": "bool"
        }
      ],
      "payable": false,
      "stateMutability": "nonpayable",
      "type": "function"
    },
    {
      "constant": true,
      "inputs": [],
      "name": "saleEnd",
      "outputs": [
        {
          "name": "",
          "type": "uint256"
        }
      ],
      "payable": false,
      "stateMutability": "view",
      "type": "function"
    },
    {
      "constant": false,
      "inputs": [
        {
          "name": "_spender",
          "type": "address"
        },
        {
          "name": "_addedValue",
          "type": "uint256"
        }
      ],
      "name": "increaseApproval",
      "outputs": [
        {
          "name": "success",
          "type": "bool"
        }
      ],
      "payable": false,
      "stateMutability": "nonpayable",
      "type": "function"
    },
    {
      "constant": false,
      "inputs": [
        {
          "name": "_owner",
          "type": "address"
        },
        {
          "name": "_spender",
          "type": "address"
        },
        {
          "name": "_amount",
          "type": "uint256"
        }
      ],
      "name": "onApprove",
      "outputs": [
        {
          "name": "",
          "type": "bool"
        }
      ],
      "payable": false,
      "stateMutability": "nonpayable",
      "type": "function"
    },
    {
      "constant": true,
      "inputs": [
        {
          "name": "_owner",
          "type": "address"
        },
        {
          "name": "_spender",
          "type": "address"
        },
        {
          "name": "_amount",
          "type": "uint256"
        }
      ],
      "name": "allowance",
      "outputs": [
        {
          "name": "remaining",
          "type": "uint256"
        }
      ],
      "payable": false,
      "stateMutability": "view",
      "type": "function"
    },
    {
      "constant": true,
      "inputs": [
        {
          "name": "_owner",
          "type": "address"
        },
        {
          "name": "_spender",
          "type": "address"
        }
      ],
      "name": "transferTime",
      "outputs": [
        {
          "name": "",
          "type": "uint256"
        }
      ],
      "payable": false,
      "stateMutability": "view",
      "type": "function"
    },
    {
      "constant": true,
      "inputs": [],
      "name": "specDWallet",
      "outputs": [
        {
          "name": "",
          "type": "address"
        }
      ],
      "payable": false,
      "stateMutability": "view",
      "type": "function"
    },
    {
      "constant": false,
      "inputs": [
        {
          "name": "newOwner",
          "type": "address"
        }
      ],
      "name": "transferOwnership",
      "outputs": [
        {
          "name": "",
          "type": "address"
        }
      ],
      "payable": false,
      "stateMutability": "nonpayable",
      "type": "function"
    },
    {
      "constant": false,
      "inputs": [
        {
          "name": "_owner",
          "type": "address"
        }
      ],
      "name": "proxyPayment",
      "outputs": [
        {
          "name": "",
          "type": "bool"
        }
      ],
      "payable": true,
      "stateMutability": "payable",
      "type": "function"
    },
    {
      "constant": false,
      "inputs": [
        {
          "name": "data",
          "type": "uint256[]"
        }
      ],
      "name": "multiBurn",
      "outputs": [
        {
          "name": "",
          "type": "bool"
        }
      ],
      "payable": false,
      "stateMutability": "nonpayable",
      "type": "function"
    },
    {
      "constant": false,
      "inputs": [
        {
          "name": "_from",
          "type": "address",
          "indexed": true
        },
        {
          "indexed": true,
          "name": "_to",
          "type": "address"
        },
        {
          "indexed": false,
          "name": "_value",
          "type": "uint256"
        }
      ],
      "name": "OwnerTransfer",
      "outputs": [],
      "payable": false,
      "stateMutability": "nonpayable",
      "type": "event",
      "anonymous": false
    },
    {
      "anonymous": false,
      "inputs": [
        {
          "indexed": false,
          "name": "_transferTime",
          "type": "uint256"
        },
        {
          "indexed": true,
          "name": "_to",
          "type": "address"
        },
        {
          "indexed": false,
          "name": "_value",
          "type": "uint256"
        }
      ],
      "name": "TransferTimeSet",
      "type": "event"
    },
    {
      "anonymous": false,
      "inputs": [
        {
          "indexed": true,
          "name": "previousOwner",
          "type": "address"
        },
        {
          "indexed": true,
          "name": "newOwner",
          "type": "address"
        }
      ],
      "name": "OwnershipTransferred",
      "type": "event"
    },
    {
      "anonymous": false,
      "inputs": [
        {
          "indexed": true,
          "name": "owner",
          "type": "address"
        },
        {
          "indexed": true,
          "name": "spender",
          "type": "address"
        },
        {
          "indexed": false,
          "name": "value",
          "type": "uint256"
        }
      ],
      "name": "Approval",
      "type": "event"
    },
    {
      "anonymous": false,
      "inputs": [
        {
          "indexed": true,
          "name": "from",
          "type": "address"
        },
        {
          "indexed": true,
          "name": "to",
          "type": "address"
        },
        {
          "indexed": false,
          "name": "value",
          "type": "uint256"
        }
      ],
      "name": "Transfer",
      "type": "event"
    },
    {
      "anonymous": false,
      "inputs": [
        {
          "indexed": true,
          "name": "from",
          "type": "address"
        },
        {
          "indexed": true,
          "name": "to",
          "type": "address"
        },
        {
          "indexed": false,
          "name": "value",
          "type": "uint256"
        }
      ],
      "name": "Transfer",
      "type": "event"
    }
  ],
  "bytecode": "0x60606040526000600655635a2d21c06007556008805460ff1916905560038054600160a060020a033316600160a060020a03199091161790556111cc806100476000396000f3006060604052600436106101745763ffffffff7c010000000000000000000000000000000000000000000000000000000060003504166302548866811461017957806306fdde031461019e578063095ea7b31461022857806318160ddd1461025e57806323b872dd14610271578063313ce5671461029957806340c10f19146102ac5780634a393149146102d057806366188463146102f85780636a7254a31461031a57806370a08231146103495780637362377b14610368578063808a69e21461037b5780638da5cb5b1461038e57806395d89b41146103a15780639a0e4ebb146103b45780639dc29fac146104035780639eabebe714610425578063a89c8c5e1461043b578063a9059cbb14610460578063c10b935814610482578063d73dd62314610495578063da682aeb146102d0578063dd62ed3e146104b7578063e08e433a146104dc578063e3e5439c146104ef578063f2fde38b14610502578063f48c305414610521578063fb6a53d214610535575b600080fd5b341561018457600080fd5b61018c610584565b60405190815260200160405180910390f35b34156101a957600080fd5b6101b1610593565b60405160208082528190810183818151815260200191508051906020019080838360005b838110156101ed5780820151838201526020016101d5565b50505050905090810190601f16801561021a5780820380516001836020036101000a031916815260200191505b509250505060405180910390f35b341561023357600080fd5b61024a600160a060020a03600435166024356105ca565b604051901515815260200160405180910390f35b341561026957600080fd5b61018c610636565b341561027c57600080fd5b61024a600160a060020a036004358116906024351660443561063c565b34156102a457600080fd5b61018c6107a8565b34156102b757600080fd5b6102ce600160a060020a03600435166024356107ad565b005b34156102db57600080fd5b61024a600160a060020a0360043581169060243516604435610890565b341561030357600080fd5b61024a600160a060020a0360043516602435610899565b341561032557600080fd5b61032d610993565b604051600160a060020a03909116815260200160405180910390f35b341561035457600080fd5b61018c600160a060020a03600435166109a2565b341561037357600080fd5b6102ce6109bd565b341561038657600080fd5b61024a610a17565b341561039957600080fd5b61032d610a20565b34156103ac57600080fd5b6101b1610a2f565b34156103bf57600080fd5b6102ce6004602481358181019083013580602081810201604051908101604052809392919081815260200183836020028082843750949650610a6695505050505050565b341561040e57600080fd5b6102ce600160a060020a0360043516602435610b0a565b341561043057600080fd5b6102ce600435610bc1565b341561044657600080fd5b6102ce600160a060020a0360043581169060243516610c17565b341561046b57600080fd5b61024a600160a060020a0360043516602435610cdc565b341561048d57600080fd5b61018c610d68565b34156104a057600080fd5b61024a600160a060020a0360043516602435610d6e565b34156104c257600080fd5b61018c600160a060020a0360043581169060243516610e12565b34156104e757600080fd5b61018c610e3d565b34156104fa57600080fd5b61032d610e43565b341561050d57600080fd5b6102ce600160a060020a0360043516610e52565b61024a600160a060020a0360043516610eed565b341561054057600080fd5b6102ce6004602481358181019083013580602081810201604051908101604052809392919081815260200183836020028082843750949650610ef395505050505050565b6a4bcaef246f07a71370dcfc81565b60408051908101604052601981527f5350454354524520535542534352494245523220544f4b454e00000000000000602082015281565b600160a060020a03338116600081815260026020908152604080832094871680845294909152808220859055909291907f8c5be1e5ebec7d5bd14f71427d1e84f3dd0314c0f7b2291e5b200ac8c7c3b9259085905190815260200160405180910390a350600192915050565b60005481565b60008061064761118e565b60085460ff16151561065857600080fd5b600654610663610f91565b1161066d57600080fd5b600454600160a060020a03868116911614806106965750600554600160a060020a038681169116145b15156106a157600080fd5b6106aa85610f95565b15156106b557600080fd5b60035433600160a060020a0390811691161480156106e0575060075462278d00016106de610f91565b115b156107315784600160a060020a031686600160a060020a03167fd30796a26ac49ebbc2092097f71aea64b94ffc866a5909a76002686237beff608660405190815260200160405180910390a3610792565b600160a060020a0380871660009081526002602090815260408083203390941683529290522054915061076a828563ffffffff610f9d16565b600160a060020a03808816600090815260026020908152604080832033909416835292905220555b61079e86868684610faf565b9695505050505050565b601281565b60035433600160a060020a039081169116146107c857600080fd5b6000546a4bcaef246f07a71370dcfc906107e8908363ffffffff61117816565b11156107f357600080fd5b600160a060020a03821660009081526001602052604090205461081c908263ffffffff61117816565b600160a060020a03831660009081526001602052604081209190915554610849908263ffffffff61117816565b6000908155600160a060020a038316907fddf252ad1be2c89b69c2b068fc378daa952ba7f163c4a11628f55a4df523b3ef8360405190815260200160405180910390a35050565b60019392505050565b600160a060020a033381166000908152600260209081526040808320938616835292905290812054808311156108f657600160a060020a03338116600090815260026020908152604080832093881683529290529081205561092d565b610906818463ffffffff610f9d16565b600160a060020a033381166000908152600260209081526040808320938916835292905220555b600160a060020a0333811660008181526002602090815260408083209489168084529490915290819020547f8c5be1e5ebec7d5bd14f71427d1e84f3dd0314c0f7b2291e5b200ac8c7c3b925915190815260200160405180910390a35060019392505050565b600554600160a060020a031681565b600160a060020a031660009081526001602052604090205490565b60035433600160a060020a039081169116146109d857600080fd5b33600160a060020a03166108fc30600160a060020a0316319081150290604051600060405180830381858888f193505050501515610a1557600080fd5b565b60085460ff1681565b600354600160a060020a031681565b60408051908101604052600481527f5358533200000000000000000000000000000000000000000000000000000000602082015281565b6003546000908190819033600160a060020a03908116911614610a8857600080fd5b600092505b8351831015610b0457600160a060020a03848481518110610aaa57fe5b9060200190602002015116915074010000000000000000000000000000000000000000848481518110610ad957fe5b90602001906020020151811515610aec57fe5b049050610af982826107ad565b600190920191610a8d565b50505050565b60035433600160a060020a03908116911614610b2557600080fd5b600160a060020a038216600090815260016020526040902054610b4e908263ffffffff610f9d16565b600160a060020a03831660009081526001602052604081209190915554610b7b908263ffffffff610f9d16565b6000908155600160a060020a0383167fddf252ad1be2c89b69c2b068fc378daa952ba7f163c4a11628f55a4df523b3ef8360405190815260200160405180910390a35050565b60035433600160a060020a03908116911614610bdc57600080fd5b60068190557f2f3a26ee1c56acc0054ef40fa88f260d5c17a3f2cd01a3bedcc48c2f4da3b33b8160405190815260200160405180910390a150565b60035433600160a060020a03908116911614610c3257600080fd5b60085460ff1615610c4257600080fd5b600160a060020a0381161515610c5757600080fd5b600160a060020a0382161515610c6c57600080fd5b610c7581610f95565b1515610c8057600080fd5b610c8982610f95565b1515610c9457600080fd5b60058054600160a060020a0393841673ffffffffffffffffffffffffffffffffffffffff1991821617909155600480549290931691161790556008805460ff19166001179055565b6000610ce661118e565b60085460ff161515610cf757600080fd5b600654610d02610f91565b11610d0c57600080fd5b600454600160a060020a0385811691161480610d355750600554600160a060020a038581169116145b1515610d4057600080fd5b610d4984610f95565b1515610d5457600080fd5b610d6033858584610faf565b949350505050565b60075481565b600160a060020a033381166000908152600260209081526040808320938616835292905290812054610da6908363ffffffff61117816565b600160a060020a0333811660008181526002602090815260408083209489168084529490915290819020849055919290917f8c5be1e5ebec7d5bd14f71427d1e84f3dd0314c0f7b2291e5b200ac8c7c3b92591905190815260200160405180910390a350600192915050565b600160a060020a03918216600090815260026020908152604080832093909416825291909152205490565b60065481565b600454600160a060020a031681565b60035433600160a060020a03908116911614610e6d57600080fd5b600160a060020a0381161515610e8257600080fd5b600354600160a060020a0380831691167f8be0079c531659141344cd1fd0a4f28419497f9722a3daafe3b4186f6b6457e060405160405180910390a36003805473ffffffffffffffffffffffffffffffffffffffff1916600160a060020a0392909216919091179055565b50600090565b6003546000908190819033600160a060020a03908116911614610f1557600080fd5b600092505b8351831015610b0457600160a060020a03848481518110610f3757fe5b9060200190602002015116915074010000000000000000000000000000000000000000848481518110610f6657fe5b90602001906020020151811515610f7957fe5b049050610f868282610b0a565b600190920191610f1a565b4290565b6000903b1190565b600082821115610fa957fe5b50900390565b60008083610fbc876109a2565b1015610fc757600080fd5b610fe084610fd4886109a2565b9063ffffffff610f9d16565b600160a060020a03871660009081526001602052604090205561101284611006876109a2565b9063ffffffff61117816565b600160a060020a03861660008181526001602052604090819020929092558692509063c0ee0b8a90889087908790518463ffffffff167c01000000000000000000000000000000000000000000000000000000000281526004018084600160a060020a0316600160a060020a0316815260200183815260200180602001828103825283818151815260200191508051906020019080838360005b838110156110c45780820151838201526020016110ac565b50505050905090810190601f1680156110f15780820380516001836020036101000a031916815260200191505b50945050505050600060405180830381600087803b151561111157600080fd5b6102c65a03f1151561112257600080fd5b50505084600160a060020a031686600160a060020a03167fddf252ad1be2c89b69c2b068fc378daa952ba7f163c4a11628f55a4df523b3ef8660405190815260200160405180910390a350600195945050505050565b60008282018381101561118757fe5b9392505050565b602060405190810160405260008152905600a165627a7a723058201d79baa1ce21031cd66b55e62af2154125a0db91615b1a102ad96223dff6a4840029",
  "source": "pragma solidity ^0.4.15;\n\nimport 'zeppelin-solidity/contracts/token/StandardToken.sol';\nimport \"zeppelin-solidity/contracts/ownership/Ownable.sol\";\nimport \"zeppelin-solidity/contracts/math/Math.sol\";\n\nimport './ContractReceiver.sol';\nimport './MiniMeToken.sol';\n\n/// @title SpecToken - Crowdfunding code for the Spectre.ai Token Sale\ncontract SpectreSubscriber2Token is StandardToken, Ownable, TokenController {\n  using SafeMath for uint;\n\n  string public constant name = \"SPECTRE SUBSCRIBER2 TOKEN\";\n  string public constant symbol = \"SXS2\";\n  uint256 public constant decimals = 18;\n\n  uint256 public constant TOTAL_CAP = 91627765897795994966351100;\n\n  address public specDWallet;\n  address public specUWallet;\n\n  uint256 public transferTime = 0;\n  uint256 public saleEnd = 1512907200;\n  bool public tokenAddressesSet = false;\n  uint256 constant D160 = 0x0010000000000000000000000000000000000000000;\n\n  event OwnerTransfer(address indexed _from, address indexed _to, uint256 _value);\n  event TransferTimeSet(uint256 _transferTime);\n\n  modifier isTransferable() {\n    require(tokenAddressesSet);\n    require(getNow() > transferTime);\n    _;\n  }\n\n  function setTransferTime(uint256 _transferTime) onlyOwner {\n    transferTime = _transferTime;\n    TransferTimeSet(transferTime);\n  }\n\n  function mint(address _to, uint256 _amount) onlyOwner {\n    require(totalSupply.add(_amount) <= TOTAL_CAP);\n    balances[_to] = balances[_to].add(_amount);\n    totalSupply = totalSupply.add(_amount);\n    Transfer(0, _to, _amount);\n  }\n\n  function burn(address _to, uint256 _amount) onlyOwner {\n    balances[_to] = balances[_to].sub(_amount);\n    totalSupply = totalSupply.sub(_amount);\n    Transfer(_to, 0, _amount);\n  }\n\n  //@notice Function to configure contract addresses\n  //@param `_specUWallet` - address of Utility contract\n  //@param `_specDWallet` - address of Dividend contract\n  function setTokenAddresses(address _specUWallet, address _specDWallet) onlyOwner public {\n    require(!tokenAddressesSet);\n    require(_specDWallet != address(0));\n    require(_specUWallet != address(0));\n    require(isContract(_specDWallet));\n    require(isContract(_specUWallet));\n    specUWallet = _specUWallet;\n    specDWallet = _specDWallet;\n    tokenAddressesSet = true;\n  }\n\n  function withdrawEther() public onlyOwner {\n    //In case ether is sent, even though not refundable\n    msg.sender.transfer(this.balance);\n  }\n\n  //@notice Standard function transfer similar to ERC20 transfer with no _data .\n  //@notice Added due to backwards compatibility reasons .\n  function transfer(address _to, uint256 _value) isTransferable returns (bool success) {\n    //standard function transfer similar to ERC20 transfer with no _data\n    //added due to backwards compatibility reasons\n    require(_to == specDWallet || _to == specUWallet);\n    require(isContract(_to));\n    bytes memory empty;\n    return transferToContract(msg.sender, _to, _value, empty);\n  }\n\n  //@notice assemble the given address bytecode. If bytecode exists then the _addr is a contract.\n  function isContract(address _addr) private returns (bool is_contract) {\n    uint256 length;\n    assembly {\n      //retrieve the size of the code on target address, this needs assembly\n      length := extcodesize(_addr)\n    }\n    return (length>0);\n  }\n\n  //@notice function that is called when transaction target is a contract\n  function transferToContract(address _from, address _to, uint256 _value, bytes _data) internal returns (bool success) {\n    require(balanceOf(_from) >= _value);\n    balances[_from] = balanceOf(_from).sub(_value);\n    balances[_to] = balanceOf(_to).add(_value);\n    ContractReceiver receiver = ContractReceiver(_to);\n    receiver.tokenFallback(_from, _value, _data);\n    Transfer(_from, _to, _value);\n    return true;\n  }\n\n  /**\n   * @dev Transfer tokens from one address to another - needed for owner transfers\n   * @param _from address The address which you want to send tokens from\n   * @param _to address The address which you want to transfer to\n   * @param _value uint256 the amount of tokens to be transferred\n   */\n  function transferFrom(address _from, address _to, uint256 _value) public isTransferable returns (bool) {\n    require(_to == specDWallet || _to == specUWallet);\n    require(isContract(_to));\n    //owner can transfer tokens on behalf of users after 28 days\n    if (msg.sender == owner && getNow() > saleEnd + 30 days) {\n      OwnerTransfer(_from, _to, _value);\n    } else {\n      uint256 _allowance = allowed[_from][msg.sender];\n      allowed[_from][msg.sender] = _allowance.sub(_value);\n    }\n\n    //Now make the transfer\n    bytes memory empty;\n    return transferToContract(_from, _to, _value, empty);\n\n  }\n\n  // data is an array of uint256s. Each uint256 represents a address and amount.\n  // The 160 LSB is the address that wants to be added\n  // The 96 MSB is the amount of to be minted for that address\n  function multiMint(uint256[] data) public onlyOwner {\n    for (uint256 i = 0; i < data.length; i++) {\n      address addr = address(data[i] & (D160 - 1));\n      uint256 amount = data[i] / D160;\n      mint(addr, amount);\n    }\n  }\n\n  // data is an array of uint256s. Each uint256 represents a address and amount.\n  // The 160 LSB is the address that wants to be added\n  // The 96 MSB is the amount of to be minted for that address\n  function multiBurn(uint256[] data) public onlyOwner {\n    for (uint256 i = 0; i < data.length; i++) {\n      address addr = address(data[i] & (D160 - 1));\n      uint256 amount = data[i] / D160;\n      burn(addr, amount);\n    }\n  }\n\n  /////////////////\n  // TokenController interface\n  /////////////////\n\n  /// @notice `proxyPayment()` returns false, meaning ether is not accepted at\n  ///  the token address, only the address of FiinuCrowdSale\n  /// @param _owner The address that will hold the newly created tokens\n\n  function proxyPayment(address _owner) payable returns(bool) {\n      return false;\n  }\n\n  /// @notice Notifies the controller about a transfer, for this Campaign all\n  ///  transfers are allowed by default and no extra notifications are needed\n  /// @param _from The origin of the transfer\n  /// @param _to The destination of the transfer\n  /// @param _amount The amount of the transfer\n  /// @return False if the controller does not authorize the transfer\n  function onTransfer(address _from, address _to, uint _amount) returns(bool) {\n      return true;\n  }\n\n  /// @notice Notifies the controller about an approval, for this Campaign all\n  ///  approvals are allowed by default and no extra notifications are needed\n  /// @param _owner The address that calls `approve()`\n  /// @param _spender The spender in the `approve()` call\n  /// @param _amount The amount in the `approve()` call\n  /// @return False if the controller does not authorize the approval\n  function onApprove(address _owner, address _spender, uint _amount)\n      returns(bool)\n  {\n      return true;\n  }\n\n  function getNow() constant internal returns (uint256) {\n    return now;\n  }\n\n}\n",
  "sourcePath": "/Users/adamdossa/Development/Ethereum/spectre-tokensale/contracts/SpectreSubscriber2Token.sol",
  "compiler": {
    "name": "solc",
    "version": "0.4.18+commit.9cf6e910.Emscripten.clang"
  },
  "schemaVersion": "1.0.1",
  "updatedAt": "2017-12-11T16:15:15.109Z"
}