{
  "contractName": "SpectreSubscriberToken",
  "abi": [
    {
      "constant": true,
      "inputs": [],
      "name": "TOKENS_AVAILABLE",
      "outputs": [
        {
          "name": "",
          "type": "uint256"
        }
      ],
      "payable": false,
      "stateMutability": "view",
      "type": "function"
    },
    {
      "constant": true,
      "inputs": [],
      "name": "name",
      "outputs": [
        {
          "name": "",
          "type": "string"
        }
      ],
      "payable": false,
      "stateMutability": "view",
      "type": "function"
    },
    {
      "constant": false,
      "inputs": [
        {
          "name": "_spender",
          "type": "address"
        },
        {
          "name": "_value",
          "type": "uint256"
        }
      ],
      "name": "approve",
      "outputs": [
        {
          "name": "",
          "type": "bool"
        }
      ],
      "payable": false,
      "stateMutability": "nonpayable",
      "type": "function"
    },
    {
      "constant": true,
      "inputs": [],
      "name": "WHITELIST_PERIOD",
      "outputs": [
        {
          "name": "",
          "type": "uint256"
        }
      ],
      "payable": false,
      "stateMutability": "view",
      "type": "function"
    },
    {
      "constant": true,
      "inputs": [],
      "name": "totalSupply",
      "outputs": [
        {
          "name": "",
          "type": "uint256"
        }
      ],
      "payable": false,
      "stateMutability": "view",
      "type": "function"
    },
    {
      "constant": true,
      "inputs": [],
      "name": "presaleEnd",
      "outputs": [
        {
          "name": "",
          "type": "uint256"
        }
      ],
      "payable": false,
      "stateMutability": "view",
      "type": "function"
    },
    {
      "constant": false,
      "inputs": [
        {
          "name": "_from",
          "type": "address"
        },
        {
          "name": "_to",
          "type": "address"
        },
        {
          "name": "_value",
          "type": "uint256"
        }
      ],
      "name": "transferFrom",
      "outputs": [
        {
          "name": "",
          "type": "bool"
        }
      ],
      "payable": false,
      "stateMutability": "nonpayable",
      "type": "function"
    },
    {
      "constant": true,
      "inputs": [],
      "name": "numberOfTokensLeft",
      "outputs": [
        {
          "name": "",
          "type": "uint256"
        }
      ],
      "payable": false,
      "stateMutability": "view",
      "type": "function"
    },
    {
      "constant": true,
      "inputs": [],
      "name": "decimals",
      "outputs": [
        {
          "name": "",
          "type": "uint256"
        }
      ],
      "payable": false,
      "stateMutability": "view",
      "type": "function"
    },
    {
      "constant": false,
      "inputs": [
        {
          "name": "data",
          "type": "uint256[]"
        }
      ],
      "name": "multiSetWhiteList",
      "outputs": [],
      "payable": false,
      "stateMutability": "nonpayable",
      "type": "function"
    },
    {
      "constant": false,
      "inputs": [],
      "name": "unpause",
      "outputs": [],
      "payable": false,
      "stateMutability": "nonpayable",
      "type": "function"
    },
    {
      "constant": true,
      "inputs": [],
      "name": "BONUS_SLAB",
      "outputs": [
        {
          "name": "",
          "type": "uint256"
        }
      ],
      "payable": false,
      "stateMutability": "view",
      "type": "function"
    },
    {
      "constant": false,
      "inputs": [
        {
          "name": "_from",
          "type": "address"
        },
        {
          "name": "_to",
          "type": "address"
        },
        {
          "name": "_amount",
          "type": "uint256"
        }
      ],
      "name": "onTransfer",
      "outputs": [
        {
          "name": "",
          "type": "bool"
        }
      ],
      "payable": false,
      "stateMutability": "nonpayable",
      "type": "function"
    },
    {
      "constant": false,
      "inputs": [],
      "name": "refund",
      "outputs": [],
      "payable": false,
      "stateMutability": "nonpayable",
      "type": "function"
    },
    {
      "constant": true,
      "inputs": [],
      "name": "paused",
      "outputs": [
        {
          "name": "",
          "type": "bool"
        }
      ],
      "payable": false,
      "stateMutability": "view",
      "type": "function"
    },
    {
      "constant": true,
      "inputs": [],
      "name": "discountSaleEnd",
      "outputs": [
        {
          "name": "",
          "type": "uint256"
        }
      ],
      "payable": false,
      "stateMutability": "view",
      "type": "function"
    },
    {
      "constant": false,
      "inputs": [
        {
          "name": "_spender",
          "type": "address"
        },
        {
          "name": "_subtractedValue",
          "type": "uint256"
        }
      ],
      "name": "decreaseApproval",
      "outputs": [
        {
          "name": "success",
          "type": "bool"
        }
      ],
      "payable": false,
      "stateMutability": "nonpayable",
      "type": "function"
    },
    {
      "constant": true,
      "inputs": [],
      "name": "specUWallet",
      "outputs": [
        {
          "name": "",
          "type": "address"
        }
      ],
      "payable": false,
      "stateMutability": "view",
      "type": "function"
    },
    {
      "constant": true,
      "inputs": [
        {
          "name": "_owner",
          "type": "address"
        }
      ],
      "name": "balanceOf",
      "outputs": [
        {
          "name": "balance",
          "type": "uint256"
        }
      ],
      "payable": false,
      "stateMutability": "view",
      "type": "function"
    },
    {
      "constant": false,
      "inputs": [
        {
          "name": "_presaleStart",
          "type": "uint256"
        },
        {
          "name": "_presaleEnd",
          "type": "uint256"
        },
        {
          "name": "_saleStart",
          "type": "uint256"
        },
        {
          "name": "_saleEnd",
          "type": "uint256"
        },
        {
          "name": "_discountSaleEnd",
          "type": "uint256"
        }
      ],
      "name": "configure",
      "outputs": [],
      "payable": false,
      "stateMutability": "nonpayable",
      "type": "function"
    },
    {
      "constant": false,
      "inputs": [],
      "name": "withdrawEther",
      "outputs": [],
      "payable": false,
      "stateMutability": "nonpayable",
      "type": "function"
    },
    {
      "constant": false,
      "inputs": [],
      "name": "setRefundable",
      "outputs": [],
      "payable": false,
      "stateMutability": "nonpayable",
      "type": "function"
    },
    {
      "constant": true,
      "inputs": [],
      "name": "MIN_CAP",
      "outputs": [
        {
          "name": "",
          "type": "uint256"
        }
      ],
      "payable": false,
      "stateMutability": "view",
      "type": "function"
    },
    {
      "constant": true,
      "inputs": [],
      "name": "tokenAddressesSet",
      "outputs": [
        {
          "name": "",
          "type": "bool"
        }
      ],
      "payable": false,
      "stateMutability": "view",
      "type": "function"
    },
    {
      "constant": false,
      "inputs": [],
      "name": "pause",
      "outputs": [],
      "payable": false,
      "stateMutability": "nonpayable",
      "type": "function"
    },
    {
      "constant": true,
      "inputs": [],
      "name": "configured",
      "outputs": [
        {
          "name": "",
          "type": "bool"
        }
      ],
      "payable": false,
      "stateMutability": "view",
      "type": "function"
    },
    {
      "constant": true,
      "inputs": [],
      "name": "owner",
      "outputs": [
        {
          "name": "",
          "type": "address"
        }
      ],
      "payable": false,
      "stateMutability": "view",
      "type": "function"
    },
    {
      "constant": true,
      "inputs": [],
      "name": "symbol",
      "outputs": [
        {
          "name": "",
          "type": "string"
        }
      ],
      "payable": false,
      "stateMutability": "view",
      "type": "function"
    },
    {
      "constant": true,
      "inputs": [
        {
          "name": "",
          "type": "address"
        }
      ],
      "name": "whitelist",
      "outputs": [
        {
          "name": "",
          "type": "uint256"
        }
      ],
      "payable": false,
      "stateMutability": "view",
      "type": "function"
    },
    {
      "constant": true,
      "inputs": [],
      "name": "MIN_FUND_AMOUNT",
      "outputs": [
        {
          "name": "",
          "type": "uint256"
        }
      ],
      "payable": false,
      "stateMutability": "view",
      "type": "function"
    },
    {
      "constant": false,
      "inputs": [
        {
          "name": "_specUWallet",
          "type": "address"
        },
        {
          "name": "_specDWallet",
          "type": "address"
        }
      ],
      "name": "setTokenAddresses",
      "outputs": [],
      "payable": false,
      "stateMutability": "nonpayable",
      "type": "function"
    },
    {
      "constant": false,
      "inputs": [
        {
          "name": "_to",
          "type": "address"
        },
        {
          "name": "_value",
          "type": "uint256"
        }
      ],
      "name": "transfer",
      "outputs": [
        {
          "name": "success",
          "type": "bool"
        }
      ],
      "payable": false,
      "stateMutability": "nonpayable",
      "type": "function"
    },
    {
      "constant": true,
      "inputs": [],
      "name": "saleStart",
      "outputs": [
        {
          "name": "",
          "type": "uint256"
        }
      ],
      "payable": false,
      "stateMutability": "view",
      "type": "function"
    },
    {
      "constant": false,
      "inputs": [],
      "name": "fundContract",
      "outputs": [],
      "payable": true,
      "stateMutability": "payable",
      "type": "function"
    },
    {
      "constant": true,
      "inputs": [],
      "name": "refundable",
      "outputs": [
        {
          "name": "",
          "type": "bool"
        }
      ],
      "payable": false,
      "stateMutability": "view",
      "type": "function"
    },
    {
      "constant": true,
      "inputs": [],
      "name": "specWallet",
      "outputs": [
        {
          "name": "",
          "type": "address"
        }
      ],
      "payable": false,
      "stateMutability": "view",
      "type": "function"
    },
    {
      "constant": true,
      "inputs": [],
      "name": "saleEnd",
      "outputs": [
        {
          "name": "",
          "type": "uint256"
        }
      ],
      "payable": false,
      "stateMutability": "view",
      "type": "function"
    },
    {
      "constant": false,
      "inputs": [
        {
          "name": "_subscriber",
          "type": "address"
        },
        {
          "name": "_amount",
          "type": "uint256"
        }
      ],
      "name": "setWhiteList",
      "outputs": [],
      "payable": false,
      "stateMutability": "nonpayable",
      "type": "function"
    },
    {
      "constant": true,
      "inputs": [],
      "name": "TOKEN_PRICE",
      "outputs": [
        {
          "name": "",
          "type": "uint256"
        }
      ],
      "payable": false,
      "stateMutability": "view",
      "type": "function"
    },
    {
      "constant": false,
      "inputs": [
        {
          "name": "_spender",
          "type": "address"
        },
        {
          "name": "_addedValue",
          "type": "uint256"
        }
      ],
      "name": "increaseApproval",
      "outputs": [
        {
          "name": "success",
          "type": "bool"
        }
      ],
      "payable": false,
      "stateMutability": "nonpayable",
      "type": "function"
    },
    {
      "constant": true,
      "inputs": [
        {
          "name": "",
          "type": "address"
        }
      ],
      "name": "bonus",
      "outputs": [
        {
          "name": "",
          "type": "uint256"
        }
      ],
      "payable": false,
      "stateMutability": "view",
      "type": "function"
    },
    {
      "constant": false,
      "inputs": [
        {
          "name": "_owner",
          "type": "address"
        },
        {
          "name": "_spender",
          "type": "address"
        },
        {
          "name": "_amount",
          "type": "uint256"
        }
      ],
      "name": "onApprove",
      "outputs": [
        {
          "name": "",
          "type": "bool"
        }
      ],
      "payable": false,
      "stateMutability": "nonpayable",
      "type": "function"
    },
    {
      "constant": true,
      "inputs": [
        {
          "name": "_owner",
          "type": "address"
        },
        {
          "name": "_spender",
          "type": "address"
        }
      ],
      "name": "allowance",
      "outputs": [
        {
          "name": "remaining",
          "type": "uint256"
        }
      ],
      "payable": false,
      "stateMutability": "view",
      "type": "function"
    },
    {
      "constant": true,
      "inputs": [],
      "name": "presaleStart",
      "outputs": [
        {
          "name": "",
          "type": "uint256"
        }
      ],
      "payable": false,
      "stateMutability": "view",
      "type": "function"
    },
    {
      "constant": true,
      "inputs": [],
      "name": "specDWallet",
      "outputs": [
        {
          "name": "",
          "type": "address"
        }
      ],
      "payable": false,
      "stateMutability": "view",
      "type": "function"
    },
    {
      "constant": false,
      "inputs": [
        {
          "name": "newOwner",
          "type": "address"
        }
      ],
      "name": "transferOwnership",
      "outputs": [],
      "payable": false,
      "stateMutability": "nonpayable",
      "type": "function"
    },
    {
      "constant": false,
      "inputs": [
        {
          "name": "_owner",
          "type": "address"
        }
      ],
      "name": "proxyPayment",
      "outputs": [
        {
          "name": "",
          "type": "bool"
        }
      ],
      "payable": true,
      "stateMutability": "payable",
      "type": "function"
    },
    {
      "inputs": [
        {
          "name": "_specWallet",
          "type": "address"
        }
      ],
      "payable": false,
      "stateMutability": "nonpayable",
      "type": "constructor"
    },
    {
      "payable": true,
      "stateMutability": "payable",
      "type": "fallback"
    },
    {
      "anonymous": false,
      "inputs": [
        {
          "indexed": true,
          "name": "_to",
          "type": "address"
        },
        {
          "indexed": false,
          "name": "_value",
          "type": "uint256"
        }
      ],
      "name": "Refund",
      "type": "event"
    },
    {
      "anonymous": false,
      "inputs": [
        {
          "indexed": true,
          "name": "_from",
          "type": "address"
        },
        {
          "indexed": false,
          "name": "_value",
          "type": "uint256"
        },
        {
          "indexed": false,
          "name": "_total",
          "type": "uint256"
        }
      ],
      "name": "ContractFunded",
      "type": "event"
    },
    {
      "anonymous": false,
      "inputs": [],
      "name": "Refundable",
      "type": "event"
    },
    {
      "anonymous": false,
      "inputs": [
        {
          "indexed": true,
          "name": "_subscriber",
          "type": "address"
        },
        {
          "indexed": false,
          "name": "_value",
          "type": "uint256"
        }
      ],
      "name": "WhiteListSet",
      "type": "event"
    },
    {
      "anonymous": false,
      "inputs": [
        {
          "indexed": true,
          "name": "_from",
          "type": "address"
        },
        {
          "indexed": true,
          "name": "_to",
          "type": "address"
        },
        {
          "indexed": false,
          "name": "_value",
          "type": "uint256"
        }
      ],
      "name": "OwnerTransfer",
      "type": "event"
    },
    {
      "anonymous": false,
      "inputs": [],
      "name": "Pause",
      "type": "event"
    },
    {
      "anonymous": false,
      "inputs": [],
      "name": "Unpause",
      "type": "event"
    },
    {
      "anonymous": false,
      "inputs": [
        {
          "indexed": true,
          "name": "previousOwner",
          "type": "address"
        },
        {
          "indexed": true,
          "name": "newOwner",
          "type": "address"
        }
      ],
      "name": "OwnershipTransferred",
      "type": "event"
    },
    {
      "anonymous": false,
      "inputs": [
        {
          "indexed": true,
          "name": "owner",
          "type": "address"
        },
        {
          "indexed": true,
          "name": "spender",
          "type": "address"
        },
        {
          "indexed": false,
          "name": "value",
          "type": "uint256"
        }
      ],
      "name": "Approval",
      "type": "event"
    },
    {
      "anonymous": false,
      "inputs": [
        {
          "indexed": true,
          "name": "from",
          "type": "address"
        },
        {
          "indexed": true,
          "name": "to",
          "type": "address"
        },
        {
          "indexed": false,
          "name": "value",
          "type": "uint256"
        }
      ],
      "name": "Transfer",
      "type": "event"
    }
  ],
  "bytecode": "0x60606040526000600360146101000a81548160ff0219169083151502179055506000600660146101000a81548160ff0219169083151502179055506000600660156101000a81548160ff0219169083151502179055506000600660166101000a81548160ff02191690831515021790555034156200007c57600080fd5b604051602080620035d78339810160405280805190602001909190505033600360006101000a81548173ffffffffffffffffffffffffffffffffffffffff021916908373ffffffffffffffffffffffffffffffffffffffff160217905550600073ffffffffffffffffffffffffffffffffffffffff168173ffffffffffffffffffffffffffffffffffffffff16141515156200011757600080fd5b80600460006101000a81548173ffffffffffffffffffffffffffffffffffffffff021916908373ffffffffffffffffffffffffffffffffffffffff160217905550620001766200017d64010000000002620024e0176401000000009004565b5062000240565b600360009054906101000a900473ffffffffffffffffffffffffffffffffffffffff1673ffffffffffffffffffffffffffffffffffffffff163373ffffffffffffffffffffffffffffffffffffffff16141515620001da57600080fd5b600360149054906101000a900460ff16151515620001f757600080fd5b6001600360146101000a81548160ff0219169083151502179055507f6985a02210a168e66602d3235cb6db0e70f92b3ba4d376a33c0f3d9434bff62560405160405180910390a1565b61338780620002506000396000f30060606040526004361061023b576000357c0100000000000000000000000000000000000000000000000000000000900463ffffffff168063062fe08e146102de57806306fdde0314610307578063095ea7b3146103955780630ec4fb0a146103ef57806318160ddd14610418578063229f3e291461044157806323b872dd1461046a57806327ea06b8146104e3578063313ce5671461050c5780633c5972ff146105355780633f4ba83a1461058f5780634051ed26146105a45780634a393149146105cd578063590e1ae3146106465780635c975abb1461065b57806361a65e2a1461068857806366188463146106b15780636a7254a31461070b57806370a08231146107605780637126a855146107ad5780637362377b146107f45780637ba7dcea14610809578063801db9cc1461081e578063808a69e2146108475780638456cb59146108745780638772a23a146108895780638da5cb5b146108b657806395d89b411461090b5780639b19251a14610999578063a5e558a3146109e6578063a89c8c5e14610a0f578063a9059cbb14610a67578063ab0bcc4114610ac1578063bd097e2114610aea578063bf89662d14610af4578063bfd0a55314610b21578063c10b935814610b76578063c156776a14610b9f578063d2d8cb6714610be1578063d73dd62314610c0a578063d8cb4aa314610c64578063da682aeb14610cb1578063dd62ed3e14610d2a578063de8801e514610d96578063e3e5439c14610dbf578063f2fde38b14610e14578063f48c305414610e4d575b600360149054906101000a900460ff1615151561025757600080fd5b670de0b6b3a7640000341015151561026e57600080fd5b600754610279610e93565b10158015610290575060085461028d610e93565b11155b156102a25761029d610e9b565b6102dc565b6009546102ad610e93565b101580156102c45750600a546102c1610e93565b11155b156102d6576102d1611378565b6102db565b600080fd5b5b005b34156102e957600080fd5b6102f1611618565b6040518082815260200191505060405180910390f35b341561031257600080fd5b61031a611626565b6040518080602001828103825283818151815260200191508051906020019080838360005b8381101561035a57808201518184015260208101905061033f565b50505050905090810190601f1680156103875780820380516001836020036101000a031916815260200191505b509250505060405180910390f35b34156103a057600080fd5b6103d5600480803573ffffffffffffffffffffffffffffffffffffffff1690602001909190803590602001909190505061165f565b604051808215151515815260200191505060405180910390f35b34156103fa57600080fd5b610402611751565b6040518082815260200191505060405180910390f35b341561042357600080fd5b61042b611758565b6040518082815260200191505060405180910390f35b341561044c57600080fd5b61045461175e565b6040518082815260200191505060405180910390f35b341561047557600080fd5b6104c9600480803573ffffffffffffffffffffffffffffffffffffffff1690602001909190803573ffffffffffffffffffffffffffffffffffffffff16906020019091908035906020019091905050611764565b604051808215151515815260200191505060405180910390f35b34156104ee57600080fd5b6104f6611a86565b6040518082815260200191505060405180910390f35b341561051757600080fd5b61051f611aac565b6040518082815260200191505060405180910390f35b341561054057600080fd5b61058d600480803590602001908201803590602001908080602002602001604051908101604052809392919081815260200183836020028082843782019150505050505091905050611ab1565b005b341561059a57600080fd5b6105a2611bab565b005b34156105af57600080fd5b6105b7611c86565b6040518082815260200191505060405180910390f35b34156105d857600080fd5b61062c600480803573ffffffffffffffffffffffffffffffffffffffff1690602001909190803573ffffffffffffffffffffffffffffffffffffffff16906020019091908035906020019091905050611c94565b604051808215151515815260200191505060405180910390f35b341561065157600080fd5b610659611ca1565b005b341561066657600080fd5b61066e611ea7565b604051808215151515815260200191505060405180910390f35b341561069357600080fd5b61069b611eba565b6040518082815260200191505060405180910390f35b34156106bc57600080fd5b6106f1600480803573ffffffffffffffffffffffffffffffffffffffff16906020019091908035906020019091905050611ec0565b604051808215151515815260200191505060405180910390f35b341561071657600080fd5b61071e612151565b604051808273ffffffffffffffffffffffffffffffffffffffff1673ffffffffffffffffffffffffffffffffffffffff16815260200191505060405180910390f35b341561076b57600080fd5b610797600480803573ffffffffffffffffffffffffffffffffffffffff16906020019091905050612177565b6040518082815260200191505060405180910390f35b34156107b857600080fd5b6107f260048080359060200190919080359060200190919080359060200190919080359060200190919080359060200190919050506121c0565b005b34156107ff57600080fd5b6108076122f4565b005b341561081457600080fd5b61081c6123c5565b005b341561082957600080fd5b6108316124c0565b6040518082815260200191505060405180910390f35b341561085257600080fd5b61085a6124cd565b604051808215151515815260200191505060405180910390f35b341561087f57600080fd5b6108876124e0565b005b341561089457600080fd5b61089c6125a1565b604051808215151515815260200191505060405180910390f35b34156108c157600080fd5b6108c96125b4565b604051808273ffffffffffffffffffffffffffffffffffffffff1673ffffffffffffffffffffffffffffffffffffffff16815260200191505060405180910390f35b341561091657600080fd5b61091e6125da565b6040518080602001828103825283818151815260200191508051906020019080838360005b8381101561095e578082015181840152602081019050610943565b50505050905090810190601f16801561098b5780820380516001836020036101000a031916815260200191505b509250505060405180910390f35b34156109a457600080fd5b6109d0600480803573ffffffffffffffffffffffffffffffffffffffff16906020019091905050612613565b6040518082815260200191505060405180910390f35b34156109f157600080fd5b6109f961262b565b6040518082815260200191505060405180910390f35b3415610a1a57600080fd5b610a65600480803573ffffffffffffffffffffffffffffffffffffffff1690602001909190803573ffffffffffffffffffffffffffffffffffffffff16906020019091905050612637565b005b3415610a7257600080fd5b610aa7600480803573ffffffffffffffffffffffffffffffffffffffff1690602001909190803590602001909190505061280e565b604051808215151515815260200191505060405180910390f35b3415610acc57600080fd5b610ad4612941565b6040518082815260200191505060405180910390f35b610af2612947565b005b3415610aff57600080fd5b610b07612a6a565b604051808215151515815260200191505060405180910390f35b3415610b2c57600080fd5b610b34612a7d565b604051808273ffffffffffffffffffffffffffffffffffffffff1673ffffffffffffffffffffffffffffffffffffffff16815260200191505060405180910390f35b3415610b8157600080fd5b610b89612aa3565b6040518082815260200191505060405180910390f35b3415610baa57600080fd5b610bdf600480803573ffffffffffffffffffffffffffffffffffffffff16906020019091908035906020019091905050612aa9565b005b3415610bec57600080fd5b610bf4612be7565b6040518082815260200191505060405180910390f35b3415610c1557600080fd5b610c4a600480803573ffffffffffffffffffffffffffffffffffffffff16906020019091908035906020019091905050612bf2565b604051808215151515815260200191505060405180910390f35b3415610c6f57600080fd5b610c9b600480803573ffffffffffffffffffffffffffffffffffffffff16906020019091905050612dee565b6040518082815260200191505060405180910390f35b3415610cbc57600080fd5b610d10600480803573ffffffffffffffffffffffffffffffffffffffff1690602001909190803573ffffffffffffffffffffffffffffffffffffffff16906020019091908035906020019091905050612e06565b604051808215151515815260200191505060405180910390f35b3415610d3557600080fd5b610d80600480803573ffffffffffffffffffffffffffffffffffffffff1690602001909190803573ffffffffffffffffffffffffffffffffffffffff16906020019091905050612e13565b6040518082815260200191505060405180910390f35b3415610da157600080fd5b610da9612e9a565b6040518082815260200191505060405180910390f35b3415610dca57600080fd5b610dd2612ea0565b604051808273ffffffffffffffffffffffffffffffffffffffff1673ffffffffffffffffffffffffffffffffffffffff16815260200191505060405180910390f35b3415610e1f57600080fd5b610e4b600480803573ffffffffffffffffffffffffffffffffffffffff16906020019091905050612ec6565b005b610e79600480803573ffffffffffffffffffffffffffffffffffffffff1690602001909190505061301e565b604051808215151515815260200191505060405180910390f35b600042905090565b60008060008060008060006203f48060075401610eb6610e93565b101561103b576000600c60003373ffffffffffffffffffffffffffffffffffffffff1673ffffffffffffffffffffffffffffffffffffffff16815260200190815260200160002054111515610f0a57600080fd5b610f706064610f62605f600c60003373ffffffffffffffffffffffffffffffffffffffff1673ffffffffffffffffffffffffffffffffffffffff1681526020019081526020016000205461302890919063ffffffff16565b61305b90919063ffffffff16565b9650610fd86064610fca6078600c60003373ffffffffffffffffffffffffffffffffffffffff1673ffffffffffffffffffffffffffffffffffffffff1681526020019081526020016000205461302890919063ffffffff16565b61305b90919063ffffffff16565b9550863410158015610fea5750853411155b1515610ff557600080fd5b6000600c60003373ffffffffffffffffffffffffffffffffffffffff1673ffffffffffffffffffffffffffffffffffffffff168152602001908152602001600020819055505b61106b6601c6bf5263400061105d6012600a0a3461302890919063ffffffff16565b61305b90919063ffffffff16565b9450600093506012600a0a6305f5e10002600054101561111e5761109b6012600a0a6305f5e10002600054613076565b92506110a7838661308f565b91506110b38583613076565b90506110dc60646110ce60218561302890919063ffffffff16565b61305b90919063ffffffff16565b935061111761110860646110fa60168561302890919063ffffffff16565b61305b90919063ffffffff16565b856130a890919063ffffffff16565b9350611148565b611145606461113760168861302890919063ffffffff16565b61305b90919063ffffffff16565b93505b61115b84866130a890919063ffffffff16565b94506111af84600d60003373ffffffffffffffffffffffffffffffffffffffff1673ffffffffffffffffffffffffffffffffffffffff168152602001908152602001600020546130a890919063ffffffff16565b600d60003373ffffffffffffffffffffffffffffffffffffffff1673ffffffffffffffffffffffffffffffffffffffff16815260200190815260200160002081905550600460009054906101000a900473ffffffffffffffffffffffffffffffffffffffff1673ffffffffffffffffffffffffffffffffffffffff166108fc349081150290604051600060405180830381858888f19350505050151561125457600080fd5b611269856000546130a890919063ffffffff16565b6000819055506012600a0a630e4e1c00026000541115151561128a57600080fd5b6112dc85600160003373ffffffffffffffffffffffffffffffffffffffff1673ffffffffffffffffffffffffffffffffffffffff168152602001908152602001600020546130a890919063ffffffff16565b600160003373ffffffffffffffffffffffffffffffffffffffff1673ffffffffffffffffffffffffffffffffffffffff168152602001908152602001600020819055503373ffffffffffffffffffffffffffffffffffffffff1660007fddf252ad1be2c89b69c2b068fc378daa952ba7f163c4a11628f55a4df523b3ef876040518082815260200191505060405180910390a350505050505050565b6000806113ab6601c6bf5263400061139d6012600a0a3461302890919063ffffffff16565b61305b90919063ffffffff16565b915060009050600b546113bc610e93565b1115156113ed576113ea60646113dc600b8561302890919063ffffffff16565b61305b90919063ffffffff16565b90505b61140081836130a890919063ffffffff16565b915061145481600d60003373ffffffffffffffffffffffffffffffffffffffff1673ffffffffffffffffffffffffffffffffffffffff168152602001908152602001600020546130a890919063ffffffff16565b600d60003373ffffffffffffffffffffffffffffffffffffffff1673ffffffffffffffffffffffffffffffffffffffff16815260200190815260200160002081905550600460009054906101000a900473ffffffffffffffffffffffffffffffffffffffff1673ffffffffffffffffffffffffffffffffffffffff166108fc349081150290604051600060405180830381858888f1935050505015156114f957600080fd5b61150e826000546130a890919063ffffffff16565b6000819055506012600a0a630e4e1c00026000541115151561152f57600080fd5b61158182600160003373ffffffffffffffffffffffffffffffffffffffff1673ffffffffffffffffffffffffffffffffffffffff168152602001908152602001600020546130a890919063ffffffff16565b600160003373ffffffffffffffffffffffffffffffffffffffff1673ffffffffffffffffffffffffffffffffffffffff168152602001908152602001600020819055503373ffffffffffffffffffffffffffffffffffffffff1660007fddf252ad1be2c89b69c2b068fc378daa952ba7f163c4a11628f55a4df523b3ef846040518082815260200191505060405180910390a35050565b6012600a0a630e4e1c000281565b6040805190810160405280601881526020017f53504543545245205355425343524942455220544f4b454e000000000000000081525081565b600081600260003373ffffffffffffffffffffffffffffffffffffffff1673ffffffffffffffffffffffffffffffffffffffff16815260200190815260200160002060008573ffffffffffffffffffffffffffffffffffffffff1673ffffffffffffffffffffffffffffffffffffffff168152602001908152602001600020819055508273ffffffffffffffffffffffffffffffffffffffff163373ffffffffffffffffffffffffffffffffffffffff167f8c5be1e5ebec7d5bd14f71427d1e84f3dd0314c0f7b2291e5b200ac8c7c3b925846040518082815260200191505060405180910390a36001905092915050565b6203f48081565b60005481565b60085481565b60008061176f613347565b600660169054906101000a900460ff16151561178a57600080fd5b600a54611795610e93565b1115156117a157600080fd5b6012600a0a624c4b4002600054101515156117bb57600080fd5b600560009054906101000a900473ffffffffffffffffffffffffffffffffffffffff1673ffffffffffffffffffffffffffffffffffffffff168573ffffffffffffffffffffffffffffffffffffffff1614806118645750600660009054906101000a900473ffffffffffffffffffffffffffffffffffffffff1673ffffffffffffffffffffffffffffffffffffffff168573ffffffffffffffffffffffffffffffffffffffff16145b151561186f57600080fd5b611878856130c6565b151561188357600080fd5b600360009054906101000a900473ffffffffffffffffffffffffffffffffffffffff1673ffffffffffffffffffffffffffffffffffffffff163373ffffffffffffffffffffffffffffffffffffffff161480156118ed57506224ea00600a54016118eb610e93565b115b1561195c578473ffffffffffffffffffffffffffffffffffffffff168673ffffffffffffffffffffffffffffffffffffffff167fd30796a26ac49ebbc2092097f71aea64b94ffc866a5909a76002686237beff60866040518082815260200191505060405180910390a3611a6f565b600260008773ffffffffffffffffffffffffffffffffffffffff1673ffffffffffffffffffffffffffffffffffffffff16815260200190815260200160002060003373ffffffffffffffffffffffffffffffffffffffff1673ffffffffffffffffffffffffffffffffffffffff1681526020019081526020016000205491506119ee848361307690919063ffffffff16565b600260008873ffffffffffffffffffffffffffffffffffffffff1673ffffffffffffffffffffffffffffffffffffffff16815260200190815260200160002060003373ffffffffffffffffffffffffffffffffffffffff1673ffffffffffffffffffffffffffffffffffffffff168152602001908152602001600020819055505b611a7b868686846130d9565b925050509392505050565b6000611aa76000546012600a0a630e4e1c000261307690919063ffffffff16565b905090565b601281565b6000806000600360009054906101000a900473ffffffffffffffffffffffffffffffffffffffff1673ffffffffffffffffffffffffffffffffffffffff163373ffffffffffffffffffffffffffffffffffffffff16141515611b1257600080fd5b600092505b8351831015611ba557600174010000000000000000000000000000000000000000038484815181101515611b4757fe5b90602001906020020151169150740100000000000000000000000000000000000000008484815181101515611b7857fe5b90602001906020020151811515611b8b57fe5b049050611b988282612aa9565b8280600101935050611b17565b50505050565b600360009054906101000a900473ffffffffffffffffffffffffffffffffffffffff1673ffffffffffffffffffffffffffffffffffffffff163373ffffffffffffffffffffffffffffffffffffffff16141515611c0757600080fd5b600360149054906101000a900460ff161515611c2257600080fd5b600660159054906101000a900460ff161515611c3d57600080fd5b6000600360146101000a81548160ff0219169083151502179055507f7805862f689e2f13df9f062ff482ad3ad112aca9e0847911ed832e158c525b3360405160405180910390a1565b6012600a0a6305f5e1000281565b6000600190509392505050565b6000600660149054906101000a900460ff161515611cbe57600080fd5b6000600160003373ffffffffffffffffffffffffffffffffffffffff1673ffffffffffffffffffffffffffffffffffffffff16815260200190815260200160002054111515611d0c57600080fd5b611d9d600d60003373ffffffffffffffffffffffffffffffffffffffff1673ffffffffffffffffffffffffffffffffffffffff16815260200190815260200160002054600160003373ffffffffffffffffffffffffffffffffffffffff1673ffffffffffffffffffffffffffffffffffffffff1681526020019081526020016000205461307690919063ffffffff16565b90506000600160003373ffffffffffffffffffffffffffffffffffffffff1673ffffffffffffffffffffffffffffffffffffffff16815260200190815260200160002081905550611e146012600a0a611e066601c6bf526340008461302890919063ffffffff16565b61305b90919063ffffffff16565b90503373ffffffffffffffffffffffffffffffffffffffff166108fc829081150290604051600060405180830381858888f193505050501515611e5657600080fd5b3373ffffffffffffffffffffffffffffffffffffffff167fbb28353e4598c3b9199101a66e0989549b659a59a54d2c27fbb183f1932c8e6d826040518082815260200191505060405180910390a250565b600360149054906101000a900460ff1681565b600b5481565b600080600260003373ffffffffffffffffffffffffffffffffffffffff1673ffffffffffffffffffffffffffffffffffffffff16815260200190815260200160002060008573ffffffffffffffffffffffffffffffffffffffff1673ffffffffffffffffffffffffffffffffffffffff16815260200190815260200160002054905080831115611fd1576000600260003373ffffffffffffffffffffffffffffffffffffffff1673ffffffffffffffffffffffffffffffffffffffff16815260200190815260200160002060008673ffffffffffffffffffffffffffffffffffffffff1673ffffffffffffffffffffffffffffffffffffffff16815260200190815260200160002081905550612065565b611fe4838261307690919063ffffffff16565b600260003373ffffffffffffffffffffffffffffffffffffffff1673ffffffffffffffffffffffffffffffffffffffff16815260200190815260200160002060008673ffffffffffffffffffffffffffffffffffffffff1673ffffffffffffffffffffffffffffffffffffffff168152602001908152602001600020819055505b8373ffffffffffffffffffffffffffffffffffffffff163373ffffffffffffffffffffffffffffffffffffffff167f8c5be1e5ebec7d5bd14f71427d1e84f3dd0314c0f7b2291e5b200ac8c7c3b925600260003373ffffffffffffffffffffffffffffffffffffffff1673ffffffffffffffffffffffffffffffffffffffff16815260200190815260200160002060008873ffffffffffffffffffffffffffffffffffffffff1673ffffffffffffffffffffffffffffffffffffffff168152602001908152602001600020546040518082815260200191505060405180910390a3600191505092915050565b600660009054906101000a900473ffffffffffffffffffffffffffffffffffffffff1681565b6000600160008373ffffffffffffffffffffffffffffffffffffffff1673ffffffffffffffffffffffffffffffffffffffff168152602001908152602001600020549050919050565b600360009054906101000a900473ffffffffffffffffffffffffffffffffffffffff1673ffffffffffffffffffffffffffffffffffffffff163373ffffffffffffffffffffffffffffffffffffffff1614151561221c57600080fd5b600660159054906101000a900460ff1615151561223857600080fd5b612240610e93565b8511151561224d57600080fd5b848411151561225b57600080fd5b838311151561226957600080fd5b828211151561227757600080fd5b82811180156122865750818111155b151561229157600080fd5b84600781905550836008819055508260098190555081600a8190555080600b819055506001600660156101000a81548160ff021916908315150217905550600660169054906101000a900460ff16156122ed576122ec611bab565b5b5050505050565b600660149054906101000a900460ff1615151561231057600080fd5b600360009054906101000a900473ffffffffffffffffffffffffffffffffffffffff1673ffffffffffffffffffffffffffffffffffffffff163373ffffffffffffffffffffffffffffffffffffffff1614151561236c57600080fd5b3373ffffffffffffffffffffffffffffffffffffffff166108fc3073ffffffffffffffffffffffffffffffffffffffff16319081150290604051600060405180830381858888f1935050505015156123c357600080fd5b565b600360009054906101000a900473ffffffffffffffffffffffffffffffffffffffff1673ffffffffffffffffffffffffffffffffffffffff163373ffffffffffffffffffffffffffffffffffffffff1614151561242157600080fd5b60003073ffffffffffffffffffffffffffffffffffffffff163111151561244757600080fd5b600a54612452610e93565b11151561245e57600080fd5b6012600a0a624c4b400260005410151561247757600080fd5b7f22f77d2a7e7c2b34047279a1227fbf143e6ebe8ad0afde75d6814b481e2016bf60405160405180910390a16001600660146101000a81548160ff021916908315150217905550565b6012600a0a624c4b400281565b600660169054906101000a900460ff1681565b600360009054906101000a900473ffffffffffffffffffffffffffffffffffffffff1673ffffffffffffffffffffffffffffffffffffffff163373ffffffffffffffffffffffffffffffffffffffff1614151561253c57600080fd5b600360149054906101000a900460ff1615151561255857600080fd5b6001600360146101000a81548160ff0219169083151502179055507f6985a02210a168e66602d3235cb6db0e70f92b3ba4d376a33c0f3d9434bff62560405160405180910390a1565b600660159054906101000a900460ff1681565b600360009054906101000a900473ffffffffffffffffffffffffffffffffffffffff1681565b6040805190810160405280600381526020017f535853000000000000000000000000000000000000000000000000000000000081525081565b600c6020528060005260406000206000915090505481565b670de0b6b3a764000081565b600360009054906101000a900473ffffffffffffffffffffffffffffffffffffffff1673ffffffffffffffffffffffffffffffffffffffff163373ffffffffffffffffffffffffffffffffffffffff1614151561269357600080fd5b600660169054906101000a900460ff161515156126af57600080fd5b600073ffffffffffffffffffffffffffffffffffffffff168173ffffffffffffffffffffffffffffffffffffffff16141515156126eb57600080fd5b600073ffffffffffffffffffffffffffffffffffffffff168273ffffffffffffffffffffffffffffffffffffffff161415151561272757600080fd5b612730816130c6565b151561273b57600080fd5b612744826130c6565b151561274f57600080fd5b81600660006101000a81548173ffffffffffffffffffffffffffffffffffffffff021916908373ffffffffffffffffffffffffffffffffffffffff16021790555080600560006101000a81548173ffffffffffffffffffffffffffffffffffffffff021916908373ffffffffffffffffffffffffffffffffffffffff1602179055506001600660166101000a81548160ff021916908315150217905550600660159054906101000a900460ff161561280a57612809611bab565b5b5050565b6000612818613347565b600660169054906101000a900460ff16151561283357600080fd5b600a5461283e610e93565b11151561284a57600080fd5b6012600a0a624c4b40026000541015151561286457600080fd5b600560009054906101000a900473ffffffffffffffffffffffffffffffffffffffff1673ffffffffffffffffffffffffffffffffffffffff168473ffffffffffffffffffffffffffffffffffffffff16148061290d5750600660009054906101000a900473ffffffffffffffffffffffffffffffffffffffff1673ffffffffffffffffffffffffffffffffffffffff168473ffffffffffffffffffffffffffffffffffffffff16145b151561291857600080fd5b612921846130c6565b151561292c57600080fd5b612938338585846130d9565b91505092915050565b60095481565b600360009054906101000a900473ffffffffffffffffffffffffffffffffffffffff1673ffffffffffffffffffffffffffffffffffffffff163373ffffffffffffffffffffffffffffffffffffffff1614806129f05750600460009054906101000a900473ffffffffffffffffffffffffffffffffffffffff1673ffffffffffffffffffffffffffffffffffffffff163373ffffffffffffffffffffffffffffffffffffffff16145b15156129fb57600080fd5b3373ffffffffffffffffffffffffffffffffffffffff167f3b31cbadfd3fd939750f09d3bdbd6c0531dde23f05d55dcc202798f39d090895343073ffffffffffffffffffffffffffffffffffffffff1631604051808381526020018281526020019250505060405180910390a2565b600660149054906101000a900460ff1681565b600460009054906101000a900473ffffffffffffffffffffffffffffffffffffffff1681565b600a5481565b600360009054906101000a900473ffffffffffffffffffffffffffffffffffffffff1673ffffffffffffffffffffffffffffffffffffffff163373ffffffffffffffffffffffffffffffffffffffff16141515612b0557600080fd5b600073ffffffffffffffffffffffffffffffffffffffff168273ffffffffffffffffffffffffffffffffffffffff1614151515612b4157600080fd5b60008114151515612b5157600080fd5b80600c60008473ffffffffffffffffffffffffffffffffffffffff1673ffffffffffffffffffffffffffffffffffffffff168152602001908152602001600020819055508173ffffffffffffffffffffffffffffffffffffffff167f4251447a1c2fc6305b03db2d0e7dde804e542b8d978296f7d487ace195839ae8826040518082815260200191505060405180910390a25050565b6601c6bf5263400081565b6000612c8382600260003373ffffffffffffffffffffffffffffffffffffffff1673ffffffffffffffffffffffffffffffffffffffff16815260200190815260200160002060008673ffffffffffffffffffffffffffffffffffffffff1673ffffffffffffffffffffffffffffffffffffffff168152602001908152602001600020546130a890919063ffffffff16565b600260003373ffffffffffffffffffffffffffffffffffffffff1673ffffffffffffffffffffffffffffffffffffffff16815260200190815260200160002060008573ffffffffffffffffffffffffffffffffffffffff1673ffffffffffffffffffffffffffffffffffffffff168152602001908152602001600020819055508273ffffffffffffffffffffffffffffffffffffffff163373ffffffffffffffffffffffffffffffffffffffff167f8c5be1e5ebec7d5bd14f71427d1e84f3dd0314c0f7b2291e5b200ac8c7c3b925600260003373ffffffffffffffffffffffffffffffffffffffff1673ffffffffffffffffffffffffffffffffffffffff16815260200190815260200160002060008773ffffffffffffffffffffffffffffffffffffffff1673ffffffffffffffffffffffffffffffffffffffff168152602001908152602001600020546040518082815260200191505060405180910390a36001905092915050565b600d6020528060005260406000206000915090505481565b6000600190509392505050565b6000600260008473ffffffffffffffffffffffffffffffffffffffff1673ffffffffffffffffffffffffffffffffffffffff16815260200190815260200160002060008373ffffffffffffffffffffffffffffffffffffffff1673ffffffffffffffffffffffffffffffffffffffff16815260200190815260200160002054905092915050565b60075481565b600560009054906101000a900473ffffffffffffffffffffffffffffffffffffffff1681565b600360009054906101000a900473ffffffffffffffffffffffffffffffffffffffff1673ffffffffffffffffffffffffffffffffffffffff163373ffffffffffffffffffffffffffffffffffffffff16141515612f2257600080fd5b600073ffffffffffffffffffffffffffffffffffffffff168173ffffffffffffffffffffffffffffffffffffffff1614151515612f5e57600080fd5b8073ffffffffffffffffffffffffffffffffffffffff16600360009054906101000a900473ffffffffffffffffffffffffffffffffffffffff1673ffffffffffffffffffffffffffffffffffffffff167f8be0079c531659141344cd1fd0a4f28419497f9722a3daafe3b4186f6b6457e060405160405180910390a380600360006101000a81548173ffffffffffffffffffffffffffffffffffffffff021916908373ffffffffffffffffffffffffffffffffffffffff16021790555050565b6000809050919050565b60008082840290506000841480613049575082848281151561304657fe5b04145b151561305157fe5b8091505092915050565b600080828481151561306957fe5b0490508091505092915050565b600082821115151561308457fe5b818303905092915050565b600081831061309e57816130a0565b825b905092915050565b60008082840190508381101515156130bc57fe5b8091505092915050565b600080823b905060008111915050919050565b600080836130e687612177565b101515156130f357600080fd5b61310e8461310088612177565b61307690919063ffffffff16565b600160008873ffffffffffffffffffffffffffffffffffffffff1673ffffffffffffffffffffffffffffffffffffffff1681526020019081526020016000208190555061316c8461315e87612177565b6130a890919063ffffffff16565b600160008773ffffffffffffffffffffffffffffffffffffffff1673ffffffffffffffffffffffffffffffffffffffff168152602001908152602001600020819055508490508073ffffffffffffffffffffffffffffffffffffffff1663c0ee0b8a8786866040518463ffffffff167c0100000000000000000000000000000000000000000000000000000000028152600401808473ffffffffffffffffffffffffffffffffffffffff1673ffffffffffffffffffffffffffffffffffffffff16815260200183815260200180602001828103825283818151815260200191508051906020019080838360005b83811015613274578082015181840152602081019050613259565b50505050905090810190601f1680156132a15780820380516001836020036101000a031916815260200191505b50945050505050600060405180830381600087803b15156132c157600080fd5b6102c65a03f115156132d257600080fd5b5050508473ffffffffffffffffffffffffffffffffffffffff168673ffffffffffffffffffffffffffffffffffffffff167fddf252ad1be2c89b69c2b068fc378daa952ba7f163c4a11628f55a4df523b3ef866040518082815260200191505060405180910390a36001915050949350505050565b6020604051908101604052806000815250905600a165627a7a72305820e5509155fcbaeebff2a6a32702e178c7ba2e7d55b2dffba09ea20268eb147ce10029",
  "source": "pragma solidity ^0.4.15;\n\nimport 'zeppelin-solidity/contracts/lifecycle/Pausable.sol';\nimport 'zeppelin-solidity/contracts/token/StandardToken.sol';\nimport \"zeppelin-solidity/contracts/ownership/Ownable.sol\";\nimport \"zeppelin-solidity/contracts/math/Math.sol\";\n\nimport './ContractReceiver.sol';\nimport './MiniMeToken.sol';\n\n/// @title SpecToken - Crowdfunding code for the Spectre.ai Token Sale\n/// @author Parthasarathy Ramanujam\ncontract SpectreSubscriberToken is StandardToken, Pausable, TokenController {\n  using SafeMath for uint;\n\n  string public constant name = \"SPECTRE SUBSCRIBER TOKEN\";\n  string public constant symbol = \"SXS\";\n  uint256 public constant decimals = 18;\n\n  uint256 constant public TOKENS_AVAILABLE             = 240000000 * 10**decimals;\n  uint256 constant public BONUS_SLAB                   = 100000000 * 10**decimals;\n  uint256 constant public MIN_CAP                      = 5000000 * 10**decimals;\n  uint256 constant public MIN_FUND_AMOUNT              = 1 ether;\n  uint256 constant public TOKEN_PRICE                  = 0.0005 ether;\n  uint256 constant public WHITELIST_PERIOD             = 3 days;\n\n  address public specWallet;\n  address public specDWallet;\n  address public specUWallet;\n\n  bool public refundable = false;\n  bool public configured = false;\n  bool public tokenAddressesSet = false;\n  //presale start and end blocks\n  uint256 public presaleStart;\n  uint256 public presaleEnd;\n  //main sale start and end blocks\n  uint256 public saleStart;\n  uint256 public saleEnd;\n  //discount end block for main sale\n  uint256 public discountSaleEnd;\n\n  //whitelisting\n  mapping(address => uint256) public whitelist;\n  uint256 constant D160 = 0x0010000000000000000000000000000000000000000;\n\n  //bonus earned\n  mapping(address => uint256) public bonus;\n\n  event Refund(address indexed _to, uint256 _value);\n  event ContractFunded(address indexed _from, uint256 _value, uint256 _total);\n  event Refundable();\n  event WhiteListSet(address indexed _subscriber, uint256 _value);\n  event OwnerTransfer(address indexed _from, address indexed _to, uint256 _value);\n\n  modifier isRefundable() {\n    require(refundable);\n    _;\n  }\n\n  modifier isNotRefundable() {\n    require(!refundable);\n    _;\n  }\n\n  modifier isTransferable() {\n    require(tokenAddressesSet);\n    require(getNow() > saleEnd);\n    require(totalSupply >= MIN_CAP);\n    _;\n  }\n\n  modifier onlyWalletOrOwner() {\n    require(msg.sender == owner || msg.sender == specWallet);\n    _;\n  }\n\n  //@notice function to initilaize the token contract\n  //@notice _specWallet - The wallet that receives the proceeds from the token sale\n  //@notice _specDWallet - Wallet that would receive tokens chosen for dividend\n  //@notice _specUWallet - Wallet that would receive tokens chosen for utility\n  function SpectreSubscriberToken(address _specWallet) {\n    require(_specWallet != address(0));\n    specWallet = _specWallet;\n    pause();\n  }\n\n  //@notice Fallback function that accepts the ether and allocates tokens to\n  //the msg.sender corresponding to msg.value\n  function() payable whenNotPaused public {\n    require(msg.value >= MIN_FUND_AMOUNT);\n    if(getNow() >= presaleStart && getNow() <= presaleEnd) {\n      purchasePresale();\n    } else if (getNow() >= saleStart && getNow() <= saleEnd) {\n      purchase();\n    } else {\n      revert();\n    }\n  }\n\n  //@notice function to be used for presale purchase\n  function purchasePresale() internal {\n    //Only check whitelist for the first 3 days of presale\n    if (getNow() < (presaleStart + WHITELIST_PERIOD)) {\n      require(whitelist[msg.sender] > 0);\n      //Accept if the subsciber 95% to 120% of whitelisted amount\n      uint256 minAllowed = whitelist[msg.sender].mul(95).div(100);\n      uint256 maxAllowed = whitelist[msg.sender].mul(120).div(100);\n      require(msg.value >= minAllowed && msg.value <= maxAllowed);\n      //remove the address from whitelist\n      whitelist[msg.sender] = 0;\n    }\n\n    uint256 numTokens = msg.value.mul(10**decimals).div(TOKEN_PRICE);\n    uint256 bonusTokens = 0;\n\n    if(totalSupply < BONUS_SLAB) {\n      //Any portion of tokens less than BONUS_SLAB are eligable for 33% bonus, otherwise 22% bonus\n      uint256 remainingBonusSlabTokens = SafeMath.sub(BONUS_SLAB, totalSupply);\n      uint256 bonusSlabTokens = Math.min256(remainingBonusSlabTokens, numTokens);\n      uint256 nonBonusSlabTokens = SafeMath.sub(numTokens, bonusSlabTokens);\n      bonusTokens = bonusSlabTokens.mul(33).div(100);\n      bonusTokens = bonusTokens.add(nonBonusSlabTokens.mul(22).div(100));\n    } else {\n      //calculate 22% bonus for tokens purchased on presale\n      bonusTokens = numTokens.mul(22).div(100);\n    }\n    //\n    numTokens = numTokens.add(bonusTokens);\n    bonus[msg.sender] = bonus[msg.sender].add(bonusTokens);\n\n    //transfer money to Spectre MultisigWallet (could be msg.value)\n    specWallet.transfer(msg.value);\n\n    totalSupply = totalSupply.add(numTokens);\n    require(totalSupply <= TOKENS_AVAILABLE);\n\n    balances[msg.sender] = balances[msg.sender].add(numTokens);\n    //fire the event notifying the transfer of tokens\n    Transfer(0, msg.sender, numTokens);\n\n  }\n\n  //@notice function to be used for mainsale purchase\n  function purchase() internal {\n\n    uint256 numTokens = msg.value.mul(10**decimals).div(TOKEN_PRICE);\n    uint256 bonusTokens = 0;\n\n    if(getNow() <= discountSaleEnd) {\n      //calculate 11% bonus for tokens purchased on discount period\n      bonusTokens = numTokens.mul(11).div(100);\n    }\n\n    numTokens = numTokens.add(bonusTokens);\n    bonus[msg.sender] = bonus[msg.sender].add(bonusTokens);\n\n    //transfer money to Spectre MultisigWallet\n    specWallet.transfer(msg.value);\n\n    totalSupply = totalSupply.add(numTokens);\n\n    require(totalSupply <= TOKENS_AVAILABLE);\n    balances[msg.sender] = balances[msg.sender].add(numTokens);\n    //fire the event notifying the transfer of tokens\n    Transfer(0, msg.sender, numTokens);\n  }\n\n  //@notice Function reports the number of tokens available for sale\n  function numberOfTokensLeft() constant returns (uint256) {\n    return TOKENS_AVAILABLE.sub(totalSupply);\n  }\n\n  //Override unpause function to only allow once configured\n  function unpause() onlyOwner whenPaused public {\n    require(configured);\n    paused = false;\n    Unpause();\n  }\n\n  //@notice Function to configure contract addresses\n  //@param `_specUWallet` - address of Utility contract\n  //@param `_specDWallet` - address of Dividend contract\n  function setTokenAddresses(address _specUWallet, address _specDWallet) onlyOwner public {\n    require(!tokenAddressesSet);\n    require(_specDWallet != address(0));\n    require(_specUWallet != address(0));\n    require(isContract(_specDWallet));\n    require(isContract(_specUWallet));\n    specUWallet = _specUWallet;\n    specDWallet = _specDWallet;\n    tokenAddressesSet = true;\n    if (configured) {\n      unpause();\n    }\n  }\n\n  //@notice Function to configure contract parameters\n  //@param `_startPresaleBlock` - block from when presale begins.\n  //@param `_endPresaleBlock` - block from when presale ends.\n  //@param `_saleStart` - block from when main sale begins.\n  //@param `_saleEnd` - block from when main sale ends.\n  //@param `_discountEnd` - block from when the discounts would end.\n  //@notice Can be called only when funding is not active and only by the owner\n  function configure(uint256 _presaleStart, uint256 _presaleEnd, uint256 _saleStart, uint256 _saleEnd, uint256 _discountSaleEnd) onlyOwner public {\n    require(!configured);\n    require(_presaleStart > getNow());\n    require(_presaleEnd > _presaleStart);\n    require(_saleStart > _presaleEnd);\n    require(_saleEnd > _saleStart);\n    require(_discountSaleEnd > _saleStart && _discountSaleEnd <= _saleEnd);\n    presaleStart = _presaleStart;\n    presaleEnd = _presaleEnd;\n    saleStart = _saleStart;\n    saleEnd = _saleEnd;\n    discountSaleEnd = _discountSaleEnd;\n    configured = true;\n    if (tokenAddressesSet) {\n      unpause();\n    }\n  }\n\n  //@notice Function that can be called by purchasers to refund\n  //@notice Used only in case the ICO isn't successful.\n  function refund() isRefundable public {\n    require(balances[msg.sender] > 0);\n\n    uint256 tokenValue = balances[msg.sender].sub(bonus[msg.sender]);\n    balances[msg.sender] = 0;\n    tokenValue = tokenValue.mul(TOKEN_PRICE).div(10**decimals);\n\n    //transfer to the requesters wallet\n    msg.sender.transfer(tokenValue);\n    Refund(msg.sender, tokenValue);\n  }\n\n  function withdrawEther() public isNotRefundable onlyOwner {\n    //In case ether is sent, even though not refundable\n    msg.sender.transfer(this.balance);\n  }\n\n  //@notice Function used for funding in case of refund.\n  //@notice Can be called only by the Owner or Wallet\n  function fundContract() public payable onlyWalletOrOwner {\n    //does nothing just accepts and stores the ether\n    ContractFunded(msg.sender, msg.value, this.balance);\n  }\n\n  function setRefundable() onlyOwner {\n    require(this.balance > 0);\n    require(getNow() > saleEnd);\n    require(totalSupply < MIN_CAP);\n    Refundable();\n    refundable = true;\n  }\n\n  //@notice Standard function transfer similar to ERC20 transfer with no _data .\n  //@notice Added due to backwards compatibility reasons .\n  function transfer(address _to, uint256 _value) isTransferable returns (bool success) {\n    //standard function transfer similar to ERC20 transfer with no _data\n    //added due to backwards compatibility reasons\n    require(_to == specDWallet || _to == specUWallet);\n    require(isContract(_to));\n    bytes memory empty;\n    return transferToContract(msg.sender, _to, _value, empty);\n  }\n\n  //@notice assemble the given address bytecode. If bytecode exists then the _addr is a contract.\n  function isContract(address _addr) private returns (bool is_contract) {\n    uint256 length;\n    assembly {\n      //retrieve the size of the code on target address, this needs assembly\n      length := extcodesize(_addr)\n    }\n    return (length>0);\n  }\n\n  //@notice function that is called when transaction target is a contract\n  function transferToContract(address _from, address _to, uint256 _value, bytes _data) internal returns (bool success) {\n    require(balanceOf(_from) >= _value);\n    balances[_from] = balanceOf(_from).sub(_value);\n    balances[_to] = balanceOf(_to).add(_value);\n    ContractReceiver receiver = ContractReceiver(_to);\n    receiver.tokenFallback(_from, _value, _data);\n    Transfer(_from, _to, _value);\n    return true;\n  }\n\n  /**\n   * @dev Transfer tokens from one address to another - needed for owner transfers\n   * @param _from address The address which you want to send tokens from\n   * @param _to address The address which you want to transfer to\n   * @param _value uint256 the amount of tokens to be transferred\n   */\n  function transferFrom(address _from, address _to, uint256 _value) public isTransferable returns (bool) {\n    require(_to == specDWallet || _to == specUWallet);\n    require(isContract(_to));\n    //owner can transfer tokens on behalf of users after 28 days\n    if (msg.sender == owner && getNow() > saleEnd + 28 days) {\n      OwnerTransfer(_from, _to, _value);\n    } else {\n      uint256 _allowance = allowed[_from][msg.sender];\n      allowed[_from][msg.sender] = _allowance.sub(_value);\n    }\n\n    //Now make the transfer\n    bytes memory empty;\n    return transferToContract(_from, _to, _value, empty);\n\n  }\n\n  //@notice function that is used for whitelisting an address\n  function setWhiteList(address _subscriber, uint256 _amount) public onlyOwner {\n    require(_subscriber != address(0));\n    require(_amount != 0);\n    whitelist[_subscriber] = _amount;\n    WhiteListSet(_subscriber, _amount);\n  }\n\n  // data is an array of uint256s. Each uint256 represents a address and amount.\n  // The 160 LSB is the address that wants to be added\n  // The 96 MSB is the amount of to be set for the whitelist for that address\n  function multiSetWhiteList(uint256[] data) public onlyOwner {\n    for (uint256 i = 0; i < data.length; i++) {\n      address addr = address(data[i] & (D160 - 1));\n      uint256 amount = data[i] / D160;\n      setWhiteList(addr, amount);\n    }\n  }\n\n  /////////////////\n  // TokenController interface\n  /////////////////\n\n  /// @notice `proxyPayment()` returns false, meaning ether is not accepted at\n  ///  the token address, only the address of FiinuCrowdSale\n  /// @param _owner The address that will hold the newly created tokens\n\n  function proxyPayment(address _owner) payable returns(bool) {\n      return false;\n  }\n\n  /// @notice Notifies the controller about a transfer, for this Campaign all\n  ///  transfers are allowed by default and no extra notifications are needed\n  /// @param _from The origin of the transfer\n  /// @param _to The destination of the transfer\n  /// @param _amount The amount of the transfer\n  /// @return False if the controller does not authorize the transfer\n  function onTransfer(address _from, address _to, uint _amount) returns(bool) {\n      return true;\n  }\n\n  /// @notice Notifies the controller about an approval, for this Campaign all\n  ///  approvals are allowed by default and no extra notifications are needed\n  /// @param _owner The address that calls `approve()`\n  /// @param _spender The spender in the `approve()` call\n  /// @param _amount The amount in the `approve()` call\n  /// @return False if the controller does not authorize the approval\n  function onApprove(address _owner, address _spender, uint _amount)\n      returns(bool)\n  {\n      return true;\n  }\n\n  function getNow() constant internal returns (uint256) {\n    return now;\n  }\n\n}\n",
  "sourcePath": "/Users/adamdossa/Development/Ethereum/spectre-tokensale/contracts/SpectreSubscriberToken.sol",
  "compiler": {
    "name": "solc",
    "version": "0.4.18+commit.9cf6e910.Emscripten.clang"
  },
  "schemaVersion": "1.0.1",
  "updatedAt": "2017-12-10T20:14:54.735Z"
}