{
  "contractName": "SpectreDividendToken",
  "abi": [
    {
      "constant": true,
      "inputs": [
        {
          "name": "",
          "type": "address"
        }
      ],
      "name": "lockedBalances",
      "outputs": [
        {
          "name": "",
          "type": "uint256"
        }
      ],
      "payable": false,
      "stateMutability": "view",
      "type": "function"
    },
    {
      "constant": true,
      "inputs": [],
      "name": "name",
      "outputs": [
        {
          "name": "",
          "type": "string"
        }
      ],
      "payable": false,
      "stateMutability": "view",
      "type": "function"
    },
    {
      "constant": false,
      "inputs": [
        {
          "name": "_spender",
          "type": "address"
        },
        {
          "name": "_amount",
          "type": "uint256"
        }
      ],
      "name": "approve",
      "outputs": [
        {
          "name": "success",
          "type": "bool"
        }
      ],
      "payable": false,
      "stateMutability": "nonpayable",
      "type": "function"
    },
    {
      "constant": true,
      "inputs": [],
      "name": "LOCK_START_TIME",
      "outputs": [
        {
          "name": "",
          "type": "uint256"
        }
      ],
      "payable": false,
      "stateMutability": "view",
      "type": "function"
    },
    {
      "constant": true,
      "inputs": [],
      "name": "creationBlock",
      "outputs": [
        {
          "name": "",
          "type": "uint256"
        }
      ],
      "payable": false,
      "stateMutability": "view",
      "type": "function"
    },
    {
      "constant": true,
      "inputs": [],
      "name": "totalSupply",
      "outputs": [
        {
          "name": "",
          "type": "uint256"
        }
      ],
      "payable": false,
      "stateMutability": "view",
      "type": "function"
    },
    {
      "constant": true,
      "inputs": [],
      "name": "OPTION_POOL_PERIOD",
      "outputs": [
        {
          "name": "",
          "type": "uint256"
        }
      ],
      "payable": false,
      "stateMutability": "view",
      "type": "function"
    },
    {
      "constant": false,
      "inputs": [
        {
          "name": "_from",
          "type": "address"
        },
        {
          "name": "_to",
          "type": "address"
        },
        {
          "name": "_value",
          "type": "uint256"
        }
      ],
      "name": "transferFrom",
      "outputs": [
        {
          "name": "success",
          "type": "bool"
        }
      ],
      "payable": false,
      "stateMutability": "nonpayable",
      "type": "function"
    },
    {
      "constant": true,
      "inputs": [],
      "name": "tokenBurner",
      "outputs": [
        {
          "name": "",
          "type": "address"
        }
      ],
      "payable": false,
      "stateMutability": "view",
      "type": "function"
    },
    {
      "constant": true,
      "inputs": [],
      "name": "optionPool",
      "outputs": [
        {
          "name": "",
          "type": "address"
        }
      ],
      "payable": false,
      "stateMutability": "view",
      "type": "function"
    },
    {
      "constant": true,
      "inputs": [],
      "name": "decimals",
      "outputs": [
        {
          "name": "",
          "type": "uint8"
        }
      ],
      "payable": false,
      "stateMutability": "view",
      "type": "function"
    },
    {
      "constant": false,
      "inputs": [
        {
          "name": "_newController",
          "type": "address"
        }
      ],
      "name": "changeController",
      "outputs": [],
      "payable": false,
      "stateMutability": "nonpayable",
      "type": "function"
    },
    {
      "constant": true,
      "inputs": [],
      "name": "MANAGEMENT_LOCKED_ALLOC",
      "outputs": [
        {
          "name": "",
          "type": "uint256"
        }
      ],
      "payable": false,
      "stateMutability": "view",
      "type": "function"
    },
    {
      "constant": true,
      "inputs": [],
      "name": "spectreTeam",
      "outputs": [
        {
          "name": "",
          "type": "address"
        }
      ],
      "payable": false,
      "stateMutability": "view",
      "type": "function"
    },
    {
      "constant": false,
      "inputs": [
        {
          "name": "_amount",
          "type": "uint256"
        }
      ],
      "name": "burn",
      "outputs": [],
      "payable": false,
      "stateMutability": "nonpayable",
      "type": "function"
    },
    {
      "constant": true,
      "inputs": [
        {
          "name": "_owner",
          "type": "address"
        },
        {
          "name": "_blockNumber",
          "type": "uint256"
        }
      ],
      "name": "balanceOfAt",
      "outputs": [
        {
          "name": "",
          "type": "uint256"
        }
      ],
      "payable": false,
      "stateMutability": "view",
      "type": "function"
    },
    {
      "constant": true,
      "inputs": [],
      "name": "version",
      "outputs": [
        {
          "name": "",
          "type": "string"
        }
      ],
      "payable": false,
      "stateMutability": "view",
      "type": "function"
    },
    {
      "constant": false,
      "inputs": [
        {
          "name": "_cloneTokenName",
          "type": "string"
        },
        {
          "name": "_cloneDecimalUnits",
          "type": "uint8"
        },
        {
          "name": "_cloneTokenSymbol",
          "type": "string"
        },
        {
          "name": "_snapshotBlock",
          "type": "uint256"
        },
        {
          "name": "_transfersEnabled",
          "type": "bool"
        }
      ],
      "name": "createCloneToken",
      "outputs": [
        {
          "name": "",
          "type": "address"
        }
      ],
      "payable": false,
      "stateMutability": "nonpayable",
      "type": "function"
    },
    {
      "constant": true,
      "inputs": [
        {
          "name": "_owner",
          "type": "address"
        }
      ],
      "name": "balanceOf",
      "outputs": [
        {
          "name": "balance",
          "type": "uint256"
        }
      ],
      "payable": false,
      "stateMutability": "view",
      "type": "function"
    },
    {
      "constant": true,
      "inputs": [],
      "name": "OPTION_POOL_ALLOC",
      "outputs": [
        {
          "name": "",
          "type": "uint256"
        }
      ],
      "payable": false,
      "stateMutability": "view",
      "type": "function"
    },
    {
      "constant": true,
      "inputs": [],
      "name": "parentToken",
      "outputs": [
        {
          "name": "",
          "type": "address"
        }
      ],
      "payable": false,
      "stateMutability": "view",
      "type": "function"
    },
    {
      "constant": false,
      "inputs": [
        {
          "name": "_owner",
          "type": "address"
        },
        {
          "name": "_amount",
          "type": "uint256"
        }
      ],
      "name": "generateTokens",
      "outputs": [
        {
          "name": "",
          "type": "bool"
        }
      ],
      "payable": false,
      "stateMutability": "nonpayable",
      "type": "function"
    },
    {
      "constant": true,
      "inputs": [],
      "name": "MANAGEMENT_LOCKED_PERIOD",
      "outputs": [
        {
          "name": "",
          "type": "uint256"
        }
      ],
      "payable": false,
      "stateMutability": "view",
      "type": "function"
    },
    {
      "constant": true,
      "inputs": [],
      "name": "owner",
      "outputs": [
        {
          "name": "",
          "type": "address"
        }
      ],
      "payable": false,
      "stateMutability": "view",
      "type": "function"
    },
    {
      "constant": true,
      "inputs": [],
      "name": "walletAddressesSet",
      "outputs": [
        {
          "name": "",
          "type": "bool"
        }
      ],
      "payable": false,
      "stateMutability": "view",
      "type": "function"
    },
    {
      "constant": true,
      "inputs": [],
      "name": "symbol",
      "outputs": [
        {
          "name": "",
          "type": "string"
        }
      ],
      "payable": false,
      "stateMutability": "view",
      "type": "function"
    },
    {
      "constant": true,
      "inputs": [
        {
          "name": "_blockNumber",
          "type": "uint256"
        }
      ],
      "name": "totalSupplyAt",
      "outputs": [
        {
          "name": "",
          "type": "uint256"
        }
      ],
      "payable": false,
      "stateMutability": "view",
      "type": "function"
    },
    {
      "constant": true,
      "inputs": [
        {
          "name": "_holder",
          "type": "address"
        },
        {
          "name": "_value",
          "type": "uint256"
        }
      ],
      "name": "checkLockedBalance",
      "outputs": [
        {
          "name": "success",
          "type": "bool"
        }
      ],
      "payable": false,
      "stateMutability": "view",
      "type": "function"
    },
    {
      "constant": true,
      "inputs": [],
      "name": "managementLocked",
      "outputs": [
        {
          "name": "",
          "type": "address"
        }
      ],
      "payable": false,
      "stateMutability": "view",
      "type": "function"
    },
    {
      "constant": false,
      "inputs": [
        {
          "name": "_to",
          "type": "address"
        },
        {
          "name": "_value",
          "type": "uint256"
        }
      ],
      "name": "transfer",
      "outputs": [
        {
          "name": "success",
          "type": "bool"
        }
      ],
      "payable": false,
      "stateMutability": "nonpayable",
      "type": "function"
    },
    {
      "constant": false,
      "inputs": [
        {
          "name": "_tokenBurner",
          "type": "address"
        }
      ],
      "name": "setTokenBurner",
      "outputs": [],
      "payable": false,
      "stateMutability": "nonpayable",
      "type": "function"
    },
    {
      "constant": true,
      "inputs": [],
      "name": "SPECTRE_BOUNTY_ADVISORY_DEV_TEAM_ALLOC",
      "outputs": [
        {
          "name": "",
          "type": "uint256"
        }
      ],
      "payable": false,
      "stateMutability": "view",
      "type": "function"
    },
    {
      "constant": true,
      "inputs": [],
      "name": "transfersEnabled",
      "outputs": [
        {
          "name": "",
          "type": "bool"
        }
      ],
      "payable": false,
      "stateMutability": "view",
      "type": "function"
    },
    {
      "constant": false,
      "inputs": [
        {
          "name": "_from",
          "type": "address"
        },
        {
          "name": "_value",
          "type": "uint256"
        },
        {
          "name": "_data",
          "type": "bytes"
        }
      ],
      "name": "tokenFallback",
      "outputs": [],
      "payable": false,
      "stateMutability": "nonpayable",
      "type": "function"
    },
    {
      "constant": true,
      "inputs": [],
      "name": "parentSnapShotBlock",
      "outputs": [
        {
          "name": "",
          "type": "uint256"
        }
      ],
      "payable": false,
      "stateMutability": "view",
      "type": "function"
    },
    {
      "constant": false,
      "inputs": [
        {
          "name": "_spender",
          "type": "address"
        },
        {
          "name": "_amount",
          "type": "uint256"
        },
        {
          "name": "_extraData",
          "type": "bytes"
        }
      ],
      "name": "approveAndCall",
      "outputs": [
        {
          "name": "success",
          "type": "bool"
        }
      ],
      "payable": false,
      "stateMutability": "nonpayable",
      "type": "function"
    },
    {
      "constant": false,
      "inputs": [
        {
          "name": "_owner",
          "type": "address"
        },
        {
          "name": "_amount",
          "type": "uint256"
        }
      ],
      "name": "destroyTokens",
      "outputs": [
        {
          "name": "",
          "type": "bool"
        }
      ],
      "payable": false,
      "stateMutability": "nonpayable",
      "type": "function"
    },
    {
      "constant": true,
      "inputs": [
        {
          "name": "_owner",
          "type": "address"
        },
        {
          "name": "_spender",
          "type": "address"
        }
      ],
      "name": "allowance",
      "outputs": [
        {
          "name": "remaining",
          "type": "uint256"
        }
      ],
      "payable": false,
      "stateMutability": "view",
      "type": "function"
    },
    {
      "constant": false,
      "inputs": [
        {
          "name": "_token",
          "type": "address"
        }
      ],
      "name": "claimTokens",
      "outputs": [],
      "payable": false,
      "stateMutability": "nonpayable",
      "type": "function"
    },
    {
      "constant": true,
      "inputs": [],
      "name": "tokenFactory",
      "outputs": [
        {
          "name": "",
          "type": "address"
        }
      ],
      "payable": false,
      "stateMutability": "view",
      "type": "function"
    },
    {
      "constant": false,
      "inputs": [
        {
          "name": "newOwner",
          "type": "address"
        }
      ],
      "name": "transferOwnership",
      "outputs": [],
      "payable": false,
      "stateMutability": "nonpayable",
      "type": "function"
    },
    {
      "constant": false,
      "inputs": [
        {
          "name": "_transfersEnabled",
          "type": "bool"
        }
      ],
      "name": "enableTransfers",
      "outputs": [],
      "payable": false,
      "stateMutability": "nonpayable",
      "type": "function"
    },
    {
      "constant": true,
      "inputs": [],
      "name": "controller",
      "outputs": [
        {
          "name": "",
          "type": "address"
        }
      ],
      "payable": false,
      "stateMutability": "view",
      "type": "function"
    },
    {
      "constant": false,
      "inputs": [
        {
          "name": "_spectreTeam",
          "type": "address"
        },
        {
          "name": "_managementLocked",
          "type": "address"
        },
        {
          "name": "_optionPool",
          "type": "address"
        }
      ],
      "name": "setWalletAddresses",
      "outputs": [],
      "payable": false,
      "stateMutability": "nonpayable",
      "type": "function"
    },
    {
      "inputs": [
        {
          "name": "_tokenFactory",
          "type": "address"
        }
      ],
      "payable": false,
      "stateMutability": "nonpayable",
      "type": "constructor"
    },
    {
      "payable": true,
      "stateMutability": "payable",
      "type": "fallback"
    },
    {
      "anonymous": false,
      "inputs": [
        {
          "indexed": false,
          "name": "_spectreTeam",
          "type": "address"
        },
        {
          "indexed": false,
          "name": "_managementLocked",
          "type": "address"
        },
        {
          "indexed": false,
          "name": "_optionPool",
          "type": "address"
        }
      ],
      "name": "WalletAddressesSet",
      "type": "event"
    },
    {
      "anonymous": false,
      "inputs": [
        {
          "indexed": true,
          "name": "previousOwner",
          "type": "address"
        },
        {
          "indexed": true,
          "name": "newOwner",
          "type": "address"
        }
      ],
      "name": "OwnershipTransferred",
      "type": "event"
    },
    {
      "anonymous": false,
      "inputs": [
        {
          "indexed": true,
          "name": "_token",
          "type": "address"
        },
        {
          "indexed": true,
          "name": "_controller",
          "type": "address"
        },
        {
          "indexed": false,
          "name": "_amount",
          "type": "uint256"
        }
      ],
      "name": "ClaimedTokens",
      "type": "event"
    },
    {
      "anonymous": false,
      "inputs": [
        {
          "indexed": true,
          "name": "_from",
          "type": "address"
        },
        {
          "indexed": true,
          "name": "_to",
          "type": "address"
        },
        {
          "indexed": false,
          "name": "_amount",
          "type": "uint256"
        }
      ],
      "name": "Transfer",
      "type": "event"
    },
    {
      "anonymous": false,
      "inputs": [
        {
          "indexed": true,
          "name": "_cloneToken",
          "type": "address"
        },
        {
          "indexed": false,
          "name": "_snapshotBlock",
          "type": "uint256"
        }
      ],
      "name": "NewCloneToken",
      "type": "event"
    },
    {
      "anonymous": false,
      "inputs": [
        {
          "indexed": true,
          "name": "_owner",
          "type": "address"
        },
        {
          "indexed": true,
          "name": "_spender",
          "type": "address"
        },
        {
          "indexed": false,
          "name": "_amount",
          "type": "uint256"
        }
      ],
      "name": "Approval",
      "type": "event"
    }
  ],
  "bytecode": "0x606060405260408051908101604052600781527f4d4d545f302e3100000000000000000000000000000000000000000000000000602082015260049080516200004d929160200190620001db565b50602a601155601280556028601355635a2cf790601455635b1a4590601555635c0e2b1060165534156200008057600080fd5b604051602080620024718339810160405280805191508190506000806040805190810160405280601681526020017f53706563747265204469766964656e6420546f6b656e00000000000000000000815250601260408051908101604052600481527f5358445400000000000000000000000000000000000000000000000000000000602082015260008054600160a060020a03338116600160a060020a031990921691909117909155600b80549188166101000261010060a860020a03199092169190911790556001808480516200015e929160200190620001db565b506002805460ff191660ff8516179055600382805162000183929160200190620001db565b5060058054600160a060020a0319908116600160a060020a0398891617909155600695909555600b805460ff191691151591909117905550504360075550600c80549091163390921691909117905550620002809050565b828054600181600116156101000203166002900490600052602060002090601f016020900481019282601f106200021e57805160ff19168380011785556200024e565b828001600101855582156200024e579182015b828111156200024e57825182559160200191906001019062000231565b506200025c92915062000260565b5090565b6200027d91905b808211156200025c576000815560010162000267565b90565b6121e180620002906000396000f3006060604052600436106102005763ffffffff60e060020a6000350416630483a7f681146102a557806306fdde03146102d6578063095ea7b31461036057806315f2e2f71461039657806317634514146103a957806318160ddd146103bc5780631d87614a146103cf57806323b872dd146103e25780632996f9721461040a5780632aab80dd14610439578063313ce5671461044c5780633cebb823146104755780633fd76a981461049457806340523946146104a757806342966c68146104ba5780634ee2cd7e146104d057806354fd4d50146104f25780636638c0871461050557806370a08231146105ad578063793e9b0b146105cc57806380a54001146105df578063827f32c0146105f257806383e19a95146106145780638da5cb5b146106275780638f50fdd61461063a57806395d89b411461064d578063981b24d0146106605780639ab2cf0d14610676578063a50776dd14610698578063a9059cbb146106ab578063b0af768b146106cd578063b2bf731d146106ec578063bef97c87146106ff578063c0ee0b8a14610712578063c5bcc4f114610777578063cae9ca511461078a578063d3ce77fe146107ef578063dd62ed3e14610811578063df8de3e714610836578063e77772fe14610855578063f2fde38b14610868578063f41e60c514610887578063f77c47911461089f578063fb6287d2146108b2575b60005461021590600160a060020a03166108dd565b151561022057600080fd5b60008054600160a060020a03169063f48c305490349033906040516020015260405160e060020a63ffffffff8516028152600160a060020a0390911660048201526024016020604051808303818588803b151561027c57600080fd5b6125ee5a03f1151561028d57600080fd5b505050506040518051905015156102a357600080fd5b005b34156102b057600080fd5b6102c4600160a060020a036004351661090a565b60405190815260200160405180910390f35b34156102e157600080fd5b6102e961091c565b60405160208082528190810183818151815260200191508051906020019080838360005b8381101561032557808201518382015260200161030d565b50505050905090810190601f1680156103525780820380516001836020036101000a031916815260200191505b509250505060405180910390f35b341561036b57600080fd5b610382600160a060020a03600435166024356109ba565b604051901515815260200160405180910390f35b34156103a157600080fd5b6102c4610b23565b34156103b457600080fd5b6102c4610b29565b34156103c757600080fd5b6102c4610b2f565b34156103da57600080fd5b6102c4610b40565b34156103ed57600080fd5b610382600160a060020a0360043581169060243516604435610b46565b341561041557600080fd5b61041d610b7e565b604051600160a060020a03909116815260200160405180910390f35b341561044457600080fd5b61041d610b8d565b341561045757600080fd5b61045f610b9c565b60405160ff909116815260200160405180910390f35b341561048057600080fd5b6102a3600160a060020a0360043516610ba5565b341561049f57600080fd5b6102c4610bef565b34156104b257600080fd5b61041d610bf5565b34156104c557600080fd5b6102a3600435610c04565b34156104db57600080fd5b6102c4600160a060020a0360043516602435610d1b565b34156104fd57600080fd5b6102e9610e51565b341561051057600080fd5b61041d60046024813581810190830135806020601f8201819004810201604051908101604052818152929190602084018383808284378201915050505050509190803560ff1690602001909190803590602001908201803590602001908080601f016020809104026020016040519081016040528181529291906020840183838082843750949650508435946020013515159350610ebc92505050565b34156105b857600080fd5b6102c4600160a060020a03600435166110e6565b34156105d757600080fd5b6102c46110fa565b34156105ea57600080fd5b61041d611100565b34156105fd57600080fd5b610382600160a060020a036004351660243561110f565b341561061f57600080fd5b6102c46111cd565b341561063257600080fd5b61041d6111d3565b341561064557600080fd5b6103826111e2565b341561065857600080fd5b6102e96111f2565b341561066b57600080fd5b6102c460043561125d565b341561068157600080fd5b610382600160a060020a0360043516602435611346565b34156106a357600080fd5b61041d61141a565b34156106b657600080fd5b610382600160a060020a0360043516602435611429565b34156106d857600080fd5b6102a3600160a060020a036004351661145e565b34156106f757600080fd5b6102c46114a8565b341561070a57600080fd5b6103826114ae565b341561071d57600080fd5b6102a360048035600160a060020a03169060248035919060649060443590810190830135806020601f820181900481020160405190810160405281815292919060208401838380828437509496506114b795505050505050565b341561078257600080fd5b6102c46114e8565b341561079557600080fd5b61038260048035600160a060020a03169060248035919060649060443590810190830135806020601f820181900481020160405190810160405281815292919060208401838380828437509496506114ee95505050505050565b34156107fa57600080fd5b610382600160a060020a0360043516602435611609565b341561081c57600080fd5b6102c4600160a060020a03600435811690602435166116c1565b341561084157600080fd5b6102a3600160a060020a03600435166116ec565b341561086057600080fd5b61041d611897565b341561087357600080fd5b6102a3600160a060020a03600435166118ab565b341561089257600080fd5b6102a36004351515611946565b34156108aa57600080fd5b61041d611974565b34156108bd57600080fd5b6102a3600160a060020a0360043581169060243581169060443516611983565b600080600160a060020a03831615156108f95760009150610904565b823b90506000811191505b50919050565b60176020526000908152604090205481565b60018054600181600116156101000203166002900480601f0160208091040260200160405190810160405280929190818152602001828054600181600116156101000203166002900480156109b25780601f10610987576101008083540402835291602001916109b2565b820191906000526020600020905b81548152906001019060200180831161099557829003601f168201915b505050505081565b600b5460009060ff1615156109ce57600080fd5b8115806109fe5750600160a060020a03338116600090815260096020908152604080832093871683529290522054155b1515610a0957600080fd5b600054610a1e90600160a060020a03166108dd565b15610ab95760008054600160a060020a03169063da682aeb903390869086906040516020015260405160e060020a63ffffffff8616028152600160a060020a0393841660048201529190921660248201526044810191909152606401602060405180830381600087803b1515610a9357600080fd5b6102c65a03f11515610aa457600080fd5b505050604051805190501515610ab957600080fd5b600160a060020a03338116600081815260096020908152604080832094881680845294909152908190208590557f8c5be1e5ebec7d5bd14f71427d1e84f3dd0314c0f7b2291e5b200ac8c7c3b9259085905190815260200160405180910390a35060015b92915050565b60145481565b60075481565b6000610b3a4361125d565b90505b90565b60165481565b6000610b528483611346565b1515610b5d57600080fd5b610b68848484611ac0565b1515610b7357600080fd5b5060015b9392505050565b600d54600160a060020a031681565b601054600160a060020a031681565b60025460ff1681565b60005433600160a060020a03908116911614610bc057600080fd5b6000805473ffffffffffffffffffffffffffffffffffffffff1916600160a060020a0392909216919091179055565b60125481565b600e54600160a060020a031681565b600080610c0f610b2f565b915082821015610c1e57600080fd5b610c27336110e6565b905082811015610c3657600080fd5b610c43600a848403611b60565b600160a060020a0333166000908152600860205260409020610c6790848303611b60565b600d54600160a060020a0316639dc29fac338560006040516020015260405160e060020a63ffffffff8516028152600160a060020a0390921660048301526024820152604401602060405180830381600087803b1515610cc657600080fd5b6102c65a03f11515610cd757600080fd5b505050604051805190501515610ce957fe5b600033600160a060020a03166000805160206121968339815191528560405190815260200160405180910390a3505050565b600160a060020a0382166000908152600860205260408120541580610d775750600160a060020a038316600090815260086020526040812080548492908110610d6057fe5b6000918252602090912001546001608060020a0316115b15610e2857600554600160a060020a031615610e2057600554600654600160a060020a0390911690634ee2cd7e908590610db2908690611c56565b60006040516020015260405160e060020a63ffffffff8516028152600160a060020a0390921660048301526024820152604401602060405180830381600087803b1515610dfe57600080fd5b6102c65a03f11515610e0f57600080fd5b505050604051805190509050610b1d565b506000610b1d565b600160a060020a0383166000908152600860205260409020610e4a9083611c6c565b9050610b1d565b60048054600181600116156101000203166002900480601f0160208091040260200160405190810160405280929190818152602001828054600181600116156101000203166002900480156109b25780601f10610987576101008083540402835291602001916109b2565b600080831515610eca574393505b600b546101009004600160a060020a0316635b7b72c130868a8a8a8960006040516020015260405160e060020a63ffffffff8916028152600160a060020a038716600482019081526024820187905260ff8516606483015282151560a483015260c0604483019081529091608481019060c40187818151815260200191508051906020019080838360005b83811015610f6d578082015183820152602001610f55565b50505050905090810190601f168015610f9a5780820380516001836020036101000a031916815260200191505b50838103825285818151815260200191508051906020019080838360005b83811015610fd0578082015183820152602001610fb8565b50505050905090810190601f168015610ffd5780820380516001836020036101000a031916815260200191505b5098505050505050505050602060405180830381600087803b151561102157600080fd5b6102c65a03f1151561103257600080fd5b5050506040518051915050600160a060020a038116633cebb8233360405160e060020a63ffffffff8416028152600160a060020a039091166004820152602401600060405180830381600087803b151561108b57600080fd5b6102c65a03f1151561109c57600080fd5b50505080600160a060020a03167f086c875b377f900b07ce03575813022f05dd10ed7640b5282cf6d3c3fc352ade8560405190815260200160405180910390a29695505050505050565b60006110f28243610d1b565b90505b919050565b60135481565b600554600160a060020a031681565b600080548190819033600160a060020a0390811691161461112f57600080fd5b611137610b2f565b91508382018290101561114957600080fd5b611152856110e6565b90508381018190101561116457600080fd5b611171600a858401611b60565b600160a060020a038516600090815260086020526040902061119590828601611b60565b84600160a060020a031660006000805160206121968339815191528660405190815260200160405180910390a3506001949350505050565b60155481565b600c54600160a060020a031681565b60105460a060020a900460ff1681565b60038054600181600116156101000203166002900480601f0160208091040260200160405190810160405280929190818152602001828054600181600116156101000203166002900480156109b25780601f10610987576101008083540402835291602001916109b2565b600a546000901580611292575081600a600081548110151561127b57fe5b6000918252602090912001546001608060020a0316115b1561133457600554600160a060020a03161561132c57600554600654600160a060020a039091169063981b24d0906112cb908590611c56565b60006040516020015260405160e060020a63ffffffff84160281526004810191909152602401602060405180830381600087803b151561130a57600080fd5b6102c65a03f1151561131b57600080fd5b5050506040518051905090506110f5565b5060006110f5565b61133f600a83611c6c565b90506110f5565b600f54600090600160a060020a038481169116148015906113755750601054600160a060020a03848116911614155b1561138257506001610b1d565b600f54600160a060020a0384811691161480156113a757506015546113a5611dcb565b115b156113b457506001610b1d565b601054600160a060020a0384811691161480156113d957506016546113d7611dcb565b115b156113e657506001610b1d565b600160a060020a03831660009081526017602052604090205461141161140b856110e6565b84611dcf565b10159392505050565b600f54600160a060020a031681565b60006114353383611346565b151561144057600080fd5b61144a8383611de1565b151561145557600080fd5b50600192915050565b600c5433600160a060020a0390811691161461147957600080fd5b600d805473ffffffffffffffffffffffffffffffffffffffff1916600160a060020a0392909216919091179055565b60115481565b600b5460ff1681565b60105460a060020a900460ff1615156114cf57600080fd5b6114d9838361110f565b506114e382611e00565b505050565b60065481565b60006114fa84846109ba565b151561150557600080fd5b83600160a060020a0316638f4ffcb1338530866040518563ffffffff1660e060020a0281526004018085600160a060020a0316600160a060020a0316815260200184815260200183600160a060020a0316600160a060020a0316815260200180602001828103825283818151815260200191508051906020019080838360005b8381101561159d578082015183820152602001611585565b50505050905090810190601f1680156115ca5780820380516001836020036101000a031916815260200191505b5095505050505050600060405180830381600087803b15156115eb57600080fd5b6102c65a03f115156115fc57600080fd5b5060019695505050505050565b600080548190819033600160a060020a0390811691161461162957600080fd5b611631610b2f565b91508382101561164057600080fd5b611649856110e6565b90508381101561165857600080fd5b611665600a858403611b60565b600160a060020a038516600090815260086020526040902061168990858303611b60565b600085600160a060020a03166000805160206121968339815191528660405190815260200160405180910390a3506001949350505050565b600160a060020a03918216600090815260096020908152604080832093909416825291909152205490565b60008054819033600160a060020a0390811691161461170a57600080fd5b600160a060020a038316151561175857600054600160a060020a039081169030163180156108fc0290604051600060405180830381858888f19350505050151561175357600080fd5b6114e3565b82915081600160a060020a03166370a082313060006040516020015260405160e060020a63ffffffff8416028152600160a060020a039091166004820152602401602060405180830381600087803b15156117b257600080fd5b6102c65a03f115156117c357600080fd5b505050604051805160008054919350600160a060020a03808616935063a9059cbb92169084906040516020015260405160e060020a63ffffffff8516028152600160a060020a0390921660048301526024820152604401602060405180830381600087803b151561183357600080fd5b6102c65a03f1151561184457600080fd5b50505060405180515050600054600160a060020a039081169084167ff931edb47c50b4b4104c187b5814a9aef5f709e17e2ecf9617e860cacade929c8360405190815260200160405180910390a3505050565b600b546101009004600160a060020a031681565b600c5433600160a060020a039081169116146118c657600080fd5b600160a060020a03811615156118db57600080fd5b600c54600160a060020a0380831691167f8be0079c531659141344cd1fd0a4f28419497f9722a3daafe3b4186f6b6457e060405160405180910390a3600c805473ffffffffffffffffffffffffffffffffffffffff1916600160a060020a0392909216919091179055565b60005433600160a060020a0390811691161461196157600080fd5b600b805460ff1916911515919091179055565b600054600160a060020a031681565b600c5433600160a060020a0390811691161461199e57600080fd5b60105460a060020a900460ff16156119b557600080fd5b600160a060020a03831615156119ca57600080fd5b600160a060020a03821615156119df57600080fd5b600160a060020a03811615156119f457600080fd5b600e8054600160a060020a0380861673ffffffffffffffffffffffffffffffffffffffff199283161792839055600f805486831690841617908190556010805474ff00000000000000000000000000000000000000001987851691909516179390931660a060020a17928390557f0bc2390103cdcea68787f9f22f8be92ccf20f5eae0bb850fbb70af78e366e4dd938216929082169116604051600160a060020a03938416815291831660208301529091166040808301919091526060909101905180910390a1505050565b6000805433600160a060020a03908116911614611b4d57600b5460ff161515611ae857600080fd5b600160a060020a038085166000908152600960209081526040808320339094168352929052205482901015611b1f57506000610b77565b600160a060020a03808516600090815260096020908152604080832033909416835292905220805483900390555b611b58848484611f33565b949350505050565b815460009081901580611b9957508354439085906000198101908110611b8257fe5b6000918252602090912001546001608060020a0316105b15611c0b5783548490611baf8260018301612158565b81548110611bb957fe5b600091825260209091200180546001608060020a03858116700100000000000000000000000000000000024382166fffffffffffffffffffffffffffffffff1990931692909217161781559150611c50565b835484906000198101908110611c1d57fe5b600091825260209091200180546001608060020a0380861670010000000000000000000000000000000002911617815590505b50505050565b6000818310611c655781610b77565b5090919050565b600080600080858054905060001415611c885760009350611dc2565b855486906000198101908110611c9a57fe5b6000918252602090912001546001608060020a03168510611cf757855486906000198101908110611cc757fe5b60009182526020909120015470010000000000000000000000000000000090046001608060020a03169350611dc2565b856000815481101515611d0657fe5b6000918252602090912001546001608060020a0316851015611d2b5760009350611dc2565b8554600093506000190191505b82821115611d88576002600183850101049050848682815481101515611d5a57fe5b6000918252602090912001546001608060020a031611611d7c57809250611d83565b6001810391505b611d38565b8583815481101515611d9657fe5b60009182526020909120015470010000000000000000000000000000000090046001608060020a031693505b50505092915050565b4290565b600082821115611ddb57fe5b50900390565b600b5460009060ff161515611df557600080fd5b610b77338484611f33565b6000806000611e2b611e1c85611e176012546120ff565b61210e565b611e2660646120ff565b612132565b9250611e3f611e1c85611e176013546120ff565b9150611e5484611e4f8585612149565b611dcf565b905083611e6a611e648585612149565b83612149565b14611e7157fe5b600e54611e8790600160a060020a03168261110f565b50600f54611e9e90600160a060020a03168461110f565b50601054611eb590600160a060020a03168361110f565b50600f54600160a060020a0316600090815260176020526040902054611edc908490612149565b600f54600160a060020a039081166000908152601760205260408082209390935560105490911681522054611f12908390612149565b601054600160a060020a031660009081526017602052604090205550505050565b60008080831515611f4757600192506120f6565b600654439010611f5657600080fd5b600160a060020a03851615801590611f80575030600160a060020a031685600160a060020a031614155b1515611f8b57600080fd5b611f958643610d1b565b915083821015611fa857600092506120f6565b600054611fbd90600160a060020a03166108dd565b156120585760008054600160a060020a031690634a393149908890889088906040516020015260405160e060020a63ffffffff8616028152600160a060020a0393841660048201529190921660248201526044810191909152606401602060405180830381600087803b151561203257600080fd5b6102c65a03f1151561204357600080fd5b50505060405180519050151561205857600080fd5b600160a060020a038616600090815260086020526040902061207c90858403611b60565b6120868543610d1b565b90508381018190101561209857600080fd5b600160a060020a03851660009081526008602052604090206120bc90828601611b60565b84600160a060020a031686600160a060020a03166000805160206121968339815191528660405190815260200160405180910390a3600192505b50509392505050565b60006110f282662386f26fc100005b600082820283158061212a575082848281151561212757fe5b04145b1515610b7757fe5b600080828481151561214057fe5b04949350505050565b600082820183811015610b7757fe5b8154818355818115116114e3576000838152602090206114e3918101908301610b3d91905b80821115612191576000815560010161217d565b50905600ddf252ad1be2c89b69c2b068fc378daa952ba7f163c4a11628f55a4df523b3efa165627a7a72305820436110168948613ff123d097b785d0b1be3e15a9d6167234c7d641efec5c52210029",
  "source": "pragma solidity ^0.4.15;\n\nimport \"./SpectreToken.sol\";\n\ncontract SpectreDividendToken is SpectreToken {\n\n    function SpectreDividendToken(address _tokenFactory)\n      MiniMeToken(\n        _tokenFactory,\n        0x0,                     // no parent token\n        0,                       // no snapshot block number from parent\n        \"Spectre Dividend Token\",           // Token name\n        18,                       // Decimals\n        \"SXDT\",                   // Symbol\n        true                    // Enable transfers\n      )\n    {}\n\n}\n",
  "sourcePath": "/Users/adamdossa/Development/Ethereum/spectre-tokensale/contracts/SpectreDividendToken.sol",
  "compiler": {
    "name": "solc",
    "version": "0.4.18+commit.9cf6e910.Emscripten.clang"
  },
  "schemaVersion": "1.0.1",
  "updatedAt": "2017-12-11T11:29:22.932Z"
}