{
  "contractName": "SpectreUtilityTokenMock",
  "abi": [
    {
      "constant": true,
      "inputs": [
        {
          "name": "",
          "type": "address"
        }
      ],
      "name": "lockedBalances",
      "outputs": [
        {
          "name": "",
          "type": "uint256"
        }
      ],
      "payable": false,
      "stateMutability": "view",
      "type": "function"
    },
    {
      "constant": true,
      "inputs": [],
      "name": "name",
      "outputs": [
        {
          "name": "",
          "type": "string"
        }
      ],
      "payable": false,
      "stateMutability": "view",
      "type": "function"
    },
    {
      "constant": false,
      "inputs": [
        {
          "name": "_spender",
          "type": "address"
        },
        {
          "name": "_amount",
          "type": "uint256"
        }
      ],
      "name": "approve",
      "outputs": [
        {
          "name": "success",
          "type": "bool"
        }
      ],
      "payable": false,
      "stateMutability": "nonpayable",
      "type": "function"
    },
    {
      "constant": true,
      "inputs": [],
      "name": "LOCK_START_TIME",
      "outputs": [
        {
          "name": "",
          "type": "uint256"
        }
      ],
      "payable": false,
      "stateMutability": "view",
      "type": "function"
    },
    {
      "constant": true,
      "inputs": [],
      "name": "creationBlock",
      "outputs": [
        {
          "name": "",
          "type": "uint256"
        }
      ],
      "payable": false,
      "stateMutability": "view",
      "type": "function"
    },
    {
      "constant": true,
      "inputs": [],
      "name": "totalSupply",
      "outputs": [
        {
          "name": "",
          "type": "uint256"
        }
      ],
      "payable": false,
      "stateMutability": "view",
      "type": "function"
    },
    {
      "constant": true,
      "inputs": [],
      "name": "OPTION_POOL_PERIOD",
      "outputs": [
        {
          "name": "",
          "type": "uint256"
        }
      ],
      "payable": false,
      "stateMutability": "view",
      "type": "function"
    },
    {
      "constant": false,
      "inputs": [
        {
          "name": "_from",
          "type": "address"
        },
        {
          "name": "_to",
          "type": "address"
        },
        {
          "name": "_value",
          "type": "uint256"
        }
      ],
      "name": "transferFrom",
      "outputs": [
        {
          "name": "success",
          "type": "bool"
        }
      ],
      "payable": false,
      "stateMutability": "nonpayable",
      "type": "function"
    },
    {
      "constant": true,
      "inputs": [],
      "name": "tokenBurner",
      "outputs": [
        {
          "name": "",
          "type": "address"
        }
      ],
      "payable": false,
      "stateMutability": "view",
      "type": "function"
    },
    {
      "constant": true,
      "inputs": [],
      "name": "optionPool",
      "outputs": [
        {
          "name": "",
          "type": "address"
        }
      ],
      "payable": false,
      "stateMutability": "view",
      "type": "function"
    },
    {
      "constant": true,
      "inputs": [],
      "name": "decimals",
      "outputs": [
        {
          "name": "",
          "type": "uint8"
        }
      ],
      "payable": false,
      "stateMutability": "view",
      "type": "function"
    },
    {
      "constant": false,
      "inputs": [
        {
          "name": "_newController",
          "type": "address"
        }
      ],
      "name": "changeController",
      "outputs": [],
      "payable": false,
      "stateMutability": "nonpayable",
      "type": "function"
    },
    {
      "constant": true,
      "inputs": [],
      "name": "MANAGEMENT_LOCKED_ALLOC",
      "outputs": [
        {
          "name": "",
          "type": "uint256"
        }
      ],
      "payable": false,
      "stateMutability": "view",
      "type": "function"
    },
    {
      "constant": true,
      "inputs": [],
      "name": "spectreTeam",
      "outputs": [
        {
          "name": "",
          "type": "address"
        }
      ],
      "payable": false,
      "stateMutability": "view",
      "type": "function"
    },
    {
      "constant": false,
      "inputs": [
        {
          "name": "_amount",
          "type": "uint256"
        }
      ],
      "name": "burn",
      "outputs": [],
      "payable": false,
      "stateMutability": "nonpayable",
      "type": "function"
    },
    {
      "constant": true,
      "inputs": [
        {
          "name": "_owner",
          "type": "address"
        },
        {
          "name": "_blockNumber",
          "type": "uint256"
        }
      ],
      "name": "balanceOfAt",
      "outputs": [
        {
          "name": "",
          "type": "uint256"
        }
      ],
      "payable": false,
      "stateMutability": "view",
      "type": "function"
    },
    {
      "constant": true,
      "inputs": [],
      "name": "version",
      "outputs": [
        {
          "name": "",
          "type": "string"
        }
      ],
      "payable": false,
      "stateMutability": "view",
      "type": "function"
    },
    {
      "constant": false,
      "inputs": [
        {
          "name": "_cloneTokenName",
          "type": "string"
        },
        {
          "name": "_cloneDecimalUnits",
          "type": "uint8"
        },
        {
          "name": "_cloneTokenSymbol",
          "type": "string"
        },
        {
          "name": "_snapshotBlock",
          "type": "uint256"
        },
        {
          "name": "_transfersEnabled",
          "type": "bool"
        }
      ],
      "name": "createCloneToken",
      "outputs": [
        {
          "name": "",
          "type": "address"
        }
      ],
      "payable": false,
      "stateMutability": "nonpayable",
      "type": "function"
    },
    {
      "constant": true,
      "inputs": [
        {
          "name": "_owner",
          "type": "address"
        }
      ],
      "name": "balanceOf",
      "outputs": [
        {
          "name": "balance",
          "type": "uint256"
        }
      ],
      "payable": false,
      "stateMutability": "view",
      "type": "function"
    },
    {
      "constant": true,
      "inputs": [],
      "name": "OPTION_POOL_ALLOC",
      "outputs": [
        {
          "name": "",
          "type": "uint256"
        }
      ],
      "payable": false,
      "stateMutability": "view",
      "type": "function"
    },
    {
      "constant": true,
      "inputs": [],
      "name": "parentToken",
      "outputs": [
        {
          "name": "",
          "type": "address"
        }
      ],
      "payable": false,
      "stateMutability": "view",
      "type": "function"
    },
    {
      "constant": false,
      "inputs": [
        {
          "name": "_owner",
          "type": "address"
        },
        {
          "name": "_amount",
          "type": "uint256"
        }
      ],
      "name": "generateTokens",
      "outputs": [
        {
          "name": "",
          "type": "bool"
        }
      ],
      "payable": false,
      "stateMutability": "nonpayable",
      "type": "function"
    },
    {
      "constant": true,
      "inputs": [],
      "name": "MANAGEMENT_LOCKED_PERIOD",
      "outputs": [
        {
          "name": "",
          "type": "uint256"
        }
      ],
      "payable": false,
      "stateMutability": "view",
      "type": "function"
    },
    {
      "constant": true,
      "inputs": [],
      "name": "owner",
      "outputs": [
        {
          "name": "",
          "type": "address"
        }
      ],
      "payable": false,
      "stateMutability": "view",
      "type": "function"
    },
    {
      "constant": true,
      "inputs": [],
      "name": "walletAddressesSet",
      "outputs": [
        {
          "name": "",
          "type": "bool"
        }
      ],
      "payable": false,
      "stateMutability": "view",
      "type": "function"
    },
    {
      "constant": false,
      "inputs": [
        {
          "name": "_b",
          "type": "uint256"
        }
      ],
      "name": "setMockedNow",
      "outputs": [],
      "payable": false,
      "stateMutability": "nonpayable",
      "type": "function"
    },
    {
      "constant": true,
      "inputs": [],
      "name": "symbol",
      "outputs": [
        {
          "name": "",
          "type": "string"
        }
      ],
      "payable": false,
      "stateMutability": "view",
      "type": "function"
    },
    {
      "constant": true,
      "inputs": [
        {
          "name": "_blockNumber",
          "type": "uint256"
        }
      ],
      "name": "totalSupplyAt",
      "outputs": [
        {
          "name": "",
          "type": "uint256"
        }
      ],
      "payable": false,
      "stateMutability": "view",
      "type": "function"
    },
    {
      "constant": true,
      "inputs": [
        {
          "name": "_holder",
          "type": "address"
        },
        {
          "name": "_value",
          "type": "uint256"
        }
      ],
      "name": "checkLockedBalance",
      "outputs": [
        {
          "name": "success",
          "type": "bool"
        }
      ],
      "payable": false,
      "stateMutability": "view",
      "type": "function"
    },
    {
      "constant": true,
      "inputs": [],
      "name": "managementLocked",
      "outputs": [
        {
          "name": "",
          "type": "address"
        }
      ],
      "payable": false,
      "stateMutability": "view",
      "type": "function"
    },
    {
      "constant": false,
      "inputs": [
        {
          "name": "_to",
          "type": "address"
        },
        {
          "name": "_value",
          "type": "uint256"
        }
      ],
      "name": "transfer",
      "outputs": [
        {
          "name": "success",
          "type": "bool"
        }
      ],
      "payable": false,
      "stateMutability": "nonpayable",
      "type": "function"
    },
    {
      "constant": false,
      "inputs": [
        {
          "name": "_tokenBurner",
          "type": "address"
        }
      ],
      "name": "setTokenBurner",
      "outputs": [],
      "payable": false,
      "stateMutability": "nonpayable",
      "type": "function"
    },
    {
      "constant": true,
      "inputs": [],
      "name": "SPECTRE_BOUNTY_ADVISORY_DEV_TEAM_ALLOC",
      "outputs": [
        {
          "name": "",
          "type": "uint256"
        }
      ],
      "payable": false,
      "stateMutability": "view",
      "type": "function"
    },
    {
      "constant": true,
      "inputs": [],
      "name": "transfersEnabled",
      "outputs": [
        {
          "name": "",
          "type": "bool"
        }
      ],
      "payable": false,
      "stateMutability": "view",
      "type": "function"
    },
    {
      "constant": false,
      "inputs": [
        {
          "name": "_from",
          "type": "address"
        },
        {
          "name": "_value",
          "type": "uint256"
        },
        {
          "name": "_data",
          "type": "bytes"
        }
      ],
      "name": "tokenFallback",
      "outputs": [],
      "payable": false,
      "stateMutability": "nonpayable",
      "type": "function"
    },
    {
      "constant": true,
      "inputs": [],
      "name": "parentSnapShotBlock",
      "outputs": [
        {
          "name": "",
          "type": "uint256"
        }
      ],
      "payable": false,
      "stateMutability": "view",
      "type": "function"
    },
    {
      "constant": false,
      "inputs": [
        {
          "name": "_spender",
          "type": "address"
        },
        {
          "name": "_amount",
          "type": "uint256"
        },
        {
          "name": "_extraData",
          "type": "bytes"
        }
      ],
      "name": "approveAndCall",
      "outputs": [
        {
          "name": "success",
          "type": "bool"
        }
      ],
      "payable": false,
      "stateMutability": "nonpayable",
      "type": "function"
    },
    {
      "constant": false,
      "inputs": [
        {
          "name": "_owner",
          "type": "address"
        },
        {
          "name": "_amount",
          "type": "uint256"
        }
      ],
      "name": "destroyTokens",
      "outputs": [
        {
          "name": "",
          "type": "bool"
        }
      ],
      "payable": false,
      "stateMutability": "nonpayable",
      "type": "function"
    },
    {
      "constant": true,
      "inputs": [
        {
          "name": "_owner",
          "type": "address"
        },
        {
          "name": "_spender",
          "type": "address"
        }
      ],
      "name": "allowance",
      "outputs": [
        {
          "name": "remaining",
          "type": "uint256"
        }
      ],
      "payable": false,
      "stateMutability": "view",
      "type": "function"
    },
    {
      "constant": false,
      "inputs": [
        {
          "name": "_token",
          "type": "address"
        }
      ],
      "name": "claimTokens",
      "outputs": [],
      "payable": false,
      "stateMutability": "nonpayable",
      "type": "function"
    },
    {
      "constant": true,
      "inputs": [],
      "name": "tokenFactory",
      "outputs": [
        {
          "name": "",
          "type": "address"
        }
      ],
      "payable": false,
      "stateMutability": "view",
      "type": "function"
    },
    {
      "constant": false,
      "inputs": [
        {
          "name": "newOwner",
          "type": "address"
        }
      ],
      "name": "transferOwnership",
      "outputs": [],
      "payable": false,
      "stateMutability": "nonpayable",
      "type": "function"
    },
    {
      "constant": false,
      "inputs": [
        {
          "name": "_transfersEnabled",
          "type": "bool"
        }
      ],
      "name": "enableTransfers",
      "outputs": [],
      "payable": false,
      "stateMutability": "nonpayable",
      "type": "function"
    },
    {
      "constant": true,
      "inputs": [],
      "name": "controller",
      "outputs": [
        {
          "name": "",
          "type": "address"
        }
      ],
      "payable": false,
      "stateMutability": "view",
      "type": "function"
    },
    {
      "constant": false,
      "inputs": [
        {
          "name": "_spectreTeam",
          "type": "address"
        },
        {
          "name": "_managementLocked",
          "type": "address"
        },
        {
          "name": "_optionPool",
          "type": "address"
        }
      ],
      "name": "setWalletAddresses",
      "outputs": [],
      "payable": false,
      "stateMutability": "nonpayable",
      "type": "function"
    },
    {
      "inputs": [
        {
          "name": "_tokenFactory",
          "type": "address"
        }
      ],
      "payable": false,
      "stateMutability": "nonpayable",
      "type": "constructor"
    },
    {
      "payable": true,
      "stateMutability": "payable",
      "type": "fallback"
    },
    {
      "anonymous": false,
      "inputs": [
        {
          "indexed": false,
          "name": "_now",
          "type": "uint256"
        }
      ],
      "name": "MockNow",
      "type": "event"
    },
    {
      "anonymous": false,
      "inputs": [
        {
          "indexed": false,
          "name": "_spectreTeam",
          "type": "address"
        },
        {
          "indexed": false,
          "name": "_managementLocked",
          "type": "address"
        },
        {
          "indexed": false,
          "name": "_optionPool",
          "type": "address"
        }
      ],
      "name": "WalletAddressesSet",
      "type": "event"
    },
    {
      "anonymous": false,
      "inputs": [
        {
          "indexed": true,
          "name": "previousOwner",
          "type": "address"
        },
        {
          "indexed": true,
          "name": "newOwner",
          "type": "address"
        }
      ],
      "name": "OwnershipTransferred",
      "type": "event"
    },
    {
      "anonymous": false,
      "inputs": [
        {
          "indexed": true,
          "name": "_token",
          "type": "address"
        },
        {
          "indexed": true,
          "name": "_controller",
          "type": "address"
        },
        {
          "indexed": false,
          "name": "_amount",
          "type": "uint256"
        }
      ],
      "name": "ClaimedTokens",
      "type": "event"
    },
    {
      "anonymous": false,
      "inputs": [
        {
          "indexed": true,
          "name": "_from",
          "type": "address"
        },
        {
          "indexed": true,
          "name": "_to",
          "type": "address"
        },
        {
          "indexed": false,
          "name": "_amount",
          "type": "uint256"
        }
      ],
      "name": "Transfer",
      "type": "event"
    },
    {
      "anonymous": false,
      "inputs": [
        {
          "indexed": true,
          "name": "_cloneToken",
          "type": "address"
        },
        {
          "indexed": false,
          "name": "_snapshotBlock",
          "type": "uint256"
        }
      ],
      "name": "NewCloneToken",
      "type": "event"
    },
    {
      "anonymous": false,
      "inputs": [
        {
          "indexed": true,
          "name": "_owner",
          "type": "address"
        },
        {
          "indexed": true,
          "name": "_spender",
          "type": "address"
        },
        {
          "indexed": false,
          "name": "_amount",
          "type": "uint256"
        }
      ],
      "name": "Approval",
      "type": "event"
    }
  ],
  "bytecode": "0x606060405260408051908101604052600781527f4d4d545f302e3100000000000000000000000000000000000000000000000000602082015260049080516200004d929160200190620001e2565b50602a601155601280556028601355635a2cf790601455635b1a4590601555635c0e2b10601655600160185534156200008557600080fd5b604051602080620024d6833981016040528080519150819050806000806040805190810160405280601581526020017f53706563747265205574696c69747920546f6b656e0000000000000000000000815250601260408051908101604052600481527f5358555400000000000000000000000000000000000000000000000000000000602082015260008054600160a060020a03338116600160a060020a031990921691909117909155600b80549188166101000261010060a860020a031990921691909117905560018084805162000164929160200190620001e2565b506002805460ff191660ff8516179055600382805162000189929160200190620001e2565b5060058054600160a060020a0319908116600160a060020a0398891617909155600695909555600b805460ff191691151591909117905550504360075550600c8054909116339092169190911790555062000287915050565b828054600181600116156101000203166002900490600052602060002090601f016020900481019282601f106200022557805160ff191683800117855562000255565b8280016001018555821562000255579182015b828111156200025557825182559160200191906001019062000238565b506200026392915062000267565b5090565b6200028491905b808211156200026357600081556001016200026e565b90565b61223f80620002976000396000f30060606040526004361061020b5763ffffffff60e060020a6000350416630483a7f681146102b057806306fdde03146102e1578063095ea7b31461036b57806315f2e2f7146103a157806317634514146103b457806318160ddd146103c75780631d87614a146103da57806323b872dd146103ed5780632996f972146104155780632aab80dd14610444578063313ce567146104575780633cebb823146104805780633fd76a981461049f57806340523946146104b257806342966c68146104c55780634ee2cd7e146104db57806354fd4d50146104fd5780636638c0871461051057806370a08231146105b8578063793e9b0b146105d757806380a54001146105ea578063827f32c0146105fd57806383e19a951461061f5780638da5cb5b146106325780638f50fdd614610645578063911058df1461065857806395d89b411461066e578063981b24d0146106815780639ab2cf0d14610697578063a50776dd146106b9578063a9059cbb146106cc578063b0af768b146106ee578063b2bf731d1461070d578063bef97c8714610720578063c0ee0b8a14610733578063c5bcc4f114610798578063cae9ca51146107ab578063d3ce77fe14610810578063dd62ed3e14610832578063df8de3e714610857578063e77772fe14610876578063f2fde38b14610889578063f41e60c5146108a8578063f77c4791146108c0578063fb6287d2146108d3575b60005461022090600160a060020a03166108fe565b151561022b57600080fd5b60008054600160a060020a03169063f48c305490349033906040516020015260405160e060020a63ffffffff8516028152600160a060020a0390911660048201526024016020604051808303818588803b151561028757600080fd5b6125ee5a03f1151561029857600080fd5b505050506040518051905015156102ae57600080fd5b005b34156102bb57600080fd5b6102cf600160a060020a036004351661092b565b60405190815260200160405180910390f35b34156102ec57600080fd5b6102f461093d565b60405160208082528190810183818151815260200191508051906020019080838360005b83811015610330578082015183820152602001610318565b50505050905090810190601f16801561035d5780820380516001836020036101000a031916815260200191505b509250505060405180910390f35b341561037657600080fd5b61038d600160a060020a03600435166024356109db565b604051901515815260200160405180910390f35b34156103ac57600080fd5b6102cf610b44565b34156103bf57600080fd5b6102cf610b4a565b34156103d257600080fd5b6102cf610b50565b34156103e557600080fd5b6102cf610b61565b34156103f857600080fd5b61038d600160a060020a0360043581169060243516604435610b67565b341561042057600080fd5b610428610b9f565b604051600160a060020a03909116815260200160405180910390f35b341561044f57600080fd5b610428610bae565b341561046257600080fd5b61046a610bbd565b60405160ff909116815260200160405180910390f35b341561048b57600080fd5b6102ae600160a060020a0360043516610bc6565b34156104aa57600080fd5b6102cf610c10565b34156104bd57600080fd5b610428610c16565b34156104d057600080fd5b6102ae600435610c25565b34156104e657600080fd5b6102cf600160a060020a0360043516602435610d3c565b341561050857600080fd5b6102f4610e72565b341561051b57600080fd5b61042860046024813581810190830135806020601f8201819004810201604051908101604052818152929190602084018383808284378201915050505050509190803560ff1690602001909190803590602001908201803590602001908080601f016020809104026020016040519081016040528181529291906020840183838082843750949650508435946020013515159350610edd92505050565b34156105c357600080fd5b6102cf600160a060020a0360043516611107565b34156105e257600080fd5b6102cf61111b565b34156105f557600080fd5b610428611121565b341561060857600080fd5b61038d600160a060020a0360043516602435611130565b341561062a57600080fd5b6102cf6111ee565b341561063d57600080fd5b6104286111f4565b341561065057600080fd5b61038d611203565b341561066357600080fd5b6102ae600435611213565b341561067957600080fd5b6102f461124e565b341561068c57600080fd5b6102cf6004356112b9565b34156106a257600080fd5b61038d600160a060020a03600435166024356113a2565b34156106c457600080fd5b610428611476565b34156106d757600080fd5b61038d600160a060020a0360043516602435611485565b34156106f957600080fd5b6102ae600160a060020a03600435166114ba565b341561071857600080fd5b6102cf611504565b341561072b57600080fd5b61038d61150a565b341561073e57600080fd5b6102ae60048035600160a060020a03169060248035919060649060443590810190830135806020601f8201819004810201604051908101604052818152929190602084018383808284375094965061151395505050505050565b34156107a357600080fd5b6102cf611544565b34156107b657600080fd5b61038d60048035600160a060020a03169060248035919060649060443590810190830135806020601f8201819004810201604051908101604052818152929190602084018383808284375094965061154a95505050505050565b341561081b57600080fd5b61038d600160a060020a0360043516602435611665565b341561083d57600080fd5b6102cf600160a060020a036004358116906024351661171d565b341561086257600080fd5b6102ae600160a060020a0360043516611748565b341561088157600080fd5b6104286118f3565b341561089457600080fd5b6102ae600160a060020a0360043516611907565b34156108b357600080fd5b6102ae60043515156119a2565b34156108cb57600080fd5b6104286119d0565b34156108de57600080fd5b6102ae600160a060020a03600435811690602435811690604435166119df565b600080600160a060020a038316151561091a5760009150610925565b823b90506000811191505b50919050565b60176020526000908152604090205481565b60018054600181600116156101000203166002900480601f0160208091040260200160405190810160405280929190818152602001828054600181600116156101000203166002900480156109d35780601f106109a8576101008083540402835291602001916109d3565b820191906000526020600020905b8154815290600101906020018083116109b657829003601f168201915b505050505081565b600b5460009060ff1615156109ef57600080fd5b811580610a1f5750600160a060020a03338116600090815260096020908152604080832093871683529290522054155b1515610a2a57600080fd5b600054610a3f90600160a060020a03166108fe565b15610ada5760008054600160a060020a03169063da682aeb903390869086906040516020015260405160e060020a63ffffffff8616028152600160a060020a0393841660048201529190921660248201526044810191909152606401602060405180830381600087803b1515610ab457600080fd5b6102c65a03f11515610ac557600080fd5b505050604051805190501515610ada57600080fd5b600160a060020a03338116600081815260096020908152604080832094881680845294909152908190208590557f8c5be1e5ebec7d5bd14f71427d1e84f3dd0314c0f7b2291e5b200ac8c7c3b9259085905190815260200160405180910390a35060015b92915050565b60145481565b60075481565b6000610b5b436112b9565b90505b90565b60165481565b6000610b7384836113a2565b1515610b7e57600080fd5b610b89848484611b1c565b1515610b9457600080fd5b5060015b9392505050565b600d54600160a060020a031681565b601054600160a060020a031681565b60025460ff1681565b60005433600160a060020a03908116911614610be157600080fd5b6000805473ffffffffffffffffffffffffffffffffffffffff1916600160a060020a0392909216919091179055565b60125481565b600e54600160a060020a031681565b600080610c30610b50565b915082821015610c3f57600080fd5b610c4833611107565b905082811015610c5757600080fd5b610c64600a848403611bbc565b600160a060020a0333166000908152600860205260409020610c8890848303611bbc565b600d54600160a060020a0316639dc29fac338560006040516020015260405160e060020a63ffffffff8516028152600160a060020a0390921660048301526024820152604401602060405180830381600087803b1515610ce757600080fd5b6102c65a03f11515610cf857600080fd5b505050604051805190501515610d0a57fe5b600033600160a060020a03166000805160206121f48339815191528560405190815260200160405180910390a3505050565b600160a060020a0382166000908152600860205260408120541580610d985750600160a060020a038316600090815260086020526040812080548492908110610d8157fe5b6000918252602090912001546001608060020a0316115b15610e4957600554600160a060020a031615610e4157600554600654600160a060020a0390911690634ee2cd7e908590610dd3908690611cb2565b60006040516020015260405160e060020a63ffffffff8516028152600160a060020a0390921660048301526024820152604401602060405180830381600087803b1515610e1f57600080fd5b6102c65a03f11515610e3057600080fd5b505050604051805190509050610b3e565b506000610b3e565b600160a060020a0383166000908152600860205260409020610e6b9083611cc8565b9050610b3e565b60048054600181600116156101000203166002900480601f0160208091040260200160405190810160405280929190818152602001828054600181600116156101000203166002900480156109d35780601f106109a8576101008083540402835291602001916109d3565b600080831515610eeb574393505b600b546101009004600160a060020a0316635b7b72c130868a8a8a8960006040516020015260405160e060020a63ffffffff8916028152600160a060020a038716600482019081526024820187905260ff8516606483015282151560a483015260c0604483019081529091608481019060c40187818151815260200191508051906020019080838360005b83811015610f8e578082015183820152602001610f76565b50505050905090810190601f168015610fbb5780820380516001836020036101000a031916815260200191505b50838103825285818151815260200191508051906020019080838360005b83811015610ff1578082015183820152602001610fd9565b50505050905090810190601f16801561101e5780820380516001836020036101000a031916815260200191505b5098505050505050505050602060405180830381600087803b151561104257600080fd5b6102c65a03f1151561105357600080fd5b5050506040518051915050600160a060020a038116633cebb8233360405160e060020a63ffffffff8416028152600160a060020a039091166004820152602401600060405180830381600087803b15156110ac57600080fd5b6102c65a03f115156110bd57600080fd5b50505080600160a060020a03167f086c875b377f900b07ce03575813022f05dd10ed7640b5282cf6d3c3fc352ade8560405190815260200160405180910390a29695505050505050565b60006111138243610d3c565b90505b919050565b60135481565b600554600160a060020a031681565b600080548190819033600160a060020a0390811691161461115057600080fd5b611158610b50565b91508382018290101561116a57600080fd5b61117385611107565b90508381018190101561118557600080fd5b611192600a858401611bbc565b600160a060020a03851660009081526008602052604090206111b690828601611bbc565b84600160a060020a031660006000805160206121f48339815191528660405190815260200160405180910390a3506001949350505050565b60155481565b600c54600160a060020a031681565b60105460a060020a900460ff1681565b60188190557ff54bf4ed226aa1df732802a8bd56e85755aab0a0ef7c2fbf204cf0de0765f0738160405190815260200160405180910390a150565b60038054600181600116156101000203166002900480601f0160208091040260200160405190810160405280929190818152602001828054600181600116156101000203166002900480156109d35780601f106109a8576101008083540402835291602001916109d3565b600a5460009015806112ee575081600a60008154811015156112d757fe5b6000918252602090912001546001608060020a0316115b1561139057600554600160a060020a03161561138857600554600654600160a060020a039091169063981b24d090611327908590611cb2565b60006040516020015260405160e060020a63ffffffff84160281526004810191909152602401602060405180830381600087803b151561136657600080fd5b6102c65a03f1151561137757600080fd5b505050604051805190509050611116565b506000611116565b61139b600a83611cc8565b9050611116565b600f54600090600160a060020a038481169116148015906113d15750601054600160a060020a03848116911614155b156113de57506001610b3e565b600f54600160a060020a0384811691161480156114035750601554611401611e27565b115b1561141057506001610b3e565b601054600160a060020a0384811691161480156114355750601654611433611e27565b115b1561144257506001610b3e565b600160a060020a03831660009081526017602052604090205461146d61146785611107565b84611e2d565b10159392505050565b600f54600160a060020a031681565b600061149133836113a2565b151561149c57600080fd5b6114a68383611e3f565b15156114b157600080fd5b50600192915050565b600c5433600160a060020a039081169116146114d557600080fd5b600d805473ffffffffffffffffffffffffffffffffffffffff1916600160a060020a0392909216919091179055565b60115481565b600b5460ff1681565b60105460a060020a900460ff16151561152b57600080fd5b6115358383611130565b5061153f82611e5e565b505050565b60065481565b600061155684846109db565b151561156157600080fd5b83600160a060020a0316638f4ffcb1338530866040518563ffffffff1660e060020a0281526004018085600160a060020a0316600160a060020a0316815260200184815260200183600160a060020a0316600160a060020a0316815260200180602001828103825283818151815260200191508051906020019080838360005b838110156115f95780820151838201526020016115e1565b50505050905090810190601f1680156116265780820380516001836020036101000a031916815260200191505b5095505050505050600060405180830381600087803b151561164757600080fd5b6102c65a03f1151561165857600080fd5b5060019695505050505050565b600080548190819033600160a060020a0390811691161461168557600080fd5b61168d610b50565b91508382101561169c57600080fd5b6116a585611107565b9050838110156116b457600080fd5b6116c1600a858403611bbc565b600160a060020a03851660009081526008602052604090206116e590858303611bbc565b600085600160a060020a03166000805160206121f48339815191528660405190815260200160405180910390a3506001949350505050565b600160a060020a03918216600090815260096020908152604080832093909416825291909152205490565b60008054819033600160a060020a0390811691161461176657600080fd5b600160a060020a03831615156117b457600054600160a060020a039081169030163180156108fc0290604051600060405180830381858888f1935050505015156117af57600080fd5b61153f565b82915081600160a060020a03166370a082313060006040516020015260405160e060020a63ffffffff8416028152600160a060020a039091166004820152602401602060405180830381600087803b151561180e57600080fd5b6102c65a03f1151561181f57600080fd5b505050604051805160008054919350600160a060020a03808616935063a9059cbb92169084906040516020015260405160e060020a63ffffffff8516028152600160a060020a0390921660048301526024820152604401602060405180830381600087803b151561188f57600080fd5b6102c65a03f115156118a057600080fd5b50505060405180515050600054600160a060020a039081169084167ff931edb47c50b4b4104c187b5814a9aef5f709e17e2ecf9617e860cacade929c8360405190815260200160405180910390a3505050565b600b546101009004600160a060020a031681565b600c5433600160a060020a0390811691161461192257600080fd5b600160a060020a038116151561193757600080fd5b600c54600160a060020a0380831691167f8be0079c531659141344cd1fd0a4f28419497f9722a3daafe3b4186f6b6457e060405160405180910390a3600c805473ffffffffffffffffffffffffffffffffffffffff1916600160a060020a0392909216919091179055565b60005433600160a060020a039081169116146119bd57600080fd5b600b805460ff1916911515919091179055565b600054600160a060020a031681565b600c5433600160a060020a039081169116146119fa57600080fd5b60105460a060020a900460ff1615611a1157600080fd5b600160a060020a0383161515611a2657600080fd5b600160a060020a0382161515611a3b57600080fd5b600160a060020a0381161515611a5057600080fd5b600e8054600160a060020a0380861673ffffffffffffffffffffffffffffffffffffffff199283161792839055600f805486831690841617908190556010805474ff00000000000000000000000000000000000000001987851691909516179390931660a060020a17928390557f0bc2390103cdcea68787f9f22f8be92ccf20f5eae0bb850fbb70af78e366e4dd938216929082169116604051600160a060020a03938416815291831660208301529091166040808301919091526060909101905180910390a1505050565b6000805433600160a060020a03908116911614611ba957600b5460ff161515611b4457600080fd5b600160a060020a038085166000908152600960209081526040808320339094168352929052205482901015611b7b57506000610b98565b600160a060020a03808516600090815260096020908152604080832033909416835292905220805483900390555b611bb4848484611f91565b949350505050565b815460009081901580611bf557508354439085906000198101908110611bde57fe5b6000918252602090912001546001608060020a0316105b15611c675783548490611c0b82600183016121b6565b81548110611c1557fe5b600091825260209091200180546001608060020a03858116700100000000000000000000000000000000024382166fffffffffffffffffffffffffffffffff1990931692909217161781559150611cac565b835484906000198101908110611c7957fe5b600091825260209091200180546001608060020a0380861670010000000000000000000000000000000002911617815590505b50505050565b6000818310611cc15781610b98565b5090919050565b600080600080858054905060001415611ce45760009350611e1e565b855486906000198101908110611cf657fe5b6000918252602090912001546001608060020a03168510611d5357855486906000198101908110611d2357fe5b60009182526020909120015470010000000000000000000000000000000090046001608060020a03169350611e1e565b856000815481101515611d6257fe5b6000918252602090912001546001608060020a0316851015611d875760009350611e1e565b8554600093506000190191505b82821115611de4576002600183850101049050848682815481101515611db657fe5b6000918252602090912001546001608060020a031611611dd857809250611ddf565b6001810391505b611d94565b8583815481101515611df257fe5b60009182526020909120015470010000000000000000000000000000000090046001608060020a031693505b50505092915050565b60185490565b600082821115611e3957fe5b50900390565b600b5460009060ff161515611e5357600080fd5b610b98338484611f91565b6000806000611e89611e7a85611e7560125461215d565b61216c565b611e84606461215d565b612190565b9250611e9d611e7a85611e7560135461215d565b9150611eb284611ead85856121a7565b611e2d565b905083611ec8611ec285856121a7565b836121a7565b14611ecf57fe5b600e54611ee590600160a060020a031682611130565b50600f54611efc90600160a060020a031684611130565b50601054611f1390600160a060020a031683611130565b50600f54600160a060020a0316600090815260176020526040902054611f3a9084906121a7565b600f54600160a060020a039081166000908152601760205260408082209390935560105490911681522054611f709083906121a7565b601054600160a060020a031660009081526017602052604090205550505050565b60008080831515611fa55760019250612154565b600654439010611fb457600080fd5b600160a060020a03851615801590611fde575030600160a060020a031685600160a060020a031614155b1515611fe957600080fd5b611ff38643610d3c565b9150838210156120065760009250612154565b60005461201b90600160a060020a03166108fe565b156120b65760008054600160a060020a031690634a393149908890889088906040516020015260405160e060020a63ffffffff8616028152600160a060020a0393841660048201529190921660248201526044810191909152606401602060405180830381600087803b151561209057600080fd5b6102c65a03f115156120a157600080fd5b5050506040518051905015156120b657600080fd5b600160a060020a03861660009081526008602052604090206120da90858403611bbc565b6120e48543610d3c565b9050838101819010156120f657600080fd5b600160a060020a038516600090815260086020526040902061211a90828601611bbc565b84600160a060020a031686600160a060020a03166000805160206121f48339815191528660405190815260200160405180910390a3600192505b50509392505050565b600061111382662386f26fc100005b6000828202831580612188575082848281151561218557fe5b04145b1515610b9857fe5b600080828481151561219e57fe5b04949350505050565b600082820183811015610b9857fe5b81548183558181151161153f5760008381526020902061153f918101908301610b5e91905b808211156121ef57600081556001016121db565b50905600ddf252ad1be2c89b69c2b068fc378daa952ba7f163c4a11628f55a4df523b3efa165627a7a72305820e4407d30cdeb305ceac179ea70d6bb0e4aeb481e9c0205f285c1549274be519e0029",
  "source": "pragma solidity ^0.4.15;\n\nimport '../SpectreUtilityToken.sol';\n\ncontract SpectreUtilityTokenMock is SpectreUtilityToken {\n\n  event MockNow(uint _now);\n\n  uint mock_now = 1;\n\n  function SpectreUtilityTokenMock(address _tokenFactory)\n    SpectreUtilityToken(_tokenFactory)\n  {}\n\n  function getNow() internal constant returns (uint) {\n      return mock_now;\n  }\n\n  function setMockedNow(uint _b) public {\n      mock_now = _b;\n      MockNow(_b);\n  }\n\n}\n",
  "sourcePath": "/Users/adamdossa/Development/Ethereum/spectre-tokensale/contracts/mock/SpectreUtilityTokenMock.sol",
  "compiler": {
    "name": "solc",
    "version": "0.4.18+commit.9cf6e910.Emscripten.clang"
  },
  "schemaVersion": "1.0.1",
  "updatedAt": "2017-12-11T11:23:31.418Z"
}